:020000040800F2
:100000000050002049130008111200081D120008BA
:1000100023120008291200082F1200080000000017
:100020000000000000000000000000003164000833
:100030003512000800000000B1660008F9660008EB
:100040009113000891130008911300089113000800
:1000500091130008911300089113000891130008F0
:100060009113000891130008911300084112000831
:1000700091130008911300089113000891130008D0
:1000800055120008911300089113000891120008FE
:10009000A5120008B9120008CD120008911300083B
:1000A00091130008911300089113000891130008A0
:1000B00091130008911300086912000891130008B9
:1000C0009113000891130008911300089113000880
:1000D00091130008911300087D1200089113000885
:1000E000911300089113000891130008000000000C
:1000F0000000000000000000000000000000000000
:0C01000000000000000000005FF808F1A3
:1001100010B5054C237833B9044B13B10448AFF341
:1001200000800123237010BD140000200000000097
:100130006886000808B5034B1BB103490348AFF3B9
:10014000008008BD0000000018000020688600083C
:10015000F0B400EB4003DFF8800000EBC30000F1D7
:1001600018063069F768756887422ED3B368DC1BC0
:10017000631E934212D37D19D01900BF11F8013BC1
:1001800005F8013B013A05D011F8013B05F8013BA8
:10019000013AF3D1F0600120F0BC7047C0189042E2
:1001A00017D37819121B11F8013B00F8013B013CF1
:1001B000F9D1141C05D011F8013B05F8013B013AB7
:1001C000F9D1F4600120F0BC7047C01B01389042A7
:1001D000D1D20020F0BC7047DC46002080B485B04E
:1001E00000AFF860B9607A60FB68074A1A60BB68C4
:1001F000064A1A607B684FF480721A6000BF143799
:10020000BD4680BC704700BF300000208400002045
:1002100080B584B000AF7860164B1B78B52293424E
:100220001BD1144B5B786222934216D10023FB60F2
:100230000AE0FB689A1CFB680F490B440D498A5C75
:100240001A70FB680133FB60FB681F2BF1DD242271
:1002500008490A4804F0F8FB07E0084804F048FCA5
:1002600024220449054804F0EFFB00BF1037BD46C7
:1002700080BD00BF24460020844500204C4600205D
:1002800080B582B002AF01F085F84FF4FA6001F05A
:10029000B3F800F0A1F800F0E9F900F0C1F900F0BE
:1002A000F7F800F033F900F04FFA00F08FF900F0A2
:1002B00063F93D4B1B683C4A43F00103136000F0B7
:1002C00071FA40F20341394802F067F80346002B07
:1002D00001D000F029FD354801F030FE0346002B27
:1002E00001D000F021FD01223149324801F07EF9B0
:1002F00024223149314804F0A7FB06F065FC07F0E1
:10030000A3FB2F4B019307230093002380222D4949
:100310002D4805F094F905F02FFC41F2883001F0EA
:100320006BF82A4BAA225A70284BBB22DA72274B51
:10033000CC225A75254B00221A70244B00229A7247
:10034000224B00221A750A2300931A231F4A1021F8
:100350001F4803F09FF84FF400511E4802F059FF68
:1003600041F2883001F048F8184BDD221A70174B23
:10037000EE229A72154BFF221A75144B00225A7006
:10038000124B0022DA72114B00225A750A23009395
:100390001A230E4A10210E4803F07CF84FF4005146
:1003A0000C4802F036FFB8E7001000E0D04400200F
:1003B0002046002014450020244600204C46002002
:1003C0004846002080860008F1070008F844002015
:1003D000784400200010014080B594B000AF07F1D0
:1003E000280328220021184608F036F907F11403E3
:1003F00000221A605A609A60DA601A613B1D00227E
:100400001A605A609A60DA600123BB624FF480334D
:10041000FB6200233B630123BB6302237B644FF435
:100420008033BB644FF4E013FB6407F128031846E4
:1004300003F02AFB0346002B01D000F075FC0F23CC
:100440007B610223BB610023FB614FF480633B624D
:1004500000237B6207F114030221184603F094FD88
:100460000346002B01D000F05FFC02237B604FF4B9
:100470004043FB603B1D184603F052FF0346002B30
:1004800001D000F051FC00BF5037BD4680BD0000D8
:1004900080B584B000AF3B1D00221A605A609A609C
:1004A000184B194A1A60174B00229A60154B01220B
:1004B0001A73144B00221A75124B4FF46022DA6142
:1004C000104B00225A600F4B01221A610D4800F0B8
:1004D000B5FF0346002B01D000F026FC01237B6012
:1004E0000123BB600723FB603B1D1946054801F053
:1004F00077F90346002B01D000F016FC00BF10373F
:10050000BD4680BD144500200024014080B500AFE9
:10051000174B184A1A60164B09225A60144B0022D6
:100520009A60134B0022DA60114B4FF430221A61AB
:100530000F4B4FF400125A610D4B00221A760C4BF0
:1005400001225A760A4B00229A76094B0122DA766A
:10055000074B00221A77064B00225A77044801F015
:1005600029FB0346002B01D000F0DEFB00BF80BD5D
:10057000D04400200064004080B500AF114B124A07
:100580001A60104B4FF4E1325A600E4B00229A6011
:100590000C4B0022DA600B4B00221A61094B082237
:1005A0005A61084B00229A61064B0022DA61054825
:1005B00004F064F90346002B01D000F0B5FB00BF46
:1005C00080BD00BF444500200038014080B500AF29
:1005D000114B124A1A60104B4FF4E1325A600E4B25
:1005E00000229A600C4B0022DA600B4B00221A6149
:1005F000094B04225A61084B00229A61064B0022E3
:10060000DA61054804F03AF90346002B01D000F006
:100610008BFB00BF80BD00BF4C4600200044004063
:1006200080B582B000AF104B5B690F4A43F0010305
:1006300053610D4B5B6903F001037B607B68002213
:1006400005210B2002F0A1F90B2002F0BAF90022DB
:100650000521102002F099F9102002F0B2F900BF34
:100660000837BD4680BD00BF0010024080B588B08D
:1006700000AF07F1100300221A605A609A60DA6036
:100680002E4B9B692D4A43F0100393612B4B9B69C2
:1006900003F01003FB60FB68284B9B69274A43F07B
:1006A00020039361254B9B6903F02003BB60BB686B
:1006B000224B9B69214A43F0040393611F4B9B69C2
:1006C00003F004037B607B681C4B9B691B4A43F06F
:1006D00008039361194B9B6903F008033B603B6877
:1006E0004FF440433B6100237B610023BB6107F172
:1006F00010031946124802F01BFC4FF400533B61F3
:1007000001237B610023BB610223FB6107F110031E
:1007100019460C4802F00CFC20233B6101237B614D
:100720000023BB610223FB6107F110031946044853
:1007300002F0FEFB00BF2037BD4680BD0010024026
:10074000000C01400010014080B500AF124B134A6D
:100750001A60114B124A5A600F4B00229A600E4BDE
:100760000022DA600C4B4FF480421A610A4B0022DF
:100770005A61094B00229A61074B0022DA61064B4D
:1007800080221A62044802F05DFD0346002B01D06E
:1007900000F0CAFA00BF80BD784400200054004039
:1007A000801A060080B58AB000AF01233B620023A7
:1007B0007B6100233B6100233B6000237B600023BF
:1007C000BB600023FB600023BB610123FB613B4650
:1007D0001946064801F0E9FA0346002B01D000F063
:1007E000A3FA00BF2837BD4680BD00BFD04400201B
:1007F00080B584B002AF786003220021012004F0AC
:1008000063FE02462A4B1A60012005F07DF9294B50
:1008100001930323009300234FF480722649274855
:1008200004F00DFF012005F06FF9254B0193022321
:10083000009300234FF480722249234804F0FFFE06
:10084000012005F061F9214B01930223009300235D
:100850004FF480721E491F4804F0F1FE012005F09C
:1008600053F91D4B01930123009300234FF4807231
:100870001A491B4804F0E3FE012005F045F9194B25
:1008800001930623009300234FF480721649174802
:1008900004F0D5FE164B1B68002B04D0144B1B68CC
:1008A000184605F017F800BF0837BD4680BD00BFE9
:1008B000CC440020704400208C860008F508000815
:1008C00024440020948600087909000894460020FA
:1008D000A4860008210A00088C460020AC86000887
:1008E000A50A00086C440020B8860008710B0008B7
:1008F0004846002080B594B000AF7860C823FB6400
:1009000005F046FA0346BB640423BB6340F264630C
:10091000BB6200233B6300237B6307F1400307F1C5
:10092000440207F12801134801F04CFB0346002B59
:1009300001D000F0F9F90423FB6140F26563FB602C
:1009400000237B610023BB6107F1400307F1240210
:1009500007F10C01074801F035FB0346002B01D0DD
:1009600000F0E2F907F14803F96C184605F04EF87B
:10097000CAE700BFD044002080B58CB000AF7860DB
:100980000A23FB6205F004FA0346BB624FF4804180
:100990001E4802F027FC03461A461D4B1A704FF4FE
:1009A00000411A4802F01EFC03461A46194B1A7001
:1009B000174B1A78184B1A70174B1B7887F824308E
:1009C000144B1A78144B5A70134B5B7887F8253008
:1009D0000223BB6140F25763BB6000233B610023ED
:1009E0007B6107F1200307F1240207F108010B489E
:1009F00001F0E8FA0346002B01D000F095F907F169
:100A00002803F96A184605F001F8BFE7000C014019
:100A10007444002090460020A4450020D0440020CB
:100A200080B58CB000AF78600A23FB6205F0B0F9A6
:100A30000346BB62184B1B881B0A9BB2DAB2174BEA
:100A40009A70164B9B7887F82430134B1B88DAB2C8
:100A5000124BDA70114BDB7887F825300223BB612B
:100A600040F25663BB6000233B6100237B6107F1CA
:100A7000200307F1240207F10801094801F0A2FA56
:100A80000346002B01D000F04FF907F12803F96A63
:100A9000184604F0BBFFCDE720460020A445002007
:100AA000D044002080B586B002AF78600A23FB6096
:100AB00005F06EF90346BB60284B1B78012B1CD157
:100AC000264B00221A70264BAA225A70244BBB22B6
:100AD000DA72234BCC225A75214B00221A70204B1C
:100AE00000229A721E4B00221A750A2300931A23C1
:100AF0001B4A10211B4802F0CDFC1B4B1B78012B1D
:100B00001CD1194B00221A70154BDD221A70144BA0
:100B1000EE229A72124BFF221A75114B00225A7064
:100B20000F4B0022DA720E4B00225A750A230093F3
:100B30001A230B4A10210B4802F0ACFC0A23009345
:100B40001A230A4A1021074802F0A4FC07F10803FF
:100B5000F968184604F05AFFAEE700BF840400208D
:100B6000F84400207844002085040020A44500209B
:100B700080B586B000AF786064233B6105F008F96A
:100B80000346FB60114B1A78114B1A7001237B61ED
:100B90000BE07B69013B0F4AD15C0D4A7B69134432
:100BA0000A461A707B6901337B617B691A2BF0DD81
:100BB0000A231B220649084803F0ADFE07F10C0387
:100BC0003969184604F022FFDCE700BF000000206E
:100BD000C0450020A44500204445002080B58CB0CD
:100BE00000AF786007F10C0307F114020021786868
:100BF00001F0C2FA0346002B01D000F095F87B69A2
:100C000040F24E62934202D13B4B01221A707B6943
:100C100040F24F62934202D1384B01221A707B6935
:100C2000B3F5CA6F05D13A7B354B1A717A7B344BD9
:100C30005A717B6940F25162934205D13A7B304B45
:100C40009A717A7B2E4BDA717B6940F25262934241
:100C500005D13A7B2A4B1A727A7B294B5A727B69EF
:100C600040F25362934205D13A7B254B9A727A7BCC
:100C7000234BDA727B6940F25462934205D13A7B8E
:100C80001F4B1A737A7B1E4B5A737B6940F2556275
:100C900093420BD13A7B1A4B9A737A7B184BDA73D7
:100CA000BA7B174B1A74FA7B154B5A747B69B3F5F0
:100CB000CD6F0BD13A7B124B9A747A7B104BDA745E
:100CC000BA7B0F4B1A75FA7B0D4B5A757B6940F254
:100CD000696293420BD13A7B094B9A757A7B084B38
:100CE000DA75BA7B064B1A76FA7B054B5A7600BF4B
:100CF0003037BD4680BD00BF84040020850400203D
:100D0000A445002080B582B000AF78607B681B6886
:100D1000044A934201D100F053FB00BF0837BD469F
:100D200080BD00BF0008004080B400AF00BFBD46DA
:100D300080BC704780B584B000AF194B9B69184ADE
:100D400043F001039361164B9B6903F00103BB6001
:100D5000BB68134BDB69124A43F08053D361104BDD
:100D6000DB6903F080537B607B6800220F216FF00A
:100D7000010001F00AFE0B4B5B68FB60FB6823F08F
:100D8000E063FB60FB6843F00073FB60054AFB68AF
:100D9000536005F0E1FB00BF1037BD4680BD00BFCA
:100DA000001002400000014080B588B000AF7860BC
:100DB00007F1100300221A605A609A60DA607B68BB
:100DC0001B68284A934249D1274B9B69264A43F422
:100DD00000739361244B9B6903F40073FB60FB6811
:100DE000214B9B69204A43F0040393611E4B9B698E
:100DF00003F00403BB60BB6802233B6103237B61F8
:100E000007F110031946194802F092F8184B194AD5
:100E10001A60174B00225A60154B00229A60144B3F
:100E20008022DA60124B4FF480721A61104B4FF43B
:100E300080625A610E4B20229A610D4B0022DA61CA
:100E40000B4801F0CDFD0346002B01D0FFF76CFFEE
:100E50007B68074A1A62064A7B68536200BF2037E4
:100E6000BD4680BD00240140001002400008014042
:100E7000DC4500200800024080B58AB000AF7860F1
:100E800007F1140300221A605A609A60DA607B68E6
:100E90001B68354A934263D1344BDB69334A43F0D4
:100EA0000073D361314BDB6903F000733B613B6935
:100EB0002E4B9B692D4A43F0080393612B4B9B6992
:100EC00003F00803FB60FB684FF480737B61002331
:100ED000BB610023FB6107F114031946244802F0AB
:100EE00027F84FF400737B610223BB6103233B624D
:100EF00007F1140319461E4802F01AF81D4B5B68EF
:100F00007B627B6A23F4C0437B627B6A43F0E063CD
:100F10007B627B6A43F480437B62164A7B6A536040
:100F200000220521132001F030FD132001F049FDBE
:100F300000220521142001F028FD142001F041FDBC
:100F400000220521152001F020FD152001F039FDBA
:100F500000220521162001F018FD162001F031FDB8
:100F600000BF2837BD4680BD00640040001002402D
:100F7000000C01400000014080B588B000AF7860EF
:100F800007F1100300221A605A609A60DA607B68E9
:100F90001B68154A934223D1144BDB69134A43F46F
:100FA0000013D361114BDB6903F40013FB60FB6892
:100FB0000E4B9B690D4A43F0080393610B4B9B69F1
:100FC00003F00803BB60BB68C0233B6112237B6155
:100FD0000323FB6107F110031946054801F0A8FF40
:100FE00000BF2037BD4680BD0054004000100240C5
:100FF000000C014080B58AB000AF786007F118039B
:1010000000221A605A609A60DA607B681B684E4A58
:10101000934232D14D4B9B694C4A43F480439361D8
:101020004A4B9B6903F480437B617B69474B9B6917
:10103000464A43F004039361444B9B6903F0040365
:101040003B613B694FF40073BB610223FB610323E7
:101050007B6207F1180319463D4801F069FF4FF420
:101060008063BB610023FB6100233B6207F118032F
:101070001946374801F05CFF62E07B681B68354A1F
:1010800093425DD1314BDB69304A43F40033D36185
:101090002E4BDB6903F40033FB60FB682B4B9B6931
:1010A0002A4A43F004039361284B9B6903F004032D
:1010B000BB60BB680423BB610223FB6103237B622B
:1010C00007F118031946224801F032FF0823BB61DB
:1010D0000023FB6100233B6207F1180319461C48FB
:1010E00001F026FF1C4B1D4A1A601B4B00225A6060
:1010F000194B00229A60184B8022DA60164B0022AE
:101100001A61154B00225A61134B00229A61124B4F
:101110000022DA61104801F063FC0346002B01D085
:10112000FFF702FE7B680C4A5A630B4A7B685362E6
:1011300000220521262001F028FC262001F041FC98
:1011400000BF2837BD4680BD003801400010024076
:101150000008014000440040284400206C00024088
:1011600080B58CB000AF78600023FB620023BB62C7
:10117000002279681E2001F008FC1E2001F021FCED
:101180001F4BDB691E4A43F00403D3611C4BDB6930
:1011900003F00403FB60FB6807F1100207F114037E
:1011A0001146184603F06EF803F044F803465B005E
:1011B000FB62FB6A134AA2FB03239B0C013BBB624D
:1011C000114B124A1A60104B40F2E732DA600E4AB5
:1011D000BB6A53600C4B00221A610B4B00229A60D1
:1011E000094803F053F90346002B04D1064803F0E5
:1011F00081F9034600E0012318463037BD4680BD23
:101200000010024083DE1B43984600200008004087
:1012100080B400AF00BFBD4680BC704780B400AF53
:10122000FEE780B400AFFEE780B400AFFEE780B415
:1012300000AFFEE780B400AF00BFBD4680BC704782
:1012400080B500AF024801F035FD00BF80BD00BF92
:10125000DC45002080B500AF024801F02BFD00BF47
:1012600080BD00BF2844002080B500AF024803F0D5
:1012700064F900BF80BD00BF9846002080B500AF74
:10128000024803F0B7FC00BF80BD00BF4C46002001
:1012900080B500AF024801F0A5F800BF80BD00BFD7
:1012A000D044002080B500AF024801F09BF800BF99
:1012B00080BD00BFD044002080B500AF024801F0DF
:1012C00091F800BF80BD00BFD044002080B500AFC2
:1012D000024801F087F800BF80BD00BFD044002065
:1012E00080B400AF154B1B68144A43F00103136030
:1012F000124B5A681149124B13404B600F4B1B683D
:101300000E4A23F0847323F4803313600B4B1B6865
:101310000A4A23F480231360084B5B68074A23F4CE
:10132000FE035360054B4FF41F029A60054B4FF0CC
:1013300000629A6000BFBD4680BC7047001002404A
:101340000000FFF800ED00E0002103E00B4B5B58CC
:10135000435004310A480B4B42189A42F6D30A4ACA
:1013600002E0002342F8043B084B9A42F9D3FFF70E
:10137000B7FF07F033F9FEF783FF7047D087000807
:1013800000000020140000201400002084470020EA
:10139000FEE7000080B500AF084B1B68074A43F02A
:1013A00010031360032001F0E5FA0020FFF7D8FED8
:1013B000FFF7C0FC0023184680BD00BF002002409C
:1013C00080B400AF054B1B781A46054B1B681344CD
:1013D000034A136000BFBD4680BC70470C0000206C
:1013E000D846002080B400AF024B1B681846BD46AB
:1013F00080BC7047D846002080B584B000AF7860CC
:10140000FFF7F0FFB8607B68FB60FB68B3F1FF3F5C
:1014100005D0094B1B781A46FB681344FB6000BFDC
:10142000FFF7E0FF0246BB68D31AFA689A42F7D882
:1014300000BF1037BD4680BD0C00002080B586B0CF
:1014400000AF78600023FB7500233B610023BB6085
:101450000023FB607B68002B01D10123BEE07B6889
:101460009B68002B7B689B6A002B09D17B6800225C
:10147000DA627B68002283F824207868FFF794FC06
:10148000786800F0F7FA0346FB757B689B6A03F007
:101490001003002B40F09980FB7D002B40F09580DD
:1014A0007B689B6A23F4885323F0020343F0020213
:1014B0007B689A627B685A687B68DB691A437B6841
:1014C0001B7B5B001343BA681343BB607B689B685C
:1014D000B3F5807F03D07B689B68012B02D14FF46A
:1014E000807300E000233A6913433B617B681B7DF6
:1014F000012B19D17B681B7B002B09D17B689B6971
:10150000013B5A033B69134343F400633B610BE027
:101510007B689B6A43F020027B689A627B68DB6A87
:1015200043F001027B68DA627B681B685B6823F426
:1015300069417B681B683A690A435A607B681B688B
:101540009A68284B13407A681268B9680B43936015
:101550007B689B68B3F5807F03D07B689B68012B19
:1015600004D17B681B69013B1B05FB607B681B6822
:10157000DB6A23F470017B681B68FA680A43DA624D
:101580007B681B689A68184B1340BA689A420BD163
:101590007B680022DA627B689B6A23F0030343F0D6
:1015A00001027B689A6218E07B689B6A23F0120351
:1015B00043F010027B689A627B68DB6A43F00102A9
:1015C0007B68DA620123FB7507E07B689B6A43F066
:1015D00010027B689A620123FB75FB7D1846183761
:1015E000BD4680BDFDF7E1FFFE0E1FFF80B586B052
:1015F00000AFF860B9607A600023FB75FB681B6878
:10160000644A934204D0FB681B68634A934206D144
:10161000604B5B6803F47023002B40F0B380FB68E1
:1016200093F82430012B01D10223AEE0FB680122A4
:1016300083F82420F86800F0CBF90346FB75FB7DA6
:10164000002B40F09A80FB689B6A23F4706323F0C0
:10165000010343F48072FB689A62FB681B684E4A80
:10166000934205D14B4B5B6803F47023002B15D1DB
:10167000FB689B6A23F48012FB689A62FB681B6814
:101680005B6803F48063002B26D0FB689B6A23F41D
:10169000405343F48052FB689A621DE0FB689B6AEA
:1016A00043F48012FB689A62FB681B68394A9342D4
:1016B00004D0FB681B68384A93420DD1354B5B68F8
:1016C00003F48063002B07D0FB689B6A23F440532C
:1016D00043F48052FB689A62FB689B6A03F4805370
:1016E000002B06D0FB68DB6A23F00602FB68DA6297
:1016F00002E0FB680022DA62FB68002283F8242003
:10170000FB681B6A254A9A62FB681B6A244ADA62F4
:10171000FB681B6A234A1A63FB681B686FF00202AE
:101720001A60FB681B689A68FB681B6842F4807249
:101730009A60FB68186AFB681B684C331946BA68E4
:101740007B6801F0A7F9FB681B689B6803F46023C2
:10175000B3F5602F08D1FB681B689A68FB681B68AB
:1017600042F4A0029A600FE0FB681B689A68FB686D
:101770001B6842F480129A6006E0FB68002283F83E
:10178000242001E00123FB75FB7D18461837BD4678
:1017900080BD00BF0024014000280140E91A000874
:1017A000651B0008811B000880B483B000AF78601F
:1017B00000BF0C37BD4680BC704780B483B000AF1B
:1017C000786000BF0C37BD4680BC704780B483B0E2
:1017D00000AF786000BF0C37BD4680BC704700008A
:1017E00080B485B000AF786039600023FB730023BC
:1017F000BB607B6893F82430012B01D10223DCE02D
:101800007B68012283F824203B685B68062B1CD888
:101810007B681B68596B3B685A6813469B001344EE
:10182000053B1F2202FA03F3DB4319403B681868AB
:101830003B685A6813469B001344053B00FA03F2C9
:101840007B681B680A435A633CE03B685B680C2B6F
:101850001CD87B681B68196B3B685A6813469B0051
:101860001344233B1F2202FA03F3DB4319403B6876
:1018700018683B685A6813469B001344233B00FAE0
:1018800003F27B681B680A431A631BE07B681B68D2
:10189000D96A3B685A6813469B001344413B1F2298
:1018A00002FA03F3DB4319403B6818683B685A6847
:1018B00013469B001344413B00FA03F27B681B680C
:1018C0000A43DA623B681B68092B1CD97B681B68DA
:1018D000D9683B681A6813465B0013441E3B072215
:1018E00002FA03F3DB4319403B6898683B681A68C7
:1018F00013465B0013441E3B00FA03F27B681B682F
:101900000A43DA6019E07B681B6819693B681A684A
:1019100013465B001344072202FA03F3DB4319402A
:101920003B6898683B681A6813465B00134400FAEA
:1019300003F27B681B680A431A613B681B68102B23
:1019400003D03B681B68112B32D17B681B681D4A92
:10195000934225D17B681B689B6803F40003002B2E
:1019600026D17B681B689A687B681B6842F400027A
:101970009A603B681B68102B1AD1134B1B68134AE3
:10198000A2FB03239A0C13469B0013445B00BB602D
:1019900002E0BB68013BBB60BB68002BF9D107E0EC
:1019A0007B689B6A43F020027B689A620123FB7389
:1019B0007B68002283F82420FB7B18461437BD4641
:1019C00080BC7047002401400400002083DE1B43DC
:1019D00080B584B000AF78600023FB600023BB605B
:1019E0007B681B689B6803F00103012B39D07B687F
:1019F0001B689A687B681B6842F001029A601B4B67
:101A00001B681B4AA2FB03239B0CBB6002E0BB6864
:101A1000013BBB60BB68002BF9D1FFF7E3FCF8602A
:101A200018E0FFF7DFFC0246FB68D31A022B11D93E
:101A30007B689B6A43F010027B689A627B68DB6A72
:101A400043F001027B68DA627B68002283F824207D
:101A5000012307E07B681B689B6803F00103012BEF
:101A6000DFD1002318461037BD4680BD040000209A
:101A700083DE1B4380B584B000AF78600023FB6039
:101A80007B681B689B6803F00103012B27D17B68EF
:101A90001B689A687B681B6822F001029A60FFF756
:101AA000A1FCF86014E0FFF79DFC0246FB68D31A26
:101AB000022B0DD97B689B6A43F010027B689A6207
:101AC0007B68DB6A43F001027B68DA62012307E08E
:101AD0007B681B689B6803F00103012BE3D00023A4
:101AE00018461037BD4680BD80B584B000AF786021
:101AF0007B685B6AFB60FB689B6A03F05003002B0A
:101B000027D1FB689B6A43F40072FB689A62FB680A
:101B10001B689B6803F46023B3F5602F15D1FB6845
:101B20001B7B002B11D1FB689B6A23F48072FB683E
:101B30009A62FB689B6A03F48053002B05D1FB6813
:101B40009B6A43F00102FB689A62F868FFF72CFE7B
:101B500004E0FB681B6A1B6B7868984700BF10376E
:101B6000BD4680BD80B584B000AF78607B685B6A9D
:101B7000FB60F868FFF721FE00BF1037BD4680BD4F
:101B800080B584B000AF78607B685B6AFB60FB68FF
:101B90009B6A43F04002FB689A62FB68DB6A43F091
:101BA0000402FB68DA62F868FFF710FE00BF103726
:101BB000BD4680BD80B584B000AF78607B68002BE7
:101BC00001D10123EDE07B6893F82030DBB2002BDC
:101BD00002D17868FFF750F97B681B681A687B6848
:101BE0001B6822F002021A60FFF7FCFBF86012E0AB
:101BF000FFF7F8FB0246FB68D31A0A2B0BD97B6868
:101C00005B6A43F400327B685A627B68052283F882
:101C100020200123C5E07B681B685B6803F002039A
:101C2000002BE5D17B681B681A687B681B6842F053
:101C300001021A60FFF7D6FBF86012E0FFF7D2FB53
:101C40000246FB68D31A0A2B0BD97B685B6A43F404
:101C500000327B685A627B68052283F820200123CA
:101C60009FE07B681B685B6803F00103002BE5D0F5
:101C70007B681B7E012B08D17B681B681A687B6818
:101C80001B6842F080021A6007E07B681B681A68D4
:101C90007B681B6822F080021A607B685B7E012BE8
:101CA00008D17B681B681A687B681B6842F0400299
:101CB0001A6007E07B681B681A687B681B6822F063
:101CC00040021A607B689B7E012B08D17B681B68F1
:101CD0001A687B681B6842F020021A6007E07B6884
:101CE0001B681A687B681B6822F020021A607B68F8
:101CF000DB7E012B08D17B681B681A687B681B6838
:101D000022F010021A6007E07B681B681A687B6883
:101D10001B6842F010021A607B681B7F012B08D100
:101D20007B681B681A687B681B6842F008021A60AF
:101D300007E07B681B681A687B681B6822F0080252
:101D40001A607B685B7F012B08D17B681B681A686F
:101D50007B681B6842F004021A6007E07B681B681E
:101D60001A687B681B6822F004021A607B689A6814
:101D70007B68DB681A437B681B691A437B685B6975
:101D800042EA03017B685B685A1E7B681B680A4352
:101D9000DA617B6800225A627B68012283F8202086
:101DA000002318461037BD4680BD80B487B000AF11
:101DB000786039607B681B687B617B6893F82030B2
:101DC000FB74FB7C012B03D0FB7C022B40F0AA8030
:101DD0007B69D3F8003243F001027B69C3F800222B
:101DE0003B685B6903F01F03012202FA03F3FB6007
:101DF0007B69D3F81C22FB68DB431A407B69C3F87C
:101E00001C223B68DB69002B23D17B69D3F80C22B1
:101E1000FB68DB431A407B69C3F80C223B68DB6834
:101E200019043B685B689BB23A68526919437B6945
:101E3000483243F832103B689B6819043B681B68C2
:101E40009AB23B685B690A4379694833DB000B440B
:101E50005A603B68DB69012B22D17B69D3F80C22E5
:101E6000FB681A437B69C3F80C223B681B681904A2
:101E70003B685B689BB23A68526919437B69483298
:101E800043F832103B689B6819043B68DB689AB2E0
:101E90003B685B690A4379694833DB000B445A604D
:101EA0003B689B69002B09D17B69D3F80422FB684E
:101EB000DB431A407B69C3F8042207E07B69D3F84F
:101EC0000422FB681A437B69C3F804223B681B6940
:101ED000002B09D17B69D3F81422FB68DB431A403D
:101EE0007B69C3F8142207E07B69D3F81422FB68EE
:101EF0001A437B69C3F814223B681B6A012B07D184
:101F00007B69D3F81C22FB681A437B69C3F81C2247
:101F10007B69D3F8003223F001027B69C3F8002209
:101F2000002306E07B685B6A43F480227B685A6288
:101F3000012318461C37BD4680BC704780B584B06D
:101F400000AF78607B6893F82030DBB2012B2ED194
:101F50007B68022283F820207B681B681A687B68F4
:101F60001B6822F001021A60FFF73CFAF86012E0E9
:101F7000FFF738FA0246FB68D31A0A2B0BD97B68A5
:101F80005B6A43F400327B685A627B68052283F8FF
:101F90002020012312E07B681B685B6803F00103CB
:101FA000002BE5D17B6800225A62002306E07B68A3
:101FB0005B6A43F400227B685A620123184610379B
:101FC000BD4680BD80B489B000AFF860B9607A606A
:101FD0003B60FB6893F82030FB77FB681B689B68CD
:101FE000BB61FB7F012B03D0FB7F022B40F0B8804D
:101FF000BB6903F08063002B0AD1BB6903F0006367
:10200000002B05D1BB6903F08053002B00F0A080AA
:10201000BB691B0E03F003037B617B69022B07D9AD
:10202000FB685B6A43F40002FB685A6201239EE08E
:1020300001227B699A403B681A60BB689B68002B51
:102040000DD1BB681B685A05BB68DB68F968096875
:102050001A437B6918331B010B441A600FE0BB68FD
:102060005B68DA00BB689B681A43BB68DB68F96889
:1020700009681A437B6918331B010B441A60FB681B
:102080001968BB681A697B6918331B010B44043358
:102090001A60BB681B7D012B11D1FB681A687B6934
:1020A00018331B01134404331B68FA68116843F4A6
:1020B00080727B6918331B010B4404331A607B6800
:1020C00007331B781A067B6806331B781B041A43F8
:1020D0007B6805331B781B0213437A68043212783D
:1020E0001046FA68116843EA00027B691B010B4441
:1020F00003F5C6731A607B6803331B781A067B6886
:1021000002331B781B041A437B6801331B781B02C4
:1021100013437A6812781046FA68116843EA00029D
:102120007B691B010B4403F5C4731A60FB681A68D2
:102130007B6918331B0113441B68FA68116843F06C
:1021400001027B6918331B010B441A6000230EE067
:10215000FB685B6A43F40012FB685A62012306E0E5
:10216000FB685B6A43F48022FB685A6201231846CD
:102170002437BD4680BC704780B487B000AFF8609C
:10218000B9607A603B60FB6893F82030FB75FB7D9B
:10219000012B03D0FB7D022B40F0F380BB68002BAA
:1021A0000ED1FB681B68DB6803F00303002B16D11C
:1021B000FB685B6A43F40012FB685A620123E7E0A4
:1021C000FB681B681B6903F00303002B07D1FB6846
:1021D0005B6A43F40012FB685A620123D8E0FB6893
:1021E0001A68BB681B331B0113441B6803F004020D
:1021F0007B689A607B689B68002B0CD1FB681A682F
:10220000BB681B331B0113441B685B0DC3F30A023D
:102210007B681A600BE0FB681A68BB681B331B0104
:1022200013441B68DB0823F060427B685A60FB683C
:102230001A68BB681B331B0113441B6803F00202BE
:102240007B68DA60FB681A68BB681B331B011344A8
:1022500004331B6803F00F027B681A61FB681A687D
:10226000BB681B331B01134404331B681B0ADAB21F
:102270007B689A61FB681A68BB681B331B011344B7
:1022800004331B681B0C9AB27B685A61FB681A689E
:10229000BB681B01134403F5DC731B68DAB23B68AF
:1022A0001A70FB681A68BB681B01134403F5DC73E2
:1022B0001B681A0A3B680133D2B21A70FB681A68AD
:1022C000BB681B01134403F5DC731B681A0C3B68E5
:1022D0000233D2B21A70FB681A68BB681B01134440
:1022E00003F5DC731B681A0E3B680333D2B21A7015
:1022F000FB681A68BB681B01134403F5DE731A6898
:102300003B680433D2B21A70FB681A68BB681B01C1
:10231000134403F5DE731B681A0A3B680533D2B217
:102320001A70FB681A68BB681B01134403F5DE735F
:102330001B681A0C3B680633D2B21A70FB681A6825
:10234000BB681B01134403F5DE731B681A0E3B6860
:102350000733D2B21A70BB68002B08D1FB681B6828
:10236000DA68FB681B6842F02002DA6007E0FB686D
:102370001B681A69FB681B6842F020021A6100237F
:1023800006E0FB685B6A43F48022FB685A62012323
:1023900018461C37BD4680BC704780B485B000AF7E
:1023A000786039607B6893F82030FB73FB7B012BEE
:1023B00002D0FB7B022B09D17B681B6859697B68C3
:1023C0001B683A680A435A61002306E07B685B6A2F
:1023D00043F480227B685A62012318461437BD46B5
:1023E00080BC704780B58AB000AF786000237B6204
:1023F0007B681B685B693B627B681B685B68FB6191
:102400007B681B689B68BB617B681B68DB687B61C2
:102410007B681B681B693B617B681B689B69FB6071
:102420003B6A03F00103002B7CD0BB6903F001037E
:10243000002B23D07B681B6801229A60BB6903F0E4
:102440000203002B03D0786800F07DF916E0BB6929
:1024500003F00403002B04D07B6A43F400637B6227
:102460000CE0BB6903F00803002B04D07B6A43F443
:1024700080537B6202E0786800F080F9BB6903F466
:102480008073002B24D07B681B684FF480729A60A5
:10249000BB6903F40073002B03D0786800F05CF98B
:1024A00016E0BB6903F48063002B04D07B6A43F41D
:1024B00000537B620CE0BB6903F40063002B04D083
:1024C0007B6A43F480437B6202E0786800F05FF946
:1024D000BB6903F48033002B24D07B681B684FF466
:1024E00080329A60BB6903F40033002B03D0786814
:1024F00000F03BF916E0BB6903F48023002B04D005
:102500007B6A43F400437B620CE0BB6903F4002365
:10251000002B04D07B6A43F480337B6202E078684E
:1025200000F03EF93B6A03F00803002B0CD07B69F6
:1025300003F01003002B07D07B6A43F400737B6227
:102540007B681B681022DA603B6A03F00403002BEF
:102550000BD07B6903F00803002B06D07B681B6857
:102560000822DA60786800F024F93B6A03F002037D
:10257000002B09D07B681B68DB6803F00303002B8A
:1025800002D07868FEF72AFB3B6A03F04003002B79
:102590000CD03B6903F01003002B07D07B6A43F497
:1025A00080637B627B681B6810221A613B6A03F0C0
:1025B0002003002B0BD03B6903F00803002B06D04F
:1025C0007B681B6808221A61786800F004F93B6A8E
:1025D00003F01003002B09D07B681B681B6903F014
:1025E0000303002B02D0786800F0ECF83B6A03F498
:1025F0000033002B0BD0FB6903F01003002B06D037
:102600007B681B6810225A60786800F0EDF83B6A1E
:1026100003F48033002B0BD0FB6903F00803002B7D
:1026200006D07B681B6808225A60786800F0E5F8DD
:102630003B6A03F40043002B75D0FB6903F00403ED
:10264000002B6CD03B6A03F48073002B08D0FB682E
:1026500003F00103002B03D07B6A43F001037B628C
:102660003B6A03F40073002B08D0FB6803F00203FD
:10267000002B03D07B6A43F002037B623B6A03F4C6
:102680008063002B08D0FB6803F00403002B03D009
:102690007B6A43F004037B623B6A03F40063002B14
:1026A0003DD0FB6803F07003002B38D0FB6803F0CB
:1026B0007003302B17D0302B04D8102B09D0202BCF
:1026C0000CD024E0502B18D0602B1BD0402B0FD007
:1026D0001DE07B6A43F008037B6218E07B6A43F0ED
:1026E00010037B6213E07B6A43F020037B620EE001
:1026F0007B6A43F040037B6209E07B6A43F080031E
:102700007B6204E07B6A43F480737B6200BF7B687A
:102710001B689A697B681B6822F070029A617B686B
:102720001B6804225A607B6A002B08D07B685A6AB7
:102730007B6A1A437B685A62786800F067F800BFCA
:102740002837BD4680BD80B483B000AF786000BF3D
:102750000C37BD4680BC704780B483B000AF786052
:1027600000BF0C37BD4680BC704780B483B000AF5B
:10277000786000BF0C37BD4680BC704780B483B022
:1027800000AF786000BF0C37BD4680BC704780B496
:1027900083B000AF786000BF0C37BD4680BC704787
:1027A00080B483B000AF786000BF0C37BD4680BCFA
:1027B000704780B483B000AF786000BF0C37BD466F
:1027C00080BC704780B483B000AF786000BF0C3726
:1027D000BD4680BC704780B483B000AF786000BF56
:1027E0000C37BD4680BC704780B483B000AF7860C2
:1027F00000BF0C37BD4680BC704780B483B000AFCB
:10280000786000BF0C37BD4680BC704780B483B091
:1028100000AF786000BF0C37BD4680BC7047000039
:1028200080B485B000AF78607B6803F00703FB607D
:102830000C4BDB68BB60BA684FF6FF031340BB600C
:10284000FB681A02BB68134343F0BF6343F40033D1
:10285000BB60044ABB68D36000BF1437BD4680BC70
:10286000704700BF00ED00E080B400AF044BDB68B0
:102870001B0A03F007031846BD4680BC704700BF23
:1028800000ED00E080B483B000AF0346FB7197F920
:102890000730002B0BDBFB7903F01F02064997F989
:1028A00007305B09012000FA02F241F8232000BF43
:1028B0000C37BD4680BC704700E100E080B483B0B7
:1028C00000AF03463960FB7197F90730002B0ADB34
:1028D0003B68DAB20C4997F907301201D2B20B44C7
:1028E00083F800230AE03B68DAB20849FB7903F079
:1028F0000F03043B1201D2B20B441A7600BF0C370F
:10290000BD4680BC704700BF00E100E000ED00E084
:1029100080B489B000AFF860B9607A60FB6803F0FA
:102920000703FB61FB69C3F10703042B28BF0423E2
:10293000BB61FB690433062B02D9FB69033B00E052
:1029400000237B614FF0FF32BB6902FA03F3DA43E5
:10295000BB681A407B699A404FF0FF317B6901FAEE
:1029600003F3D9437B680B40134318462437BD4615
:1029700080BC704780B582B000AF78607868FFF7A0
:102980004FFF00BF0837BD4680BD80B586B000AFA1
:102990000346B9607A60FB7300237B61FFF764FF35
:1029A00078617A68B9687869FFF7B2FF024697F9EB
:1029B0000F3011461846FFF781FF00BF1837BD469C
:1029C00080BD80B582B000AF0346FB7197F9073038
:1029D0001846FFF757FF00BF0837BD4680BD00000F
:1029E00080B485B000AF78600023FB607B68002B6B
:1029F00001D1012343E07B681B681A46224B134434
:102A0000224AA2FB03231B099A007B681A647B6895
:102A10001F4ADA637B68022283F821207B681B68E7
:102A20001B68FB60FB6823F47F5323F03003FB60DB
:102A30007B685A687B689B681A437B68DB681A432B
:102A40007B681B691A437B685B691A437B689B69D7
:102A50001A437B68DB691343FA681343FB607B68A6
:102A60001B68FA681A607B6800229A637B680122FF
:102A700083F821207B68002283F820200023184659
:102A80001437BD4680BC7047F8FFFDBFCDCCCCCC21
:102A90000000024080B586B000AFF860B9607A608F
:102AA0003B600023FB75FB6893F82030012B01D1BC
:102AB00002234AE0FB68012283F82020FB6893F898
:102AC0002130012B3AD1FB68022283F82120FB68D8
:102AD00000229A63FB681B681A68FB681B6822F077
:102AE00001021A603B687A68B968F86800F0F3F987
:102AF000FB68DB6A002B08D0FB681B681A68FB6860
:102B00001B6842F00E021A600FE0FB681B681A682F
:102B1000FB681B6822F004021A60FB681B681A68D5
:102B2000FB681B6842F00A021A60FB681B681A689F
:102B3000FB681B6842F001021A6005E0FB68002296
:102B400083F820200223FB75FB7D18461837BD460D
:102B500080BD80B485B000AF78600023FB737B68D4
:102B600093F82130022B08D07B6804229A637B689B
:102B7000002283F82020012320E07B681B681A686C
:102B80007B681B6822F00E021A607B681B681A685B
:102B90007B681B6822F001021A607B681A6C7B68F4
:102BA000DB6B012101FA02F25A607B68012283F893
:102BB00021207B68002283F82020FB7B18461437F5
:102BC000BD4680BC7047000080B584B000AF78601F
:102BD0000023FB737B6893F82130022B05D07B68C0
:102BE00004229A630123FB7351E07B681B681A6817
:102BF0007B681B6822F00E021A607B681B681A68EB
:102C00007B681B6822F001021A607B681B68224AFD
:102C1000934229D07B681B68204A934222D07B686C
:102C20001B681F4A93421AD07B681B681D4A934257
:102C300012D07B681B681C4A93420AD07B681B68D1
:102C40001A4A934202D14FF480130EE04FF0807382
:102C50000BE04FF4803308E04FF4805305E04FF46D
:102C6000807302E0102300E00123114A53607B6867
:102C7000012283F821207B68002283F820207B68D2
:102C80005B6B002B03D07B685B6B78689847FB7BA2
:102C900018461037BD4680BD080002401C000240A7
:102CA0003000024044000240580002406C000240E4
:102CB0000000024080B584B000AF78607B68DB6BB9
:102CC0001B68FB607B681B681B68BB607B681B6CB8
:102CD00004229A40FB681340002B4FD0BB6803F0DE
:102CE0000403002B4AD07B681B681B6803F0200399
:102CF000002B07D17B681B681A687B681B6822F071
:102D000004021A607B681B68664A934229D07B687C
:102D10001B68654A934222D07B681B68634A9342D2
:102D20001AD07B681B68624A934212D07B681B688A
:102D3000604A93420AD07B681B685F4A934202D183
:102D40004FF480030EE04FF080630BE04FF48023DC
:102D500008E04FF4804305E04FF4806302E0402335
:102D600000E00423554A53607B68DB6A002B00F0C7
:102D700094807B68DB6A786898478EE07B681B6C80
:102D800002229A40FB681340002B56D0BB6803F028
:102D90000203002B51D07B681B681B6803F02003E3
:102DA000002B0BD17B681B681A687B681B6822F0BC
:102DB0000A021A607B68012283F821207B681B6865
:102DC000384A934229D07B681B68374A934222D005
:102DD0007B681B68354A93421AD07B681B68344A6B
:102DE000934212D07B681B68324A93420AD07B68B8
:102DF0001B68314A934202D14FF400130EE04FF0AA
:102E000000730BE04FF4003308E04FF4005305E08B
:102E10004FF4007302E0202300E00223274A5360AE
:102E20007B68002283F820207B689B6A002B34D0CB
:102E30007B689B6A786898472FE07B681B6C082248
:102E40009A40FB681340002B28D0BB6803F00803AE
:102E5000002B23D07B681B681A687B681B6822F0F4
:102E60000E021A607B681A6C7B68DB6B012101FA29
:102E700002F25A607B6801229A637B68012283F820
:102E800021207B68002283F820207B681B6B002BAD
:102E900004D07B681B6B7868984700BF00BF103771
:102EA000BD4680BD080002401C00024030000240C8
:102EB00044000240580002406C0002400000024002
:102EC00080B483B000AF78607B689B6B18460C378A
:102ED000BD4680BC704780B485B000AFF860B96073
:102EE0007A603B60FB681A6CFB68DB6B012101FABE
:102EF00002F25A60FB681B683A685A60FB685B68BC
:102F0000102B08D1FB681B687A689A60FB681B6805
:102F1000BA68DA6007E0FB681B68BA689A60FB6809
:102F20001B687A68DA6000BF1437BD4680BC704702
:102F300080B48BB000AF7860396000237B620023DF
:102F40003B6227E101227B6A02FA03F3FB613B68E3
:102F50001B68FA691340BB61BA69FB699A4240F089
:102F600016813B685B68122B34D0122B0DD8022BD4
:102F70002BD0022B04D8002B31D0012B1CD048E0E1
:102F8000032B43D0112B1BD043E0894A934226D018
:102F9000874A934206D8874A934220D0864A934272
:102FA0001DD036E0854A934219D0854A934216D007
:102FB000844A934213D02CE03B68DB683B6228E0F4
:102FC0003B68DB6804333B6223E03B68DB68083323
:102FD0003B621EE03B68DB680C333B6219E03B68F8
:102FE0009B68002B02D104233B6212E03B689B6884
:102FF000012B05D108233B627B68FA691A6108E05E
:1030000008233B627B68FA695A6102E000233B6255
:1030100000BFBB69FF2B01D87B6801E07B680433EC
:103020007B61BB69FF2B02D87B6A9B0002E07B6A55
:10303000083B9B003B617B691A680F213B6901FAE1
:1030400003F3DB431A40396A3B6901FA03F31A437D
:103050007B691A603B685B6803F08053002B00F0CB
:103060009680594B9B69584A43F001039361564B34
:103070009B6903F00103BB60BB68544A7B6A9B08F1
:10308000023352F82330FB607B6A03F003039B009A
:103090000F2202FA03F3DB43FA681340FB607B68FC
:1030A0004B4A934213D07B684A4A93420DD07B68C7
:1030B000494A934207D07B68484A934201D103238F
:1030C00006E0042304E0022302E0012300E00023E1
:1030D0007A6A02F0030292009340FA681343FB609D
:1030E0003A497B6A9B080233FA6841F823203B681F
:1030F0005B6803F48033002B06D0394B1A683849DB
:10310000BB6913430B6006E0354B1A68BB69DB43B0
:10311000334913400B603B685B6803F40033002BBA
:1031200006D02F4B5A682E49BB6913434B6006E00B
:103130002B4B5A68BB69DB43294913404B603B6802
:103140005B6803F48013002B06D0254B9A68244952
:10315000BB6913438B6006E0214B9A68BB69DB4374
:103160001F4913408B603B685B6803F40013002B1E
:1031700006D01B4BDA681A49BB691343CB6006E0E3
:10318000174BDA68BB69DB4315491340CB607B6A98
:1031900001337B623B681A687B6A22FA03F3002BD7
:1031A0007FF4D0AE00BF2C37BD4680BC704700BF57
:1031B000000021100000111000001210000031105A
:1031C00000003210000022100010024000000140F8
:1031D00000080140000C01400010014000140140B3
:1031E0000004014080B485B000AF78600B467B805E
:1031F0007B689A687B881340002B02D00123FB7305
:1032000001E00023FB73FB7B18461437BD4680BCEE
:10321000704780B483B000AF78600B467B807B68DA
:10322000DA687B881340002B03D07A887B685A6168
:1032300002E07A887B681A6100BF0C37BD4680BC0B
:103240007047000080B584B000AF78607B68002BC9
:1032500001D101230FE17B6893F83D30DBB2002BF5
:1032600006D17B68002283F83C207868FDF784FE55
:103270007B68242283F83D207B681B681A687B6882
:103280001B6822F001021A6000F0D4FFF8607B682E
:103290005B687B4A934207D8FB687A4A934294BFA3
:1032A00001230023DBB206E0FB68774A934294BF18
:1032B00001230023DBB2002B01D00123DBE0FB68FC
:1032C000724AA2FB03239B0CBB607B681B685B6894
:1032D00023F03F017B681B68BA680A435A607B6829
:1032E0001B681B6A23F03F017B685B68644A93425A
:1032F00002D8BB68013309E0BB684FF4967202FB49
:1033000003F3634AA2FB03239B0901337A68126823
:103310000B4313627B681B68DB6923F44F4222F086
:10332000FF027B685B6856498B420DD8FB68591ECB
:103330007B685B685B00B1FBF3F30133C3F30B0302
:10334000042B38BF04234FE07B689B68002B11D10E
:10335000FB68581E7B6859680B465B000B44B0FB4A
:10336000F3F30133C3F30B03002B0CBF0123002342
:10337000DBB212E0FB68581E7B6859680B469B0065
:103380000B4499000B44B0FBF3F30133C3F30B037D
:10339000002B0CBF01230023DBB2002B01D0012343
:1033A00022E07B689B68002B0ED1FB68581E7B686F
:1033B00059680B465B000B44B0FBF3F30133C3F3D6
:1033C0000B0343F400430FE0FB68581E7B68596809
:1033D0000B469B000B4499000B44B0FBF3F3013305
:1033E000C3F30B0343F44043796809681343CB618B
:1033F0007B681B681B6823F0C0017B68DA697B6807
:103400001B6A1A437B681B680A431A607B681B6847
:103410009B6823F4034323F0FF037A6811697A68F9
:10342000D26811437A6812680B4393607B681B680B
:10343000DB6823F0FF017B685A697B689B691A434C
:103440007B681B680A43DA607B681B681A687B68C4
:103450001B6842F001021A607B6800221A647B68D4
:10346000202283F83D207B6800221A637B680022BB
:1034700083F83E20002318461037BD4680BD00BFAC
:10348000A08601007F841E00FF083D0083DE1B43F1
:10349000D34D621080B588B002AFF8607A601A46EA
:1034A0000B467B8113463B81FDF79CFF7861FB68EF
:1034B00093F83D30DBB2202B40F0E0807B69009335
:1034C000192301227049F86800F058F90346002BCF
:1034D00001D00223D3E0FB6893F83C30012B01D1EB
:1034E0000223CCE0FB68012283F83C20FB681B68C8
:1034F0001B6803F00103012B07D0FB681B681A68E7
:10350000FB681B6842F001021A60FB681B681A68BE
:10351000FB681B6822F400621A60FB68212283F8B2
:103520003D20FB68102283F83E20FB6800221A64CD
:10353000FB687A685A62FB683A895A85FB685B8D3A
:103540009AB2FB681A85FB68504ADA6279897B690E
:103550003A6AF86800F09CF80346002B01D001237A
:103560008DE000233B61FB681B685B693B61FB6886
:103570001B689B693B613B6966E07A69396AF86858
:1035800000F0D2F90346002B0DD0FB681B6C042B16
:1035900007D1FB681B681A68FB681B6842F400725D
:1035A0001A6001236BE0FB685B6A1A78FB681B6892
:1035B0001A61FB685B6A5A1CFB685A62FB685B8D88
:1035C0009BB2013B9AB2FB685A85FB681B8D013B9D
:1035D0009AB2FB681A85FB681B685B6903F00403F9
:1035E000042B1BD1FB681B8D002B17D0FB685B6A7B
:1035F0001A78FB681B681A61FB685B6A5A1CFB68D7
:103600005A62FB685B8D9BB2013B9AB2FB685A859C
:10361000FB681B8D013B9AB2FB681A857A69396A8F
:10362000F86800F0C2F90346002B0DD0FB681B6C54
:10363000042B07D1FB681B681A68FB681B6842F4FF
:1036400000721A6001231AE0FB681B8D002B94D1D5
:10365000FB681B681A68FB681B6842F400721A60FA
:10366000FB68202283F83D20FB68002283F83E207F
:10367000FB68002283F83C20002300E00223184668
:103680001837BD4680BD00BF020010000000FFFFDC
:1036900080B588B002AFF8607A603B600B467B81F2
:1036A000FB68DB6A7B617B69082B06D07B69012B99
:1036B00003D07B6913F5803F08D1FB681B681A684B
:1036C000FB681B6842F480721A600BE0FB681B6B9E
:1036D000122B07D1FB681B681A68FB681B6842F451
:1036E00080721A603B6800937B6800224FF00111E2
:1036F000F86800F043F80346002B01D0012335E0C1
:10370000FB681B69B3F5804F08D17B89DBB21A4691
:10371000FB681B6802F0FE021A611BE07B89DB116B
:10372000DBB203F00603DBB263F00F03DAB2FB682F
:103730001B681A613B687A680E49F86800F075F8F2
:103740000346002B01D0012310E07B89DAB2FB682D
:103750001B681A613B687A680749F86800F065F8E9
:103760000346002B01D0012300E000231846183740
:10377000BD4680BD080001000200010080B584B094
:1037800000AFF860B9603B601346FB7125E03B6811
:10379000B3F1FF3F21D0FDF725FE0246BB69D31AE6
:1037A0003A689A4202D33B68002B16D1FB6800228C
:1037B0001A63FB68202283F83D20FB68002283F80F
:1037C0003E20FB681B6C43F02002FB681A64FB6818
:1037D000002283F83C20012323E0BB681B0CDBB2F2
:1037E000012B0DD1FB681B685B69DA43BB68134092
:1037F0009BB2002B0CBF01230023DBB21A460CE066
:10380000FB681B689B69DA43BB6813409BB2002BC3
:103810000CBF01230023DBB21A46FB799A42B6D0D3
:10382000002318461037BD4680BD80B584B000AF78
:10383000F860B9607A603B6051E0FB681B685B69C7
:1038400003F48063B3F5806F23D1FB681B681A68AB
:10385000FB681B6842F400721A60FB681B686FF417
:1038600080625A61FB6800221A63FB68202283F899
:103870003D20FB68002283F83E20FB681B6C43F070
:103880000402FB681A64FB68002283F83C200123D1
:1038900046E07B68B3F1FF3F21D0FDF7A3FD024670
:1038A0003B68D31A7A689A4202D37B68002B16D100
:1038B000FB6800221A63FB68202283F83D20FB6826
:1038C000002283F83E20FB681B6C43F02002FB685B
:1038D0001A64FB68002283F83C20012320E0BB68C7
:1038E0001B0CDBB2012B0CD1FB681B685B69DA4354
:1038F000BB6813409BB2002B14BF01230023DBB233
:103900000BE0FB681B689B69DA43BB6813409BB202
:10391000002B14BF01230023DBB2002B8DD1002329
:1039200018461037BD4680BD80B584B000AFF86042
:10393000B9607A602DE0F86800F078F80346002B53
:1039400001D001232DE0BB68B3F1FF3F21D0FDF78B
:1039500049FD02467B68D31ABA689A4202D3BB6813
:10396000002B16D1FB6800221A63FB68202283F823
:103970003D20FB68002283F83E20FB681B6C43F06F
:103980002002FB681A64FB68002283F83C200123B4
:1039900007E0FB681B685B6903F08003802BCAD1DA
:1039A000002318461037BD4680BD80B584B000AFF7
:1039B000F860B9607A602DE0F86800F037F80346E7
:1039C000002B01D001232DE0BB68B3F1FF3F21D0D4
:1039D000FDF708FD02467B68D31ABA689A4202D303
:1039E000BB68002B16D1FB6800221A63FB682022FB
:1039F00083F83D20FB68002283F83E20FB681B6CA7
:103A000043F02002FB681A64FB68002283F83C2024
:103A1000012307E0FB681B685B6903F00403042BC8
:103A2000CAD1002318461037BD4680BD80B483B08C
:103A300000AF78607B681B685B6903F48063B3F553
:103A4000806F1BD17B681B686FF480625A617B6852
:103A500000221A637B68202283F83D207B680022C5
:103A600083F83E207B681B6C43F004027B681A6479
:103A70007B68002283F83C20012300E000231846E5
:103A80000C37BD4680BC704780B586B000AF78600B
:103A90007B68002B01D101236CE27B681B6803F07B
:103AA0000103002B00F08780924B5B6803F00C034E
:103AB000042B0CD08F4B5B6803F00C03082B12D146
:103AC0008C4B5B6803F48033B3F5803F0BD1894B9B
:103AD0001B6803F40033002B6CD07B685B68002B01
:103AE00068D1012346E27B685B68B3F5803F06D16D
:103AF000804B1B687F4A43F4803313602EE07B6861
:103B00005B68002B0CD17B4B1B687A4A23F4803313
:103B10001360784B1B68774A23F4802313601DE001
:103B20007B685B68B3F5A02F0CD1724B1B68714AA0
:103B300043F4802313606F4B1B686E4A43F4803359
:103B400013600BE06B4B1B686A4A23F480331360ED
:103B5000684B1B68674A23F4802313607B685B68AB
:103B6000002B13D0FDF73EFC386108E0FDF73AFC6E
:103B700002463B69D31A642B01D90323FAE15D4B5A
:103B80001B6803F40033002BF0D014E0FDF72AFC8F
:103B9000386108E0FDF726FC02463B69D31A642B26
:103BA00001D90323E6E1534B1B6803F40033002BD8
:103BB000F0D100E000BF7B681B6803F00203002B1C
:103BC00063D04C4B5B6803F00C03002B0BD0494BCC
:103BD0005B6803F00C03082B1CD1464B5B6803F4B5
:103BE0008033002B16D1434B1B6803F00203002BDC
:103BF00005D07B681B69012B01D00123BAE13D4B45
:103C00001B6823F0F8027B685B69DB0039491343CA
:103C10000B603AE07B681B69002B20D0364B0122F9
:103C20001A60FDF7DFFB386108E0FDF7DBFB0246B9
:103C30003B69D31A022B01D903239BE12D4B1B684F
:103C400003F00203002BF0D02A4B1B6823F0F8028C
:103C50007B685B69DB00274913430B6015E0264B4B
:103C600000221A60FDF7BEFB386108E0FDF7BAFBE1
:103C700002463B69D31A022B01D903237AE11D4B7B
:103C80001B6803F00203002BF0D17B681B6803F074
:103C90000803002B3AD07B689B69002B19D0174B87
:103CA00001221A60FDF79EFB386108E0FDF79AFBE0
:103CB00002463B69D31A022B01D903235AE10D4B6B
:103CC0005B6A03F00203002BF0D0012000F00AFB36
:103CD0001CE00A4B00221A60FDF784FB38610FE0FC
:103CE000FDF780FB02463B69D31A022B08D9032358
:103CF00040E100BF00100240000042428004424206
:103D00009E4B5B6A03F00203002BE9D17B681B68C2
:103D100003F00403002B00F0A6800023FB75974BF3
:103D2000DB6903F08053002B0DD1944BDB69934A80
:103D300043F08053D361914BDB6903F08053BB6048
:103D4000BB680123FB758E4B1B6803F48073002B4B
:103D500018D18B4B1B688A4A43F480731360FDF7BC
:103D600041FB386108E0FDF73DFB02463B69D31A91
:103D7000642B01D90323FDE0814B1B6803F480739E
:103D8000002BF0D07B68DB68012B06D17B4B1B6AD4
:103D90007A4A43F0010313622DE07B68DB68002B55
:103DA0000CD1764B1B6A754A23F001031362734BE7
:103DB0001B6A724A23F0040313621CE07B68DB6811
:103DC000052B0CD16D4B1B6A6C4A43F00403136244
:103DD0006A4B1B6A694A43F0010313620BE0674BAD
:103DE0001B6A664A23F001031362644B1B6A634A31
:103DF00023F0040313627B68DB68002B15D0FDF70A
:103E0000F1FA38610AE0FDF7EDFA02463B69D31A90
:103E100041F28832934201D90323ABE0574B1B6A2E
:103E200003F00203002BEED014E0FDF7DBFA38615B
:103E30000AE0FDF7D7FA02463B69D31A41F288320D
:103E4000934201D9032395E04C4B1B6A03F0020314
:103E5000002BEED1FB7D012B05D1484BDB69474A96
:103E600023F08053D3617B68DB69002B00F08180F5
:103E7000424B5B6803F00C03082B61D07B68DB6965
:103E8000022B46D13F4B00221A60FDF7ABFA386196
:103E900008E0FDF7A7FA02463B69D31A022B01D9C5
:103EA000032367E0354B1B6803F00073002BF0D150
:103EB0007B681B6AB3F5803F08D1304B5B6823F405
:103EC00000327B689B682D4913434B602B4B5B682A
:103ED00023F474127B68196A7B685B6A0B43274979
:103EE00013434B60274B01221A60FDF77BFA3861C0
:103EF00008E0FDF777FA02463B69D31A022B01D995
:103F0000032337E01D4B1B6803F00073002BF0D038
:103F10002FE01C4B00221A60FDF764FA386108E0BC
:103F2000FDF760FA02463B69D31A022B01D903233D
:103F300020E0124B1B6803F00073002BF0D118E057
:103F40007B68DB69012B01D1012313E00B4B5B681C
:103F5000FB60FB6803F480327B681B6A9A4206D1DF
:103F6000FB6803F470127B685B6A9A4201D00123FC
:103F700000E0002318461837BD4680BD00100240FF
:103F8000007000406000424280B584B000AF7860AD
:103F900039607B68002B01D10123D0E06A4B1B689C
:103FA00003F007033A689A4210D9674B1B6823F065
:103FB000070265493B6813430B60634B1B6803F0C2
:103FC00007033A689A4201D00123B8E07B681B6876
:103FD00003F00203002B20D07B681B6803F004036E
:103FE000002B05D0594B5B68584A43F4E06353609B
:103FF0007B681B6803F00803002B05D0534B5B68FC
:10400000524A43F460535360504B5B6823F0F00214
:104010007B689B684D4913434B607B681B6803F0CA
:104020000103002B40D07B685B68012B07D1474B15
:104030001B6803F40033002B15D101237FE07B685C
:104040005B68022B07D1414B1B6803F00073002B08
:1040500009D1012373E03D4B1B6803F00203002BE1
:1040600001D101236BE0394B5B6823F003027B68CD
:104070005B68364913434B60FDF7B4F9F8600AE01A
:10408000FDF7B0F90246FB68D31A41F28832934239
:1040900001D9032353E02D4B5B6803F00C027B68CE
:1040A0005B689B009A42EBD1274B1B6803F0070328
:1040B0003A689A4210D2244B1B6823F00702224927
:1040C0003B6813430B60204B1B6803F007033A68FF
:1040D0009A4201D0012332E07B681B6803F004039D
:1040E000002B08D0194B5B6823F4E0627B68DB6827
:1040F000164913434B607B681B6803F00803002BD1
:1041000009D0124B5B6823F460527B681B69DB00AB
:104110000E4913434B6000F021F801460B4B5B68DE
:104120001B0903F00F030A4AD35C21FA03F3094A7F
:104130001360094B1B681846FDF712F80023184658
:104140001037BD4680BD00BF002002400010024075
:104150009C870008040000200800002090B48AB06A
:1041600000AF2A4B3C1D0FCB84E80F00284B1B8867
:104170003B800023FB610023BB6100237B620023A3
:104180007B6100233B62234B5B68FB61FB6903F0AF
:104190000C03042B02D0082B03D02DE01E4B3B62F6
:1041A0002DE0FB699B0C03F00F0307F12802134479
:1041B00013F8243C7B61FB6903F48033002B13D09C
:1041C000144B5B685B0C03F0010307F128021344F6
:1041D00013F8283CBB617B690F4A02FB03F2BB6901
:1041E000B2FBF3F37B6204E07B690C4A02FB03F34E
:1041F0007B627B6A3B6202E0074B3B6200BF3B6A2B
:1042000018462837BD4690BC704700BFC8860008D6
:10421000D88600080010024000127A0000093D0014
:1042200080B400AF024B1B681846BD4680BC704787
:104230000400002080B500AFFFF7F2FF0146054BF8
:104240005B681B0A03F00703034AD35C21FA03F3FC
:10425000184680BD00100240AC87000880B500AF52
:10426000FFF7DEFF0146054B5B68DB0A03F007033F
:10427000034AD35C21FA03F3184680BD00100240C4
:10428000AC87000880B483B000AF786039607B6889
:104290000F221A60114B5B6803F003027B685A60BF
:1042A0000E4B5B6803F0F0027B689A600B4B5B6817
:1042B00003F4E0627B68DA60084B5B68DB0803F4B8
:1042C000E0627B681A61064B1B6803F007023B68DB
:1042D0001A6000BF0C37BD4680BC7047001002401A
:1042E0000020024080B485B000AF78600A4B1B68A4
:1042F0000A4AA2FB03235B0A7A6802FB03F3FB6012
:1043000000BFFB685A1EFA60002BF9D100BF1437BA
:10431000BD4680BC704700BF04000020D34D621032
:1043200080B586B000AF786000233B610023FB605E
:104330007B681B6803F00103002B7DD00023FB7515
:104340004F4BDB6903F08053002B0DD14C4BDB69E5
:104350004B4A43F08053D361494BDB6903F08053F0
:10436000BB60BB680123FB75464B1B6803F480737D
:10437000002B18D1434B1B68424A43F480731360EF
:10438000FDF730F8386108E0FDF72CF802463B698C
:10439000D31A642B01D903236DE03A4B1B6803F455
:1043A0008073002BF0D0364B1B6A03F44073FB6024
:1043B000FB68002B2ED07B685B6803F44073FA68BF
:1043C0009A4227D02E4B1B6A23F44073FB602E4B7E
:1043D00001221A602C4B00221A60294AFB681362E2
:1043E000FB6803F00103002B14D0FCF7FBFF3861DE
:1043F0000AE0FCF7F7FF02463B69D31A41F2883224
:10440000934201D9032336E01D4B1B6A03F00203DC
:10441000002BEED01A4B1B6A23F440727B685B685A
:10442000174913430B62FB7D012B05D1144BDB694C
:10443000134A23F08053D3617B681B6803F00203A7
:10444000002B08D00E4B5B6823F440427B689B68CE
:104450000B4913434B607B681B6803F01003002B70
:1044600008D0074B5B6823F480027B68DB68044953
:1044700013434B60002318461837BD4680BD00BF6C
:1044800000100240007000404004424280B582B0FB
:1044900000AF78607B68002B01D101231DE07B68B1
:1044A00093F83D30DBB2002B06D17B68002283F805
:1044B0003C20786800F015F87B68022283F83D20E4
:1044C0007B681A687B6804331946104600F062F96D
:1044D0007B68012283F83D20002318460837BD463B
:1044E00080BD80B483B000AF786000BF0C37BD469C
:1044F00080BC704780B485B000AF78607B681B6873
:10450000DA687B681B6842F00102DA607B681B682E
:104510009B6803F00703FB60FB68062B07D07B68F2
:104520001B681A687B681B6842F001021A6000234E
:1045300018461437BD4680BC704780B582B000AFC6
:1045400078607B681B681B6903F00203022B22D191
:104550007B681B68DB6803F00203022B1BD17B68BE
:104560001B686FF002021A617B6801221A777B6870
:104570001B689B6903F00303002B03D0786800F0ED
:10458000EDF805E0786800F0E0F8786800F0EFF802
:104590007B6800221A777B681B681B6903F00403A1
:1045A000042B22D17B681B68DB6803F00403042B17
:1045B0001BD17B681B686FF004021A617B680222C2
:1045C0001A777B681B689B6903F44073002B03D048
:1045D000786800F0C3F805E0786800F0B6F878680D
:1045E00000F0C5F87B6800221A777B681B681B699E
:1045F00003F00803082B22D17B681B68DB6803F0FB
:104600000803082B1BD17B681B686FF008021A6136
:104610007B6804221A777B681B68DB6903F003035D
:10462000002B03D0786800F099F805E0786800F076
:104630008CF8786800F09BF87B6800221A777B681A
:104640001B681B6903F01003102B22D17B681B68C9
:10465000DB6803F01003102B1BD17B681B686FF025
:1046600010021A617B6808221A777B681B68DB6975
:1046700003F44073002B03D0786800F06FF805E076
:10468000786800F062F8786800F071F87B680022C2
:104690001A777B681B681B6903F00103012B0ED19D
:1046A0007B681B68DB6803F00103012B07D17B6883
:1046B0001B686FF001021A617868FCF723FB7B68C6
:1046C0001B681B6903F08003802B0ED17B681B687D
:1046D000DB6803F08003802B07D17B681B686FF0D9
:1046E00080021A61786800F0C0F87B681B681B695B
:1046F00003F04003402B0ED17B681B68DB6803F09E
:104700004003402B07D17B681B686FF040021A61A1
:10471000786800F035F87B681B681B6903F020039C
:10472000202B0ED17B681B68DB6803F02003202B55
:1047300007D17B681B686FF020021A61786800F06F
:104740008BF800BF0837BD4680BD80B483B000AF92
:10475000786000BF0C37BD4680BC704780B483B022
:1047600000AF786000BF0C37BD4680BC704780B496
:1047700083B000AF786000BF0C37BD4680BC704787
:1047800080B483B000AF786000BF0C37BD4680BCFA
:104790007047000080B485B000AF786039607B68F6
:1047A0001B68FB607B68294A93420BD07B68B3F19E
:1047B000804F07D07B68264A934203D07B68254A06
:1047C000934208D1FB6823F07003FB603B685B6891
:1047D000FA681343FB607B681C4A93420BD07B68EA
:1047E000B3F1804F07D07B68194A934203D07B68AE
:1047F000184A934208D1FB6823F44073FB603B687E
:10480000DB68FA681343FB60FB6823F080023B68B7
:104810005B691343FB607B68FA681A603B689A68BF
:104820007B68DA623B681A687B689A627B68074A31
:10483000934203D13B681A697B681A637B68012243
:104840005A6100BF1437BD4680BC7047002C014040
:10485000000400400008004080B483B000AF7860DE
:1048600000BF0C37BD4680BC704780B483B000AF3A
:10487000786000BF0C37BD4680BC704780B582B001
:1048800000AF78607B68002B01D101233FE07B689B
:1048900093F83930DBB2002B06D17B68002283F815
:1048A00038207868FCF7A6FB7B68242283F839203F
:1048B0007B681B68DA687B681B6822F40052DA6048
:1048C000786800F00FFC7B681B681A697B681B68BE
:1048D00022F490421A617B681B685A697B681B68E6
:1048E00022F02A025A617B681B68DA687B681B68C1
:1048F00042F40052DA607B680022DA637B6820228F
:1049000083F839207B68202283F83A200023184658
:104910000837BD4680BD80B588B002AFF860B96089
:104920003B601346FB8000237B61FB6893F83930C2
:10493000DBB2202B40F08380BB68002B02D0FB88C9
:10494000002B01D101237BE0FB6893F83830012B69
:1049500001D1022374E0FB68012283F83820FB6850
:104960000022DA63FB68212283F83920FCF73AFD44
:104970007861FB68FA889A84FB68FA88DA8442E0F6
:10498000FB68DB8C9BB2013B9AB2FB68DA84FB6864
:104990009B68B3F5805F22D13B6800937B6900225E
:1049A0008021F86800F034FA0346002B01D003237D
:1049B00046E0BB683B613B691B881A46FB681B6885
:1049C000C2F308025A60FB681B69002B03D1BB6865
:1049D0000233BB6017E0BB680133BB6013E03B6888
:1049E00000937B6900228021F86800F011FA0346E9
:1049F000002B01D0032323E0BB685A1CBA601A784D
:104A0000FB681B685A60FB68DB8C9BB2002BB7D13C
:104A10003B6800937B6900224021F86800F0F8F9B8
:104A20000346002B01D003230AE0FB68202283F811
:104A30003920FB68002283F83820002300E002239D
:104A400018461837BD4680BD80B485B000AFF86009
:104A5000B9601346FB80FB6893F83A30DBB2202B39
:104A600040D1BB68002B02D0FB88002B01D1012371
:104A700039E0FB6893F83830012B01D1022332E092
:104A8000FB68012283F83820FB68BA689A62FB68E9
:104A9000FA889A85FB68FA88DA85FB680022DA636F
:104AA000FB68222283F83A20FB68002283F8382032
:104AB000FB681B68DA68FB681B6842F48072DA6086
:104AC000FB681B685A69FB681B6842F001025A6167
:104AD000FB681B68DA68FB681B6842F02002DA603A
:104AE000002300E0022318461437BD4680BC7047FF
:104AF00080B582B000AF78607B681B68DA687B683D
:104B00001B6822F4F072DA607B681B685A697B6864
:104B10001B6822F001025A617B681B685B6903F025
:104B20008003002B24D07B681B685A697B681B6854
:104B300022F080025A617B681B6B002B18D07B68C7
:104B40001B6B00225A637B681B6B1846FEF701F84B
:104B50000346002B0CD07B681B6B1846FEF7B0F9A0
:104B60000346202B04D17B681022DA6303233DE047
:104B70007B681B685B6903F04003002B24D07B68D3
:104B80001B685A697B681B6822F040025A617B6887
:104B90005B6B002B18D07B685B6B00225A637B68D1
:104BA0005B6B1846FDF7D5FF0346002B0CD07B68E6
:104BB0005B6B1846FEF784F90346202B04D17B6813
:104BC0001022DA63032311E07B680022DA847B6819
:104BD0000022DA857B680022DA637B68202283F872
:104BE0003A207B68202283F83920002318460837B2
:104BF000BD4680BD80B588B000AF78607B681B681B
:104C00001B68FB617B681B68DB68BB617B681B689A
:104C10005B697B6100233B610023FB60FB6903F060
:104C20000F033B613B69002B0DD1FB6903F02003AF
:104C3000002B08D0BB6903F02003002B03D0786859
:104C400000F0CEF9CCE03B69002B00F0AB807B6933
:104C500003F00103002B05D1BB6903F49073002B13
:104C600000F0A080FB6903F00103002B0AD0BB69B0
:104C700003F48073002B05D07B68DB6B43F00102EB
:104C80007B68DA63FB6903F00403002B0AD07B69BD
:104C900003F00103002B05D07B68DB6B43F00202BD
:104CA0007B68DA63FB6903F00203002B0AD07B699F
:104CB00003F00103002B05D07B68DB6B43F004029B
:104CC0007B68DA63FB6903F00803002B0AD07B6979
:104CD00003F00103002B05D07B68DB6B43F0080277
:104CE0007B68DA637B68DB6B002B78D0FB6903F0B1
:104CF0002003002B07D0BB6903F02003002B02D058
:104D0000786800F06DF97B681B685B6903F040030D
:104D1000002B14BF01230023DBB2FB607B68DB6B3D
:104D200003F00803002B02D1FB68002B31D0786818
:104D300000F0B8F87B681B685B6903F04003002B48
:104D400023D07B681B685A697B681B6822F040028D
:104D50005A617B685B6B002B13D07B685B6B224ACC
:104D60005A637B685B6B1846FDF72EFF0346002BEA
:104D700016D07B685B6B5B6B7A68526B104698470A
:104D80000EE0786800F03BF80AE0786800F037F849
:104D900006E0786800F033F87B680022DA631EE0F2
:104DA00000BF1CE0FB6903F08003002B08D0BB6947
:104DB00003F08003002B03D0786800F0A4F80FE024
:104DC000FB6903F04003002B0AD0BB6903F04003EA
:104DD000002B05D0786800F0EBF800BF00E000BFC2
:104DE0002037BD4680BD00BFDF4E000880B483B0D1
:104DF00000AF786000BF0C37BD4680BC704780B400
:104E000083B000AF786000BF0C37BD4680BC7047F0
:104E100080B584B000AFF860B9603B601346FB71A9
:104E20002CE0BB69B3F1FF3F28D0BB69002B07D052
:104E3000FCF7D8FA02463B68D31ABA699A421DD2E7
:104E4000FB681B68DA68FB681B6822F4D072DA60C2
:104E5000FB681B685A69FB681B6822F001025A61F3
:104E6000FB68202283F83920FB68202283F83A204F
:104E7000FB68002283F8382003230FE0FB681B68DF
:104E80001A68BB681340BA689A420CBF012300231A
:104E9000DBB21A46FB799A42C3D00023184610377A
:104EA000BD4680BD80B483B000AF78607B681B686E
:104EB000DA687B681B6822F49072DA607B681B6892
:104EC0005A697B681B6822F001025A617B682022C4
:104ED00083F83A2000BF0C37BD4680BC704780B5D0
:104EE00084B000AF78607B685B6AFB60FB6800227F
:104EF000DA85FB680022DA84F868FFF780FF00BFDC
:104F00001037BD4680BD80B485B000AF78607B6847
:104F100093F83930DBB2212B44D17B689B68B3F521
:104F2000805F1AD17B681B6AFB60FB681B881A468E
:104F30007B681B68C2F308025A607B681B69002B00
:104F400005D17B681B6A9A1C7B681A620EE07B683D
:104F50001B6A5A1C7B681A6208E07B681B6A591C32
:104F60007A6811621A787B681B685A607B68DB8CF0
:104F70009BB2013B9BB27A681946D184002B0FD1BA
:104F80007B681B68DA687B681B6822F08002DA6045
:104F90007B681B68DA687B681B6842F04002DA6055
:104FA000002300E0022318461437BD4680BC70473A
:104FB00080B582B000AF78607B681B68DA687B6878
:104FC0001B6822F04002DA607B68202283F83920D7
:104FD0007868FFF70BFF002318460837BD4680BDF1
:104FE00080B584B000AF78607B6893F83A30DBB26C
:104FF000222B71D17B689B68B3F5805F23D17B68DE
:105000009B6AFB607B681B69002B0ED17B681B6869
:105010005B689BB2C3F308039AB2FB681A807B6893
:105020009B6A9A1C7B689A6229E07B681B685B68B4
:105030009BB2DBB29AB2FB681A807B689B6A5A1CEF
:105040007B689A621BE07B681B69002B0AD17B6836
:105050001B6858687B689B6A591C7A689162C2B267
:105060001A700CE07B681B685B68DAB27B689B6A2D
:10507000581C7968886202F07F02D2B21A707B688D
:10508000DB8D9BB2013B9BB27A681946D185002B20
:1050900020D17B681B68DA687B681B6822F02002DD
:1050A000DA607B681B68DA687B681B6822F48072B0
:1050B000DA607B681B685A697B681B6822F0010212
:1050C0005A617B68202283F83A207868FBF7A0F8C1
:1050D000002302E0002300E0022318461037BD46FB
:1050E00080BD000080B584B000AF78607B681B682D
:1050F0001B6923F440517B68DA687B681B680A43AC
:105100001A617B689A687B681B691A437B685B69D4
:105110001343FB607B681B68DB6823F4B05323F008
:105120000C037A681268F9680B43D3607B681B68CC
:105130005B6923F440717B689A697B681B680A434A
:105140005A617B681B68524A93424ED1FFF786F83A
:10515000B860BA6813469B0013449A001A447B68EF
:105160005B689B00B2FBF3F34A4AA2FB03235B0993
:105170001901BA6813469B0013449A001A447B68CD
:105180005B689B00B2FBF3F2424BA3FB02035B099B
:10519000642000FB03F3D31A1B0132333D4AA2FB08
:1051A00003235B0903F0F0031944BA6813469B001C
:1051B00013449A001A447B685B689B00B2FBF3F2CD
:1051C000344BA3FB02035B09642000FB03F3D31AF7
:1051D0001B0132332F4AA2FB03235B0903F00F02AA
:1051E0007B681B680A449A604DE0FFF723F8B860BB
:1051F000BA6813469B0013449A001A447B685B68A4
:105200009B00B2FBF3F3234AA2FB03235B091901C2
:10521000BA6813469B0013449A001A447B685B6883
:105220009B00B2FBF3F21B4BA3FB02035B09642060
:1052300000FB03F3D31A1B013233164AA2FB0323EC
:105240005B0903F0F0031944BA6813469B0013444A
:105250009A001A447B685B689B00B2FBF3F20D4B2B
:10526000A3FB02035B09642000FB03F3D31A1B01B9
:105270003233084AA2FB03235B0903F00F027B6869
:105280001B680A449A6000BF1037BD4680BD00BF4E
:10529000003801401F85EB5180B483B000AF7860C7
:1052A0007B6803F108027B685A607B684FF0FF322D
:1052B0009A607B6803F108027B68DA607B6803F11F
:1052C00008027B681A617B6800221A6000BF0C37F5
:1052D000BD4680BC704780B483B000AF78607B6807
:1052E00000221A6100BF0C37BD4680BC704780B4F5
:1052F00085B000AF786039607B685B68FB603B68B5
:10530000FA685A60FB689A683B689A60FB689B6819
:105310003A685A60FB683A689A603B687A681A6132
:105320007B681B685A1C7B681A6000BF1437BD4637
:1053300080BC704780B485B000AF786039603B684E
:105340001B68BB60BB68B3F1FF3F03D17B681B697F
:10535000FB600CE07B680833FB6002E0FB685B6885
:10536000FB60FB685B681B68BA689A42F6D2FB6810
:105370005A683B685A603B685B683A689A603B6869
:10538000FA689A60FB683A685A603B687A681A6102
:105390007B681B685A1C7B681A6000BF1437BD46C7
:1053A00080BC704780B485B000AF78607B681B69B3
:1053B000FB607B685B687A6892689A607B689B6830
:1053C0007A6852685A60FB685B687A689A4203D1CF
:1053D0007B689A68FB685A607B6800221A61FB68E8
:1053E0001B685A1EFB681A60FB681B681846143756
:1053F000BD4680BC7047000080B584B000AF7860C7
:1054000039607B68FB60FB68002B09D14FF05003CB
:1054100083F31188BFF36F8FBFF34F8FBB60FEE73D
:1054200001F0F0F8FB681A68FB68DB6BF968096C3F
:1054300001FB03F31A44FB685A60FB6800229A637D
:10544000FB681A68FB689A60FB681A68FB68DB6B8C
:10545000013BF968096C01FB03F31A44FB68DA604D
:10546000FB68FF2283F84420FB68FF2283F8452075
:105470003B68002B14D1FB681B69002B1AD0FB681A
:105480001033184600F0CCFD0346002B12D00D4B14
:105490004FF080521A60BFF34F8FBFF36F8F09E058
:1054A000FB6810331846FFF7F7FEFB6824331846F5
:1054B000FFF7F2FE01F0D4F8012318461037BD467D
:1054C00080BD00BF04ED00E080B58AB002AFF86097
:1054D000B9601346FB71FB68002B09D14FF05003F4
:1054E00083F31188BFF36F8FBFF34F8F3B61FEE7EC
:1054F000BB68002B02D10023FB6104E0FB68BA68A3
:1055000002FB03F3FB61FB694833184601F07AF9AB
:10551000B861BB69002B0FD0BB6948337B61BB69A5
:10552000002283F84620FA79BB69009313467A6912
:10553000B968F86800F005F8BB6918462037BD4621
:1055400080BD80B584B000AFF860B9607A60FB7050
:10555000BB68002B03D1BB69BA691A6002E0BB6962
:105560007A681A60BB69FA68DA63BB69BA681A6458
:105570000121B869FFF740FFFB78BA68F96873202A
:1055800002F0ECF900BF1037BD4680BD80B58EB08B
:1055900004AFF860B9607A603B607B6B002B09D187
:1055A0004FF0500383F31188BFF36F8FBFF34F8F1A
:1055B0003B62FEE7BB6B002B09D14FF0500383F336
:1055C0001188BFF36F8FBFF34F8FFB61FEE754234A
:1055D0003B613B69542B09D04FF0500383F3118892
:1055E000BFF36F8FBFF34F8FBB61FEE7BB6B002B29
:1055F0001ED07B6B002B1BD0BB6B7B627B6A7A6BF4
:105600001A637B6A022283F85120002303937B6A8A
:10561000029307F1140301933B6B00933B687A6894
:10562000B968F86800F050F8786A00F0CBF801E04B
:1056300000237B617B6918462837BD4680BD80B555
:105640008CB004AFF860B9603B601346FB80FB8808
:105650009B00184601F0D6F878617B69002B0ED0CC
:10566000542001F0CFF8F861FB69002B03D0FB69EF
:105670007A691A6305E0786901F086F901E0002390
:10568000FB61FB69002B17D0FB69002283F85120D6
:10569000FA8800230393FB690293FB6A0193BB6AB8
:1056A00000933B68B968F86800F00EF8F86900F0FC
:1056B00089F80123BB6102E04FF0FF33BB61BB6996
:1056C00018462037BD4680BD80B588B000AFF86071
:1056D000B9607A603B603B6B1A6B7B6803F1804377
:1056E000013B9B001344BB61BB6923F00703BB6113
:1056F000BB6903F00703002B09D04FF0500383F37D
:105700001188BFF36F8FBFF34F8F7B61FEE70023DC
:10571000FB6112E0BA68FB69134419783A6BFB69C4
:10572000134434330A461A70BA68FB6913441B7871
:10573000002B06D0FB690133FB61FB690F2BE9D914
:1057400000E000BF3B6B002283F84320BB6A062BBE
:1057500001D90623BB623B6BBA6ADA623B6BBA6A59
:105760005A643B6B00229A643B6B04331846FFF784
:10577000B2FD3B6B18331846FFF7ADFD3B6B3A6B40
:105780001A61BB6AC3F107023B6B9A613B6B3A6BD0
:105790005A623B6B0022DA643B6B002283F8502094
:1057A0003A68F968B86900F0EFFD02463B6B1A6091
:1057B000FB6A002B02D0FB6A3A6B1A6000BF2037ED
:1057C000BD4680BDB0B584B002AF786000F01AFF6E
:1057D000394B1B680133384A1360384B1B68002B68
:1057E00009D1364A7B681360334B1B68012B10D1FB
:1057F00000F094FC0DE0324B1B68002B09D12F4BBD
:105800001B68DA6A7B68DB6A9A4202D82B4A7B689B
:1058100013602C4B1B6801332A4A13607B68002BF2
:1058200016D07B68184602F06BFC78687B6803F141
:1058300034017B68DA6A7B681B6B1D467B681B68DA
:105840001C467B681B6BE31A00932B4601F056FA4B
:105850007B68184602F0D8FC7B68DB6A01229A401C
:10586000194B1B681343184A13607B68DA6A1346A6
:105870009B0013449B00154A1A447B680433194665
:105880001046FFF734FD00F0EBFE0D4B1B68002BBC
:105890000ED00A4B1B68DA6A7B68DB6A9A4207D231
:1058A0000B4B4FF080521A60BFF34F8FBFF36F8FD7
:1058B00000BF0837BD46B0BD880500208804002021
:1058C00094050020A4050020900500208C040020F1
:1058D00004ED00E080B584B000AF786000F092FE87
:1058E0007B68002B02D13F4B1B6800E07B68FB60AC
:1058F000FB6804331846FFF755FD0346002B15D10E
:10590000FB68DA6A384913469B0013449B000B443A
:105910001B68002B0AD1FB68DB6A012202FA03F341
:10592000DA43324B1B681340304A1360FB689B6AB2
:10593000002B04D0FB6818331846FFF733FD2C4BBF
:105940001B6801332A4A1360264B1B68FA689A4287
:105950000BD1FB68043319462648FFF7C8FC264BD9
:105960001B680133244A136009E0244B1B68013B88
:10597000224A1360F86800F03DFC00F069FCFB6807
:10598000184602F0E3FC03461946222001F050FFBE
:10599000FB68184601F01AFA00F062FE184B1B680B
:1059A000002B1AD00F4B1B68FA689A4215D1154B81
:1059B0001B68002B09D04FF0500383F31188BFF30D
:1059C0006F8FBFF34F8FBB60FEE70F4B4FF08052DE
:1059D0001A60BFF34F8FBFF36F8F00BF1037BD4604
:1059E00080BD00BF880400208C04002090050020AA
:1059F000A40500205C05002070050020880500201B
:105A000094050020B005002004ED00E080B58AB0C8
:105A100000AF7860396000237B627B68002B09D17E
:105A20004FF0500383F31188BFF36F8FBFF34F8F95
:105A30007B61FEE73B68002B09D14FF0500383F3F5
:105A40001188BFF36F8FBFF34F8F3B61FEE72B4B86
:105A50001B68002B09D04FF0500383F31188BFF36C
:105A60006F8FBFF34F8FFB60FEE700F0E3F8244B2E
:105A70001B683B627B681B683A681344FB617B6868
:105A80001B683A6A9A420BD27B681B68FA699A4291
:105A900011D2FA693B6A9A420DD901237B620AE06E
:105AA0007B681B68FA699A4203D3FA693B6A9A4297
:105AB00001D901237B627B68FA691A607B6A002B3B
:105AC00009D0242001F096FEFA693B6AD31A00211E
:105AD000184600F0E1FB00F0BBF8B861BB69002B91
