:020000040800F2
:1000000000500020454A00081D1100082911000871
:100010002F110008351100083B11000800000000F6
:10002000000000000000000000000000E15900088E
:100030004111000800000000B15B0008F95B0008F6
:100040008D4A00088D4A00088D4A00088D4A000834
:100050008D4A00088D4A00088D4A00088D4A000824
:100060008D4A00088D4A00088D4A00084D1100088D
:100070008D4A00088D4A00088D4A00088D4A000804
:100080008D4A00088D4A00088D4A00086111000859
:1000900075110008891100089D1100088D4A00089B
:1000A0008D4A0008B11100088D4A00088D4A0008E9
:1000B0008D4A00088D4A00088D4A00088D4A0008C4
:1000C0008D4A00088D4A00088D4A00088D4A0008B4
:1000D0008D4A00088D4A00088D4A00088D4A0008A4
:1000E000DD0800088D4A00088D4A00080000000065
:1000F0000000000000000000000000000000000000
:0C01000000000000000000005FF808F1A3
:1001100010B5054C237833B9044B13B10448AFF341
:1001200000800123237010BD10000020000000009B
:10013000F460000808B5034B1BB103490348AFF353
:10014000008008BD0000000014000020F4600008DA
:1001500080B485B000AF78600023FB6016E0FB68D8
:1001600003F5003301339B027A689A420BD2FB6895
:1001700003F500339B027A689A4204D3FB6803F5C7
:1001800000339B0206E0FB680133FB60FB687F2BBA
:10019000E5DD002318461437BD4680BC704780B4A7
:1001A00085B000AF786039603B68BB600023FB73AB
:1001B0000CE0FA7BFB7B79680B4407F110010A44E1
:1001C00012F8082C1A70FB7B0133FB73FB7B032BAB
:1001D000EFD900BF1437BD4680BC704780B487B0EC
:1001E00000AF78600023FB750CE0FB7D7A681A4451
:1001F000FB7D127807F118010B4403F80C2CFB7DF2
:100200000133FB75FB7D032BEFD9FB683B613B6939
:1002100018461C37BD4680BC7047000090B58BB0B7
:1002200000AFF860B9601346FB8000237B6202F0E8
:1002300079FCF868FFF78CFF3862FB889B001A4650
:10024000FB681344FB61F869FFF782FFB861204B3C
:1002500000221A601E4A3B6A9360BA693B6AD31A4D
:100260009B0A01331A4AD36007F114031946184850
:1002700002F04AFD0346002B1ED002F089FC034623
:1002800021E07B6A9B00BA6813441B684FF00004AE
:100290001A462346F968022002F0D4FB0346002BDD
:1002A00006D1FB680433FB607B6A01337B6203E0A9
:1002B00002F06EFC034606E0FB887A6A9A42E0DBB5
:1002C00002F056FC002318462C37BD4690BD00BFF7
:1002D0002C00002080B485B000AFF860B9601346F0
:1002E000FB80FB681A68BB681A60FB680433FB601C
:1002F000BB680433BB60FB885A1EFA80002B00D019
:10030000EFE700BF00BF1437BD4680BC7047000058
:1003100080B582B000AF7860396039680548FFF772
:100320003EFF012203497868FFF778FF00BF0837D6
:10033000BD4680BDE41B002080B584B000AF78606E
:1003400007F10803012219467868FFF7C3FF07F198
:1003500008031846FFF742FFF860FB68184610379D
:10036000BD4680BD80B485B000AFF860B9607A60EA
:10037000FB68064A1A60BB68054A1A607B688022DF
:100380001A6000BF1437BD4680BC70473C00002097
:100390009000002080B582B002AF00F047FF00F06F
:1003A00099F800F0DFF900F0BFF900F0EFF800F085
:1003B00057F900F08BF93048FFF7BEFF02462F4B8C
:1003C0001A6000F0ABFA40F201412D4801F020FE26
:1003D0000346002B01D000F0CDFC294801F0FAFCC7
:1003E0000346002B01D000F0C5FC02222549264817
:1003F00001F048F8254B0193042300930023802249
:100400002349244804F04BFC234B0193042300931D
:10041000002380222149224804F041FC214B019312
:1004200004230093002380221F49204804F037FC56
:100430001F4B019305230093002380221D491E4872
:1004400004F02DFC1D4B0193042300930023802214
:100450001B491C4804F023FC1B4B0193062300930B
:100460000023802219491A4804F019FC04F0FAFE0E
:10047000012000F00DFFFBE700FC010890020020C6
:100480004C1C0020E81B00207C1C0020741C002059
:100490000C61000869090008481C0020146100086C
:1004A000DD090008781C0020206100084D0A0008C2
:1004B000F41C00202C610008250B0008441C0020BF
:1004C00038610008B90A0008EC1B002040610008F0
:1004D000890C000880B594B000AF07F128032822EA
:1004E0000021184605F0FEFD07F1140300221A60F2
:1004F0005A609A60DA601A613B1D00221A605A60E5
:100500009A60DA600123BB624FF48033FB62002300
:100510003B630123BB6302237B644FF48033BB64E2
:100520004FF4E013FB6407F12803184603F090FB37
:100530000346002B01D000F01DFC0F237B6102233A
:10054000BB610023FB614FF480633B6200237B624D
:1005500007F114030221184603F0FAFD0346002BAD
:1005600001D000F007FC02237B604FF40043FB60E6
:100570003B1D184603F0B8FF0346002B01D000F0E6
:10058000F9FB00BF5037BD4680BD000080B584B088
:1005900000AF3B1D00221A605A609A602E4B2F4A12
:1005A0001A602D4B4FF480729A602B4B01221A7304
:1005B000294B00221A75284B4FF46022DA61264B32
:1005C00000225A60244B04221A61234800F082FE64
:1005D0000346002B01D000F0CDFB02237B600123FA
:1005E000BB600723FB603B1D19461B4801F044F824
:1005F0000346002B01D000F0BDFB03237B600223E8
:10060000BB603B1D1946144801F036F80346002B29
:1006100001D000F0AFFB08237B600323BB603B1DD0
:1006200019460D4801F028F80346002B01D000F0D0
:10063000A1FB09237B600423BB603B1D19460648D0
:1006400001F01AF80346002B01D000F093FB00BF25
:100650001037BD4680BD00BF7C1C00200024014037
:1006600080B500AF174B184A1A60164B09225A6022
:10067000144B00229A60134B0022DA60114B4FF4A6
:1006800030221A610F4B4FF400125A610D4B0022B9
:100690001A760C4B01225A760A4B00229A76094BA5
:1006A0000122DA76074B00221A77064B00225A778E
:1006B000044801F0CBF90346002B01D000F05AFBAF
:1006C00000BF80BD4C1C00200064004080B500AF1E
:1006D000124B134A1A60114B124A5A600F4B0022F8
:1006E0009A600E4B0022DA600C4B4FF480421A6184
:1006F0000A4B00225A61094B00229A61074B0022E3
:10070000DA61064B80221A62044802F069FD034652
:10071000002B01D000F02EFB00BF80BDF01B00209D
:1007200000580040A086010080B582B000AF0C4B9D
:100730005B690B4A43F001035361094B5B6903F0AA
:1007400001037B607B68002205210B2001F061FF23
:100750000B2001F07AFF00BF0837BD4680BD00BF07
:100760000010024080B588B000AF07F110030022EE
:100770001A605A609A60DA60534B9B69524A43F0A0
:1007800010039361504B9B6903F01003FB60FB68FF
:100790004D4B9B694C4A43F0200393614A4B9B6944
:1007A00003F02003BB60BB68474B9B69464A43F09C
:1007B00004039361444B9B6903F004037B607B68F3
:1007C000414B9B69404A43F0080393613E4B9B6950
:1007D00003F008033B603B6800224FF400513B48A4
:1007E00002F0ABFC00224FF48041384802F0A5FC37
:1007F00000224FF40041364802F09FFC00220821FD
:10080000344802F09AFC4FF400533B6101237B61B2
:100810000023BB610223FB6107F1100319462B483B
:1008200002F01AFB4FF480433B6101237B610023FC
:10083000BB610223FB6107F110031946234802F054
:100840000BFB4FF400433B6101237B610023BB6141
:100850000223FB6107F1100319461D4802F0FCFA60
:100860004FF480533B611C4B7B610023BB6107F15C
:1008700010031946164802F0EFFA00220A21282038
:1008800001F0C7FE282001F0E0FE08233B610123B0
:100890007B610023BB610223FB6107F11003194652
:1008A0000C4802F0D9FA10233B6100237B6100233E
:1008B000BB6107F110031946064802F0CDFA00BFEC
:1008C0002037BD4680BD00BF00100240001001402F
:1008D00000080140000C01400000211080B582B0EA
:1008E00000AF4FF4805002F059FC0A4B1B681846C9
:1008F00004F048FC78607B68002B07D0064B4FF073
:1009000080521A60BFF34F8FBFF36F8F00BF08375D
:10091000BD4680BDEC1B002004ED00E080B58AB030
:1009200000AF01233B6200237B6100233B61002376
:100930003B6000237B600023BB600023FB6000233F
:10094000BB610123FB613B461946064801F079F97A
:100950000346002B01D000F00DFA00BF2837BD463A
:1009600080BD00BF4C1C002080B58CB000AF78600B
:100970004FF47A73FB6204F07DFD0346BB62154BB6
:100980001B881B0A9BB2DBB287F82430114B1B88F3
:10099000DBB287F825300223BB614FF4CA63BB602A
:1009A00000233B6100237B6107F1200307F1240250
:1009B00007F10801084801F051FA0346002B01D065
:1009C00000F0D8F907F12803F96A184604F094FA00
:1009D000D5E700BFE81B00204C1C002080B58CB080
:1009E00000AF78601423FB6204F044FD0346BB6251
:1009F000144B5B881B0A9BB2DBB287F82430114B87
:100A00005B88DBB287F825300223BB6140F252637A
:100A1000BB6000233B6100237B6107F1200307F1EA
:100A2000240207F10801084801F018FA0346002BD8
:100A300001D000F09FF907F12803F96A184604F085
:100A40005BFAD5E7E81B00204C1C002080B58EB077
:100A500002AF78600A23FB6204F00CFD0346BB6220
:100A600007F124020A23009302230821104802F010
:100A7000DFFC0223BB6140F25363BB6000233B6198
:100A800000237B6107F1200307F1240207F108012D
:100A9000084801F0E3F90346002B01D000F06AF9A1
:100AA00007F12803F96A184604F026FAD8E700BFD0
:100AB000F01B00204C1C002080B58EB002AF786087
:100AC0000A23FB6204F0D6FC0346BB6207F1240252
:100AD0000A23009302230A21104802F0A9FC0223F2
:100AE000BB6140F25463BB6000233B6100237B6128
:100AF00007F1200307F1240207F10801084801F07B
:100B0000ADF90346002B01D000F034F907F12803BA
:100B1000F96A184604F0F0F9D8E700BFF01B00208E
:100B20004C1C002080B592B000AF7860C8233B64B5
:100B300004F0A0FC0346FB6300224FF400414E4842
:100B400002F0FBFA00237B6418E0002208214B48E6
:100B500002F0F3FA1021494802F0D8FA0346194688
:100B600007F12C027B6C13440A461A7001220821FB
:100B7000424802F0E2FA7B6C01337B647B6C0F2B02
:100B8000E3DD01224FF400413B4802F0D6FA97F82A
:100B90003930002B46D197F82D305B0097F82E2086
:100BA00013445B0097F82F2013445B0097F8302024
:100BB00013445B0097F8312013445B0097F8322010
:100BC00013449BB29B019AB22D4B1A8097F8333095
:100BD0009BB25B009AB297F834309BB213449BB23D
:100BE0005B009AB297F835309BB213449BB25B001E
:100BF0009AB297F836309BB213449BB25B009AB21C
:100C000097F837309BB213449BB25B009AB21C4BEF
:100C10001B8813449AB297F838309BB213449AB2A7
:100C2000174B1A80164B1B881B0A9BB2DBB287F846
:100C30002830134B1B88DBB287F829300223FB6175
:100C400040F25163FB6000237B610023BB6107F12D
:100C5000240307F1280207F10C010A4801F0FEF80D
:100C60000346002B01D000F085F807F13C03396CF6
:100C7000184604F041F95FE700080140000C01400C
:100C8000AC1C00204C1C002080B58AB000AF7860FE
:100C9000002004F0ABF9294B1B780133DAB2274B63
:100CA0001A70264B1B78012BF2D14FF48041244857
:100CB00002F05BFA214B00221A702248FFF73CFB3E
:100CC0000246214B1A60204B1B6864331E4A136096
:100CD0001D4B1B6819461B48FFF71AFB1A4B1B6874
:100CE0001B0EDBB287F82430174B1B681B0CDBB2E2
:100CF00087F82530144B1B681B0ADBB287F82630B7
:100D0000114B1B68DBB287F827300423BB6140F22C
:100D10005563BB6000233B6100237B6107F1200327
:100D200007F1240207F10801084801F097F803468B
:100D3000002BADD000F01EF8AAE700BF94020020FF
:100D40000010014000FC0108900200204C1C002013
:100D500080B582B000AF78607B681B68044A93421C
:100D600001D100F079FA00BF0837BD4680BD00BF51
:100D7000002C014080B400AF00BFBD4680BC70476E
:100D800080B584B000AF184B9B69174A43F001034C
:100D90009361154B9B6903F00103BB60BB68124B69
:100DA000DB69114A43F08053D3610F4BDB6903F0D9
:100DB00080537B607B6800220F216FF0010001F0FF
:100DC00028FC0A4B5B68FB60FB6823F0E063FB6078
:100DD000FB6843F00073FB60044AFB68536000BF8C
:100DE0001037BD4680BD00BF00100240000001402A
:100DF00080B588B000AF786007F1100300221A6058
:100E00005A609A60DA607B681B68164A934224D164
:100E1000154BDB69144A43F48003D361124BDB6941
:100E200003F48003FB60FB680F4B9B690E4A43F0A1
:100E3000080393610C4B9B6903F00803BB60BB681C
:100E40004FF440633B6112237B610323FB6107F195
:100E500010031946054801F0FFFF00BF2037BD46CB
:100E600080BD00BF0058004000100240000C01404F
:100E700080B58AB000AF786007F1180300221A60CD
:100E80005A609A60DA607B681B68334A93425FD18C
:100E9000324B9B69314A43F4007393612F4B9B693A
:100EA00003F400737B617B692C4B9B692B4A43F0F5
:100EB00004039361294B9B6903F004033B613B6985
:100EC000264B9B69254A43F008039361234B9B699A
:100ED00003F00803FB60FB680C23BB610323FB6189
:100EE00007F1180319461E4801F0B6FF0323BB6142
:100EF0000323FB6107F1180319461A4801F0ACFF00
:100F0000194B1A4A1A60184B00225A60164B0022DD
:100F10009A60154B8022DA60134B4FF480721A618D
:100F2000114B4FF480625A610F4B20229A610E4B95
:100F30000022DA610C4801F097FB0346002B01D038
:100F4000FFF718FF7B68084A1A62074A7B685362FA
:100F500000BF2837BD4680BD00240140001002407C
:100F600000080140000C0140B01C002008000240B5
:100F700080B58AB000AF786007F1140300221A60D0
:100F80005A609A60DA607B681B68354A934263D185
:100F9000344BDB69334A43F00073D361314BDB6977
:100FA00003F000733B613B692E4B9B692D4A43F074
:100FB000080393612B4B9B6903F00803FB60FB68FC
:100FC0004FF480737B610023BB610023FB6107F159
:100FD00014031946244801F03FFF4FF400737B616E
:100FE0000223BB6103233B6207F1140319461E4829
:100FF00001F032FF1D4B5B687B627B6A23F4C043C8
:101000007B627B6A43F0E0637B627B6A43F48043EC
:101010007B62164A7B6A536000220521132001F08F
:10102000F8FA132001F011FB00220521142001F031
:10103000F0FA142001F009FB00220521152001F02F
:10104000E8FA152001F001FB00220521162001F02D
:10105000E0FA162001F0F9FA00BF2837BD4680BD3E
:101060000064004000100240000C014000000140FC
:1010700080B58CB000AF78600023FB620023BB62B8
:1010800000227968192001F0C4FA192001F0DDFA74
:101090001E4B9B691D4A43F4006393611B4B9B6984
:1010A00003F40063FB60FB6807F1100207F114030F
:1010B0001146184603F0CAF903F0B4F9F862FB6A66
:1010C000134AA2FB03239B0C013BBB62114B124A48
:1010D0001A60104B40F2E732DA600E4ABB6A536086
:1010E0000C4B00221A610B4B00229A60094803F056
:1010F000B1FA0346002B04D1064803F0DFFA034699
:1011000000E0012318463037BD4680BD0010024084
:1011100083DE1B43F81C0020002C014080B400AF8C
:1011200000BFBD4680BC704780B400AFFEE780B40E
:1011300000AFFEE780B400AFFEE780B400AFFEE78B
:1011400080B400AF00BFBD4680BC704780B500AF23
:10115000024801F043FB00BF80BD00BFB01C00206F
:1011600080B500AF024800F078FF00BF80BD00BF2F
:101170004C1C002080B500AF024800F06EFF00BF9D
:1011800080BD00BF4C1C002080B500AF024800F0BD
:1011900064FF00BF80BD00BF4C1C002080B500AFC5
:1011A000024800F05AFF00BF80BD00BF4C1C002069
:1011B00080B500AF024803F0A4FA00BF80BD00BFB5
:1011C000F81C002080B400AF154B1B68144A43F094
:1011D00001031360124B5A681149124B13404B60C4
:1011E0000F4B1B680E4A23F0847323F48033136083
:1011F0000B4B1B680A4A23F480231360084B5B687F
:10120000074A23F4FE035360054B4FF41F029A6014
:10121000054B4FF000629A6000BFBD4680BC70472E
:10122000001002400000FFF800ED00E080B500AFC4
:10123000084B1B68074A43F010031360032001F0BA
:10124000DDF90020FFF714FFFFF79AFD0023184691
:1012500080BD00BF0020024080B400AF054B1B786A
:101260001A46054B1B681344034A136000BFBD4672
:1012700080BC704708000020381D002080B400AFFB
:10128000024B1B681846BD4680BC7047381D0020C5
:1012900080B584B000AF7860FFF7F0FFB8607B687E
:1012A000FB60FB68B3F1FF3F05D0094B1B781A4682
:1012B000FB681344FB6000BFFFF7E0FF0246BB681A
:1012C000D31AFA689A42F7D800BF1037BD4680BDDE
:1012D0000800002080B586B000AF78600023FB7561
:1012E00000233B610023BB600023FB607B68002B75
:1012F00001D10123BEE07B689B68002B7B689B6A61
:10130000002B09D17B680022DA627B68002283F817
:1013100024207868FFF7ACFD786800F0F7FA034600
:10132000FB757B689B6A03F01003002B40F09980EB
:10133000FB7D002B40F095807B689B6A23F48853EB
:1013400023F0020343F002027B689A627B685A68CA
:101350007B68DB691A437B681B7B5B001343BA68BD
:101360001343BB607B689B68B3F5807F03D07B68C9
:101370009B68012B02D14FF4807300E000233A698F
:1013800013433B617B681B7D012B19D17B681B7B61
:10139000002B09D17B689B69013B5A033B691343CE
:1013A00043F400633B610BE07B689B6A43F02002DF
:1013B0007B689A627B68DB6A43F001027B68DA62D1
:1013C0007B681B685B6823F469417B681B683A692A
:1013D0000A435A607B681B689A68284B13407A68F6
:1013E0001268B9680B4393607B689B68B3F5807F94
:1013F00003D07B689B68012B04D17B681B69013B90
:101400001B05FB607B681B68DB6A23F470017B684B
:101410001B68FA680A43DA627B681B689A68184B93
:101420001340BA689A420BD17B680022DA627B686B
:101430009B6A23F0030343F001027B689A6218E081
:101440007B689B6A23F0120343F010027B689A6268
:101450007B68DB6A43F001027B68DA620123FB757B
:1014600007E07B689B6A43F010027B689A62012365
:10147000FB75FB7D18461837BD4680BDFDF7E1FFC3
:10148000FE0E1FFF80B586B000AFF860B9607A60CD
:101490000023FB75FB681B68644A934204D0FB6819
:1014A0001B68634A934206D1604B5B6803F4702368
:1014B000002B40F0B380FB6893F82430012B01D15E
:1014C0000223AEE0FB68012283F82420F86800F0D4
:1014D000CBF90346FB75FB7D002B40F09A80FB683F
:1014E0009B6A23F4706323F0010343F48072FB686A
:1014F0009A62FB681B684E4A934205D14B4B5B686E
:1015000003F47023002B15D1FB689B6A23F480122F
:10151000FB689A62FB681B685B6803F48063002BBE
:1015200026D0FB689B6A23F4405343F48052FB6847
:101530009A621DE0FB689B6A43F48012FB689A6222
:10154000FB681B68394A934204D0FB681B68384A21
:1015500093420DD1354B5B6803F48063002B07D0B9
:10156000FB689B6A23F4405343F48052FB689A6201
:10157000FB689B6A03F48053002B06D0FB68DB6A90
:1015800023F00602FB68DA6202E0FB680022DA62FE
:10159000FB68002283F82420FB681B6A254A9A62B4
:1015A000FB681B6A244ADA62FB681B6A234A1A63D7
:1015B000FB681B686FF002021A60FB681B689A6880
:1015C000FB681B6842F480729A60FB68186AFB68CB
:1015D0001B684C331946BA687B6801F09FF8FB68BA
:1015E0001B689B6803F46023B3F5602F08D1FB6888
:1015F0001B689A68FB681B6842F4A0029A600FE0BF
:10160000FB681B689A68FB681B6842F480129A604A
:1016100006E0FB68002283F8242001E00123FB752B
:10162000FB7D18461837BD4680BD00BF0024014031
:101630000028014081190008FD190008191A000846
:1016400080B483B000AF786000BF0C37BD4680BC6B
:10165000704780B483B000AF786000BF0C37BD46E0
:1016600080BC704780B483B000AF786000BF0C3797
:10167000BD4680BC7047000080B485B000AF786084
:1016800039600023FB730023BB607B6893F8243030
:10169000012B01D10223DCE07B68012283F82420A6
:1016A0003B685B68062B1CD87B681B68596B3B68E2
:1016B0005A6813469B001344053B1F2202FA03F3AA
:1016C000DB4319403B6818683B685A6813469B0027
:1016D0001344053B00FA03F27B681B680A435A6314
:1016E0003CE03B685B680C2B1CD87B681B68196B63
:1016F0003B685A6813469B001344233B1F2202FA9F
:1017000003F3DB4319403B6818683B685A6813468B
:101710009B001344233B00FA03F27B681B680A43D7
:101720001A631BE07B681B68D96A3B685A681346DA
:101730009B001344413B1F2202FA03F3DB43194091
:101740003B6818683B685A6813469B001344413B4A
:1017500000FA03F27B681B680A43DA623B681B6885
:10176000092B1CD97B681B68D9683B681A6813462B
:101770005B0013441E3B072202FA03F3DB431940CC
:101780003B6898683B681A6813465B0013441E3B2D
:1017900000FA03F27B681B680A43DA6019E07B6891
:1017A0001B6819693B681A6813465B0013440722DB
:1017B00002FA03F3DB4319403B6898683B681A68F8
:1017C00013465B00134400FA03F27B681B680A436C
:1017D0001A613B681B68102B03D03B681B68112BF8
:1017E00032D17B681B681D4A934225D17B681B68F8
:1017F0009B6803F40003002B26D17B681B689A6862
:101800007B681B6842F400029A603B681B68102BDF
:101810001AD1134B1B68134AA2FB03239A0C1346DD
:101820009B0013445B00BB6002E0BB68013BBB60F4
:10183000BB68002BF9D107E07B689B6A43F020026C
:101840007B689A620123FB737B68002283F8242063
:10185000FB7B18461437BD4680BC7047002401400E
:101860000000002083DE1B4380B584B000AF7860A9
:101870000023FB600023BB607B681B689B6803F050
:101880000103012B39D07B681B689A687B681B6851
:1018900042F001029A601B4B1B681B4AA2FB032308
:1018A0009B0CBB6002E0BB68013BBB60BB68002BCC
:1018B000F9D1FFF7E3FCF86018E0FFF7DFFC024620
:1018C000FB68D31A022B11D97B689B6A43F0100284
:1018D0007B689A627B68DB6A43F001027B68DA62AC
:1018E0007B68002283F82420012307E07B681B68C3
:1018F0009B6803F00103012BDFD10023184610374A
:10190000BD4680BD0000002083DE1B4380B584B04F
:1019100000AF78600023FB607B681B689B6803F066
:101920000103012B27D17B681B689A687B681B68C1
:1019300022F001029A60FFF7A1FCF86014E0FFF7C3
:101940009DFC0246FB68D31A022B0DD97B689B6A6B
:1019500043F010027B689A627B68DB6A43F0010205
:101960007B68DA62012307E07B681B689B6803F0F1
:101970000103012BE3D0002318461037BD4680BD7C
:1019800080B584B000AF78607B685B6AFB60FB6801
:101990009B6A03F05003002B27D1FB689B6A43F43A
:1019A0000072FB689A62FB681B689B6803F4602303
:1019B000B3F5602F15D1FB681B7B002B11D1FB68A1
:1019C0009B6A23F48072FB689A62FB689B6A03F44B
:1019D0008053002B05D1FB689B6A43F00102FB6832
:1019E0009A62F868FFF72CFE04E0FB681B6A1B6B29
:1019F0007868984700BF1037BD4680BD80B584B079
:101A000000AF78607B685B6AFB60F868FFF721FED7
:101A100000BF1037BD4680BD80B584B000AF786090
:101A20007B685B6AFB60FB689B6A43F04002FB6873
:101A30009A62FB68DB6A43F00402FB68DA62F868CA
:101A4000FFF710FE00BF1037BD4680BD80B584B0E3
:101A500000AF78607B68002B01D10123EDE07B684B
:101A600093F82030DBB2002B02D17868FFF780FAC0
:101A70007B681B681A687B681B6822F002021A6088
:101A8000FFF7FCFBF86012E0FFF7F8FB0246FB688B
:101A9000D31A0A2B0BD97B685B6A43F400327B684C
:101AA0005A627B68052283F820200123C5E07B6809
:101AB0001B685B6803F00203002BE5D17B681B68A1
:101AC0001A687B681B6842F001021A60FFF7D6FBB8
:101AD000F86012E0FFF7D2FB0246FB68D31A0A2B2C
:101AE0000BD97B685B6A43F400327B685A627B687F
:101AF000052283F8202001239FE07B681B685B6838
:101B000003F00103002BE5D07B681B7E012B08D17D
:101B10007B681B681A687B681B6842F080021A6049
:101B200007E07B681B681A687B681B6822F08002EC
:101B30001A607B685B7E012B08D17B681B681A6882
:101B40007B681B6842F040021A6007E07B681B68F4
:101B50001A687B681B6822F040021A607B689B7ED3
:101B6000012B08D17B681B681A687B681B6842F0F0
:101B700020021A6007E07B681B681A687B681B6894
:101B800022F020021A607B68DB7E012B08D17B6883
:101B90001B681A687B681B6822F010021A6007E055
:101BA0007B681B681A687B681B6842F010021A6029
:101BB0007B681B7F012B08D17B681B681A687B68D8
:101BC0001B6842F008021A6007E07B681B681A680D
:101BD0007B681B6822F008021A607B685B7F012B20
:101BE00008D17B681B681A687B681B6842F0040296
:101BF0001A6007E07B681B681A687B681B6822F024
:101C000004021A607B689A687B68DB681A437B6809
:101C10001B691A437B685B6942EA03017B685B6866
:101C20005A1E7B681B680A43DA617B6800225A628D
:101C30007B68012283F82020002318461037BD4618
:101C400080BD80B487B000AF786039607B681B6866
:101C50007B617B6893F82030FB74FB7C012B03D005
:101C6000FB7C022B40F0AA807B69D3F8003243F062
:101C700001027B69C3F800223B685B6903F01F0324
:101C8000012202FA03F3FB607B69D3F81C22FB6894
:101C9000DB431A407B69C3F81C223B68DB69002BDD
:101CA00023D17B69D3F80C22FB68DB431A407B69A4
:101CB000C3F80C223B68DB6819043B685B689BB285
:101CC0003A68526919437B69483243F832103B68DD
:101CD0009B6819043B681B689AB23B685B690A43BE
:101CE00079694833DB000B445A603B68DB69012BA0
:101CF00022D17B69D3F80C22FB681A437B69C3F8B5
:101D00000C223B681B6819043B685B689BB23A680D
:101D1000526919437B69483243F832103B689B682B
:101D200019043B68DB689AB23B685B690A437969CE
:101D30004833DB000B445A603B689B69002B09D198
:101D40007B69D3F80422FB68DB431A407B69C3F844
:101D5000042207E07B69D3F80422FB681A437B69FD
:101D6000C3F804223B681B69002B09D17B69D3F8B7
:101D70001422FB68DB431A407B69C3F8142207E096
:101D80007B69D3F81422FB681A437B69C3F81422D9
:101D90003B681B6A012B07D17B69D3F81C22FB68C7
:101DA0001A437B69C3F81C227B69D3F8003223F005
:101DB00001027B69C3F80022002306E07B685B6AAE
:101DC00043F480227B685A62012318461C37BD46C3
:101DD00080BC704780B584B000AF78607B6893F8B2
:101DE0002030DBB2012B2ED17B68022283F8202029
:101DF0007B681B681A687B681B6822F001021A6006
:101E0000FFF73CFAF86012E0FFF738FA0246FB6889
:101E1000D31A0A2B0BD97B685B6A43F400327B68C8
:101E20005A627B68052283F82020012312E07B6838
:101E30001B685B6803F00103002BE5D17B6800227F
:101E40005A62002306E07B685B6A43F400227B68E9
:101E50005A62012318461037BD4680BD80B489B050
:101E600000AFF860B9607A603B60FB6893F820309F
:101E7000FB77FB681B689B68BB61FB7F012B03D072
:101E8000FB7F022B40F0B880BB6903F08063002B1E
:101E90000AD1BB6903F00063002B05D1BB6903F0D5
:101EA0008053002B00F0A080BB691B0E03F00303DE
:101EB0007B617B69022B07D9FB685B6A43F40002F4
:101EC000FB685A6201239EE001227B699A403B68CD
:101ED0001A60BB689B68002B0DD1BB681B685A0554
:101EE000BB68DB68F96809681A437B6918331B0112
:101EF0000B441A600FE0BB685B68DA00BB689B6844
:101F00001A43BB68DB68F96809681A437B691833B0
:101F10001B010B441A60FB681968BB681A697B696E
:101F200018331B010B4404331A60BB681B7D012B63
:101F300011D1FB681A687B6918331B011344043301
:101F40001B68FA68116843F480727B6918331B01BF
:101F50000B4404331A607B6807331B781A067B68CE
:101F600006331B781B041A437B6805331B781B025E
:101F700013437A68043212781046FA68116843EA0B
:101F800000027B691B010B4403F5C6731A607B6872
:101F900003331B781A067B6802331B781B041A4331
:101FA0007B6801331B781B0213437A681278104652
:101FB000FA68116843EA00027B691B010B4403F5D0
:101FC000C4731A60FB681A687B6918331B011344D9
:101FD0001B68FA68116843F001027B6918331B0122
:101FE0000B441A6000230EE0FB685B6A43F40012A6
:101FF000FB685A62012306E0FB685B6A43F48022B7
:10200000FB685A62012318462437BD4680BC7047DE
:1020100080B485B000AF786039607B6893F8203079
:10202000FB73FB7B012B02D0FB7B022B09D17B686E
:102030001B6859697B681B683A680A435A61002328
:1020400006E07B685B6A43F480227B685A62012366
:1020500018461437BD4680BC704780B58AB000AFC3
:10206000786000237B627B681B685B693B627B68EE
:102070001B685B68FB617B681B689B68BB617B6856
:102080001B68DB687B617B681B681B693B617B6845
:102090001B689B69FB603B6A03F00103002B7CD04B
:1020A000BB6903F00103002B23D07B681B6801226E
:1020B0009A60BB6903F00203002B03D0786800F03C
:1020C0007DF916E0BB6903F00403002B04D07B6AA2
:1020D00043F400637B620CE0BB6903F00803002B50
:1020E00004D07B6A43F480537B6202E0786800F09E
:1020F00080F9BB6903F48073002B24D07B681B68D4
:102100004FF480729A60BB6903F40073002B03D014
:10211000786800F05CF916E0BB6903F48063002B7B
:1021200004D07B6A43F400537B620CE0BB6903F488
:102130000063002B04D07B6A43F480437B6202E09F
:10214000786800F05FF9BB6903F48033002B24D07A
:102150007B681B684FF480329A60BB6903F40033DC
:10216000002B03D0786800F03BF916E0BB6903F45C
:102170008023002B04D07B6A43F400437B620CE095
:10218000BB6903F40023002B04D07B6A43F4803343
:102190007B6202E0786800F03EF93B6A03F00803D6
:1021A000002B0CD07B6903F01003002B07D07B6A57
:1021B00043F400737B627B681B681022DA603B6A21
:1021C00003F00403002B0BD07B6903F00803002B02
:1021D00006D07B681B680822DA60786800F02DF969
:1021E0003B6A03F00203002B09D07B681B68DB68A5
:1021F00003F00303002B02D0786800F015F93B6A66
:1022000003F04003002B0CD03B6903F01003002BBC
:1022100007D07B6A43F480637B627B681B68102273
:102220001A613B6A03F02003002B0BD03B6903F0DB
:102230000803002B06D07B681B6808221A617868A7
:1022400000F00DF93B6A03F01003002B09D07B6806
:102250001B681B6903F00303002B02D0786800F0B1
:10226000F5F83B6A03F40033002B0BD0FB6903F055
:102270001003002B06D07B681B6810225A60786818
:1022800000F0F6F83B6A03F48033002B0BD0FB69B7
:1022900003F00803002B06D07B681B6808225A60F5
:1022A000786800F0EEF83B6A03F40043002B75D029
:1022B000FB6903F00403002B6CD03B6A03F48073CA
:1022C000002B08D0FB6803F00103002B03D07B6ACE
:1022D00043F001037B623B6A03F40073002B08D0D8
:1022E000FB6803F00203002B03D07B6A43F0020378
:1022F0007B623B6A03F48063002B08D0FB6803F029
:102300000403002B03D07B6A43F004037B623B6A27
:1023100003F40063002B3DD0FB6803F07003002B37
:1023200038D0FB6803F07003302B17D0302B04D863
:10233000102B09D0202B0CD024E0502B18D0602B70
:102340001BD0402B0FD01DE07B6A43F008037B625B
:1023500018E07B6A43F010037B6213E07B6A43F072
:1023600020037B620EE07B6A43F040037B6209E05E
:102370007B6A43F080037B6204E07B6A43F48073F2
:102380007B6200BF7B681B689A697B681B6822F0D0
:1023900070029A617B681B6804225A607B6A002B7A
:1023A00008D07B685A6A7B6A1A437B685A627868ED
:1023B00000F070F800BF2837BD4680BD80B483B000
:1023C00000AF786000BF0C37BD4680BC704780B45A
:1023D00083B000AF786000BF0C37BD4680BC70474B
:1023E00080B483B000AF786000BF0C37BD4680BCBE
:1023F000704780B483B000AF786000BF0C37BD4633
:1024000080BC704780B483B000AF786000BF0C37E9
:10241000BD4680BC704780B483B000AF786000BF19
:102420000C37BD4680BC704780B483B000AF786085
:1024300000BF0C37BD4680BC704780B483B000AF8E
:10244000786000BF0C37BD4680BC704780B483B055
:1024500000AF786000BF0C37BD4680BC704780B4C9
:1024600083B000AF786000BF0C37BD4680BC7047BA
:1024700080B483B000AF786000BF0C37BD4680BC2D
:10248000704780B483B000AF786000BF0C37BD46A2
:1024900080BC704780B483B000AF786000BF0C3759
:1024A000BD4680BC7047000080B485B000AF786046
:1024B0007B6803F00703FB600C4BDB68BB60BA680A
:1024C0004FF6FF031340BB60FB681A02BB6813435F
:1024D00043F0BF6343F40033BB60044ABB68D3607E
:1024E00000BF1437BD4680BC704700BF00ED00E060
:1024F00080B400AF044BDB681B0A03F007031846E7
:10250000BD4680BC704700BF00ED00E080B483B0E2
:1025100000AF0346FB7197F90730002B0BDBFB790B
:1025200003F01F02064997F907305B09012000FA02
:1025300002F241F8232000BF0C37BD4680BC704733
:1025400000E100E080B483B000AF03463960FB7166
:1025500097F90730002B0ADB3B68DAB20C4997F990
:1025600007301201D2B20B4483F800230AE03B6823
:10257000DAB20849FB7903F00F03043B1201D2B22F
:102580000B441A7600BF0C37BD4680BC704700BFB5
:1025900000E100E000ED00E080B489B000AFF86039
:1025A000B9607A60FB6803F00703FB61FB69C3F164
:1025B0000703042B28BF0423BB61FB690433062BEC
:1025C00002D9FB69033B00E000237B614FF0FF323F
:1025D000BB6902FA03F3DA43BB681A407B699A408D
:1025E0004FF0FF317B6901FA03F3D9437B680B405D
:1025F000134318462437BD4680BC704780B582B06F
:1026000000AF78607868FFF74FFF00BF0837BD461E
:1026100080BD80B586B000AF0346B9607A60FB73B9
:1026200000237B61FFF764FF78617A68B968786995
:10263000FFF7B2FF024697F90F3011461846FFF731
:1026400081FF00BF1837BD4680BD80B582B000AFA6
:102650000346FB7197F907301846FFF757FF00BF95
:102660000837BD4680BD000080B485B000AF7860FB
:102670000023FB607B68002B01D1012343E07B68D2
:102680001B681A46224B1344224AA2FB03231B0950
:102690009A007B681A647B681F4ADA637B680222AF
:1026A00083F821207B681B681B68FB60FB6823F4B0
:1026B0007F5323F03003FB607B685A687B689B681C
:1026C0001A437B68DB681A437B681B691A437B6883
:1026D0005B691A437B689B691A437B68DB69134318
:1026E000FA681343FB607B681B68FA681A607B68B2
:1026F00000229A637B68012283F821207B680022F4
:1027000083F82020002318461437BD4680BC70474C
:10271000F8FFFDBFCDCCCCCC0000024080B586B028
:1027200000AFF860B9607A603B600023FB75FB681E
:1027300093F82030012B01D102234AE0FB680122EB
:1027400083F82020FB6893F82130012B3AD1FB68F5
:10275000022283F82120FB6800229A63FB681B6831
:102760001A68FB681B6822F001021A603B687A68ED
:10277000B968F86800F038F9FB68DB6A002B08D00C
:10278000FB681B681A68FB681B6842F00E021A603F
:102790000FE0FB681B681A68FB681B6822F00402E4
:1027A0001A60FB681B681A68FB681B6842F00A0223
:1027B0001A60FB681B681A68FB681B6842F001021C
:1027C0001A6005E0FB68002283F820200223FB75D5
:1027D000FB7D18461837BD4680BD000080B584B02B
:1027E00000AF78607B68DB6B1B68FB607B681B68F5
:1027F0001B68BB607B681B6C04229A40FB6813401B
:10280000002B4FD0BB6803F00403002B4AD07B6839
:102810001B681B6803F02003002B07D17B681B6833
:102820001A687B681B6822F004021A607B681B68C8
:10283000664A934229D07B681B68654A934222D03E
:102840007B681B68634A93421AD07B681B68624AA4
:10285000934212D07B681B68604A93420AD07B681F
:102860001B685F4A934202D14FF480030EE04FF0A1
:1028700080630BE04FF4802308E04FF4804305E0D1
:102880004FF4806302E0402300E00423554A536084
:102890007B68DB6A002B00F094807B68DB6A7868D9
:1028A00098478EE07B681B6C02229A40FB681340BD
:1028B000002B56D0BB6803F00203002B51D07B687D
:1028C0001B681B6803F02003002B0BD17B681B687F
:1028D0001A687B681B6822F00A021A607B68012272
:1028E00083F821207B681B68384A934229D07B6893
:1028F0001B68374A934222D07B681B68354A934253
:102900001AD07B681B68344A934212D07B681B68DC
:10291000324A93420AD07B681B68314A934202D103
:102920004FF400130EE04FF000730BE04FF4003350
:1029300008E04FF4005305E04FF4007302E0202359
:1029400000E00223274A53607B68002283F820209E
:102950007B689B6A002B34D07B689B6A78689847B9
:102960002FE07B681B6C08229A40FB681340002B09
:1029700028D0BB6803F00803002B23D07B681B68BA
:102980001A687B681B6822F00E021A607B681A6C5A
:102990007B68DB6B012101FA02F25A607B6801223D
:1029A0009A637B68012283F821207B68002283F8E8
:1029B00020207B681B6B002B04D07B681B6B786826
:1029C000984700BF00BF1037BD4680BD08000240D9
:1029D0001C00024030000240440002405800024007
:1029E0006C0002400000024080B485B000AFF86087
:1029F000B9607A603B60FB681A6CFB68DB6B012195
:102A000001FA02F25A60FB681B683A685A60FB6878
:102A10005B68102B08D1FB681B687A689A60FB68BA
:102A20001B68BA68DA6007E0FB681B68BA689A60DE
:102A3000FB681B687A68DA6000BF1437BD4680BC4B
:102A400070470000F0B587B000AFF860B960C7E923
:102A500000230123FB750023BB7500237B752F4BDF
:102A60001B7E012B01D1022354E02C4B01221A764C
:102A70004CF2503000F0B2F80346FB75FB7D002BA2
:102A800044D1FB68012B02D101237B7507E0FB6871
:102A9000022B02D102237B7501E004237B75002306
:102AA000BB752DE0BB7D5A00BB6802EB030CBB7D00
:102AB0001901D7E90023C1F12006A1F1200022FA73
:102AC00001F403FA06F6344323FA00F0044323FA30
:102AD00001F5A3B21946604600F064F84CF250309C
:102AE00000F07CF80346FB750D4B1B690C4A23F084
:102AF00001031361FB7D002B07D1BB7D0133BB7547
:102B0000BA7D7B7D9A42CDD300E000BF034B00220B
:102B10001A76FB7D18461C37BD46F0BD401D0020CF
:102B20000020024080B483B000AF0023FB710D4B46
:102B30001B6903F08003002B0DD00A4B0A4A5A6030
:102B4000084B0A4A5A60074B1B6903F08003002BAD
:102B500001D00123FB71FB7918460C37BD4680BCC0
:102B6000704700BF0020024023016745AB89EFCDCD
:102B700080B400AF054B1B69044A43F08003136126
:102B800000231846BD4680BC704700BF00200240AD
:102B900080B400AF024BDB691846BD4680BC70476D
:102BA000401D002080B483B000AF78600B467B806E
:102BB000084B0022DA61084B1B69074A43F0010306
:102BC00013617B687A881A8000BF0C37BD4680BCD1
:102BD000704700BF401D00200020024080B584B037
:102BE00000AF7860FEF74AFBF86010E07B68B3F155
:102BF000FF3F0CD07B68002B07D0FEF73FFB02465F
:102C0000FB68D31A7A689A4201D2032325E0154B58
:102C1000DB6803F00103002BE8D1124BDB6803F003
:102C20002003002B02D00F4B2022DA600D4BDB6813
:102C300003F01003002B0BD10A4BDB6903F00103F7
:102C4000002B05D1074BDB6803F00403002B03D0F6
:102C500000F00AF8012300E0002318461037BD46B3
:102C600080BD00BF0020024080B483B000AF0023CD
:102C70007B60234BDB6803F01003002B09D0214B52
:102C8000DB6943F002031F4AD3617B6843F0100302
:102C90007B601B4BDB6803F00403002B09D0194B4E
:102CA000DB6943F00103174AD3617B6843F00403F7
:102CB0007B60134BDB6903F00103002B0BD0114B3E
:102CC000DB6943F004030F4AD3610D4BDB690C4A07
:102CD00023F00103D3617B6840F20112934206D1D5
:102CE000074BDB69064A23F00103D36102E0044A83
:102CF0007B68D36000BF0C37BD4680BC704700BF07
:102D000000200240401D002080B584B000AF7860F4
:102D100039600123FB730023BB602F4B1B7E012B0B
:102D200001D1022353E02C4B01221A767B681B68E9
:102D3000022B16D14CF25030FFF750FF0346002B08
:102D400041D1012000F04CF84CF25030FFF746FF23
:102D50000346FB73214B1B69204A23F004031361D4
:102D600031E04CF25030FFF739FF0346002B2AD1F7
:102D70003B684FF0FF321A607B689B68BB6019E0CC
:102D8000B86800F049F84CF25030FFF727FF0346CF
:102D9000FB73124B1B69114A23F002031361FB7B87
:102DA000002B03D03B68BA681A600CE0BB6803F5DF
:102DB0008063BB607B68DB689A027B689B68134416
:102DC000BA689A42DCD3044B00221A76FB7B184681
:102DD0001037BD4680BD00BF401D002000200240CE
:102DE00080B483B000AF7860094B0022DA61094BF0
:102DF0001B69084A43F004031361064B1B69054A2B
:102E000043F04003136100BF0C37BD4680BC7047E0
:102E1000401D00200020024080B483B000AF7860E5
:102E20000B4B0022DA610B4B1B690A4A43F0020389
:102E30001361084A7B685361064B1B69054A43F0DE
:102E40004003136100BF0C37BD4680BC704700BF14
:102E5000401D00200020024080B48BB000AF78609D
:102E6000396000237B6200233B6227E101227B6AF9
:102E700002FA03F3FB613B681B68FA691340BB610C
:102E8000BA69FB699A4240F016813B685B68122B75
:102E900034D0122B0DD8022B2BD0022B04D8002BB0
:102EA00031D0012B1CD048E0032B43D0112B1BD079
:102EB00043E0894A934226D0874A934206D8874AFC
:102EC000934220D0864A93421DD036E0854A9342F1
:102ED00019D0854A934216D0844A934213D02CE0ED
:102EE0003B68DB683B6228E03B68DB6804333B629D
:102EF00023E03B68DB6808333B621EE03B68DB682D
:102F00000C333B6219E03B689B68002B02D1042321
:102F10003B6212E03B689B68012B05D108233B62B2
:102F20007B68FA691A6108E008233B627B68FA69EA
:102F30005A6102E000233B6200BFBB69FF2B01D84E
:102F40007B6801E07B6804337B61BB69FF2B02D89F
:102F50007B6A9B0002E07B6A083B9B003B617B69CC
:102F60001A680F213B6901FA03F3DB431A40396AFF
:102F70003B6901FA03F31A437B691A603B685B689B
:102F800003F08053002B00F09680594B9B69584A00
:102F900043F001039361564B9B6903F00103BB604F
:102FA000BB68544A7B6A9B08023352F82330FB60AB
:102FB0007B6A03F003039B000F2202FA03F3DB4357
:102FC000FA681340FB607B684B4A934213D07B68DE
:102FD0004A4A93420DD07B68494A934207D07B68A6
:102FE000484A934201D1032306E0042304E002236C
:102FF00002E0012300E000237A6A02F0030292005B
:103000009340FA681343FB603A497B6A9B0802339A
:10301000FA6841F823203B685B6803F48033002B97
:1030200006D0394B1A683849BB6913430B6006E078
:10303000354B1A68BB69DB43334913400B603B686F
:103040005B6803F40033002B06D02F4B5A682E49DF
:10305000BB6913434B6006E02B4B5A68BB69DB43EB
:10306000294913404B603B685B6803F48013002BD5
:1030700006D0254B9A682449BB6913438B6006E050
:10308000214B9A68BB69DB431F4913408B603B6847
:103090005B6803F40013002B06D01B4BDA681A4957
:1030A000BB691343CB6006E0174BDA68BB69DB43AF
:1030B00015491340CB607B6A01337B623B681A6819
:1030C0007B6A22FA03F3002B7FF4D0AE00BF2C37CB
:1030D000BD4680BC704700BF0000211000001110E9
:1030E0000000121000003110000032100000221009
:1030F000001002400000014000080140000C0140A7
:1031000000100140001401400004014080B485B06B
:1031100000AF78600B467B807B689A687B881340A1
:10312000002B02D00123FB7301E00023FB73FB7B28
:1031300018461437BD4680BC704780B483B000AFDA
:1031400078600B467B8013467B707B78002B03D026
:103150007A887B681A6103E07B881A047B681A61AD
:1031600000BF0C37BD4680BC704780B483B000AF51
:1031700078600B467B807B68DA687B881340002B85
:1031800003D07A887B685A6102E07A887B681A618A
:1031900000BF0C37BD4680BC7047000080B582B0D0
:1031A00000AF0346FB80084B5A69FB881340002B95
:1031B00006D0054AFB885361FB88184600F006F8E4
:1031C00000BF0837BD4680BD0004014080B483B015
:1031D00000AF0346FB8000BF0C37BD4680BC704784
:1031E00080B584B000AF78607B68002B01D10123EB
:1031F0000FE17B6893F83D30DBB2002B06D17B6892
:10320000002283F83C207868FDF7F2FD7B682422D9
:1032100083F83D207B681B681A687B681B6822F076
:1032200001021A6001F0EAF8F8607B685B687B4A8B
:10323000934207D8FB687A4A934294BF0123002344
:10324000DBB206E0FB68774A934294BF0123002378
:10325000DBB2002B01D00123DBE0FB68724AA2FB4A
:1032600003239B0CBB607B681B685B6823F03F01FA
:103270007B681B68BA680A435A607B681B681B6AD4
:1032800023F03F017B685B68644A934202D8BB68C5
:10329000013309E0BB684FF4967202FB03F3634A03
:1032A000A2FB03239B0901337A6812680B43136264
:1032B0007B681B68DB6923F44F4222F0FF027B68C6
:1032C0005B6856498B420DD8FB68591E7B685B686A
:1032D0005B00B1FBF3F30133C3F30B03042B38BFE3
:1032E00004234FE07B689B68002B11D1FB68581EBC
:1032F0007B6859680B465B000B44B0FBF3F301336A
:10330000C3F30B03002B0CBF01230023DBB212E03D
:10331000FB68581E7B6859680B469B000B4499005C
:103320000B44B0FBF3F30133C3F30B03002B0CBFCF
:1033300001230023DBB2002B01D0012322E07B68B4
:103340009B68002B0ED1FB68581E7B6859680B46A2
:103350005B000B44B0FBF3F30133C3F30B0343F403
:1033600000430FE0FB68581E7B6859680B469B00C2
:103370000B4499000B44B0FBF3F30133C3F30B038D
:1033800043F44043796809681343CB617B681B6849
:103390001B6823F0C0017B68DA697B681B6A1A43EB
:1033A0007B681B680A431A607B681B689B6823F470
:1033B000034323F0FF037A6811697A68D2681143E6
:1033C0007A6812680B4393607B681B68DB6823F0A4
:1033D000FF017B685A697B689B691A437B681B689D
:1033E0000A43DA607B681B681A687B681B6842F0D6
:1033F00001021A607B6800221A647B68202283F82D
:103400003D207B6800221A637B68002283F83E20FF
:10341000002318461037BD4680BD00BFA0860100BE
:103420007F841E00FF083D0083DE1B43D34D6210E6
:1034300080B58CB002AFF8607A601A460B467B818B
:1034400013463B81FDF71AFF7862FB6893F83D3025
:10345000DBB2202B40F013827B6A009319230122F8
:103460007E49F86800F0C8FA0346002B01D0022319
:1034700006E2FB6893F83C30012B01D10223FFE107
:10348000FB68012283F83C20FB681B681B6803F083
:103490000103012B07D0FB681B681A68FB681B68D7
:1034A00042F001021A60FB681B681A68FB681B681F
:1034B00022F400621A60FB68222283F83D20FB6838
:1034C000102283F83E20FB6800221A64FB687A68A9
:1034D0005A62FB683A895A85FB685B8D9AB2FB6831
:1034E0001A85FB685E4ADA6279897B6A3A6BF8680A
:1034F00000F0CCF90346002B01D00123C0E1FB68AA
:103500001B8D002B13D100233B62FB681B685B699A
:103510003B62FB681B689B693B623B6AFB681B68FC
:103520001A68FB681B6842F400721A6094E1FB6839
:103530001B8D012B1DD1FB681B681A68FB681B687B
:1035400022F480621A6072B60023FB61FB681B687C
:103550005B69FB61FB681B689B69FB61FB69FB683E
:103560001B681A68FB681B6842F400721A6062B636
:1035700072E1FB681B8D022B1DD1FB681B681A686A
:10358000FB681B6842F400621A6072B60023BB61DC
:10359000FB681B685B69BB61FB681B689B69BB615F
:1035A000BB69FB681B681A68FB681B6822F48062B1
:1035B0001A6062B650E1FB681B681A68FB681B68FA
:1035C00042F480621A6000237B61FB681B685B69C0
:1035D0007B61FB681B689B697B617B693CE1FB68E5
:1035E0001B8D032B00F2F580FB681B8D012B23D173
:1035F0007A6A396BF86800F0D5FA0346002B01D0DF
:1036000001233DE1FB681B681A69FB685B6AD2B263
:103610001A70FB685B6A5A1CFB685A62FB681B8D58
:10362000013B9AB2FB681A85FB685B8D9BB2013B3C
:103630009AB2FB685A850FE1FB681B8D022B50D1B3
:103640007B6A00933B6B00220649F86800F0D4F9CE
:103650000346002B08D0012312E100BF0200100036
:103660000000FFFF0400010072B6FB681B681A68C7
:10367000FB681B6842F400721A60FB681B681A69D9
:10368000FB685B6AD2B21A70FB685B6A5A1CFB6803
:103690005A62FB681B8D013B9AB2FB681A85FB6876
:1036A0005B8D9BB2013B9AB2FB685A8562B6FB68A0
:1036B0001B681A69FB685B6AD2B21A70FB685B6AA6
:1036C0005A1CFB685A62FB681B8D013B9AB2FB686F
:1036D0001A85FB685B8D9BB2013B9AB2FB685A85E9
:1036E000BAE07B6A00933B6B00226749F86800F000
:1036F00083F90346002B01D00123C1E0FB681B685E
:103700001A68FB681B6822F480621A6072B6FB6854
:103710001B681A69FB685B6AD2B21A70FB685B6A45
:103720005A1CFB685A62FB681B8D013B9AB2FB680E
:103730001A85FB685B8D9BB2013B9AB2FB685A8588
:103740007B6A00933B6B00224F49F86800F054F904
:103750000346002B01D0012392E0FB681B681A6826
:10376000FB681B6842F400721A60FB681B681A69E8
:10377000FB685B6AD2B21A70FB685B6A5A1CFB6812
:103780005A62FB681B8D013B9AB2FB681A85FB6885
:103790005B8D9BB2013B9AB2FB685A8562B6FB68AF
:1037A0001B681A69FB685B6AD2B21A70FB685B6AB5
:1037B0005A1CFB685A62FB681B8D013B9AB2FB687E
:1037C0001A85FB685B8D9BB2013B9AB2FB685A85F8
:1037D00042E07A6A396BF86800F0E4F90346002B9E
:1037E00001D001234CE0FB681B681A69FB685B6A27
:1037F000D2B21A70FB685B6A5A1CFB685A62FB689B
:103800001B8D013B9AB2FB681A85FB685B8D9BB2EE
:10381000013B9AB2FB685A85FB681B685B6903F041
:103820000403042B18D1FB681B681A69FB685B6AE8
:10383000D2B21A70FB685B6A5A1CFB685A62FB685A
:103840001B8D013B9AB2FB681A85FB685B8D9BB2AE
:10385000013B9AB2FB685A85FB681B8D002B7FF4F5
:10386000BEAEFB68202283F83D20FB68002283F86F
:103870003E20FB68002283F83C20002300E0022366
:1038800018462837BD4680BD0400010080B588B0C9
:1038900002AFF8607A603B600B467B81FB68DB6AB5
:1038A0007B61FB681B681A68FB681B6842F48062D6
:1038B0001A607B69082B06D07B69012B03D07B69DA
:1038C00013F5803F08D1FB681B681A68FB681B680A
:1038D00042F480721A600BE0FB681B6B112B07D15E
:1038E000FB681B681A68FB681B6842F480721A60E8
:1038F0003B6800937B6800224FF00111F86800F0EC
:103900007BF80346002B01D001236DE0FB681B69A7
:10391000B3F5804F08D17B89DBB243F00103DAB203
:10392000FB681B681A6153E07B89DB11DBB203F093
:103930000603DBB263F00F03DAB2FB681B681A619F
:103940003B687A682A49F86800F0ADF80346002B16
:1039500001D0012348E07B89DAB2FB681B681A6159
:103960003B687A682349F86800F09DF80346002B0D
:1039700001D0012338E000233B61FB681B685B69D1
:103980003B61FB681B689B693B613B69FB681B688B
:103990001A68FB681B6842F480721A603B680093E7
:1039A0007B6800224FF00111F86800F025F803460B
:1039B000002B01D0012317E07B89DB11DBB203F080
:1039C0000603DBB263F00E03DAB2FB681B681A6110
:1039D0003B687A680749F86800F065F80346002BF1
:1039E00001D0012300E0002318461837BD4680BDF2
:1039F000080001000200010080B584B000AFF8604B
:103A0000B9603B601346FB7125E03B68B3F1FF3FB3
:103A100021D0FDF733FC0246BB69D31A3A689A42BB
:103A200002D33B68002B16D1FB6800221A63FB68A7
:103A3000202283F83D20FB68002283F83E20FB68AB
:103A40001B6C43F02002FB681A64FB68002283F8B9
:103A50003C20012323E0BB681B0CDBB2012B0DD102
:103A6000FB681B685B69DA43BB6813409BB2002BA1
:103A70000CBF01230023DBB21A460CE0FB681B6875
:103A80009B69DA43BB6813409BB2002B0CBF012338
:103A90000023DBB21A46FB799A42B6D000231846BF
:103AA0001037BD4680BD80B584B000AFF860B96006
:103AB0007A603B6051E0FB681B685B6903F48063DC
:103AC000B3F5806F23D1FB681B681A68FB681B681D
:103AD00042F400721A60FB681B686FF480625A61DE
:103AE000FB6800221A63FB68202283F83D20FB68F4
:103AF000002283F83E20FB681B6C43F00402FB6845
:103B00001A64FB68002283F83C20012346E07B68AE
:103B1000B3F1FF3F21D0FDF7B1FB02463B68D31A5A
:103B20007A689A4202D37B68002B16D1FB68002288
:103B30001A63FB68202283F83D20FB68002283F88B
:103B40003E20FB681B6C43F02002FB681A64FB6894
:103B5000002283F83C20012320E0BB681B0CDBB271
:103B6000012B0CD1FB681B685B69DA43BB6813400F
:103B70009BB2002B14BF01230023DBB20BE0FB68D8
:103B80001B689B69DA43BB6813409BB2002B14BFD0
:103B900001230023DBB2002B8DD100231846103700
:103BA000BD4680BD80B584B000AFF860B9607A6072
:103BB00042E0FB681B685B6903F01003102B19D10E
:103BC000FB681B686FF010025A61FB6800221A63E1
:103BD000FB68202283F83D20FB68002283F83E200A
:103BE000FB681A6CFB681A64FB68002283F83C20AF
:103BF000012329E0FDF742FB02467B68D31ABA682D
:103C00009A4202D3BB68002B16D1FB6800221A63CC
:103C1000FB68202283F83D20FB68002283F83E20C9
:103C2000FB681B6C43F02002FB681A64FB680022EF
:103C300083F83C20012307E0FB681B685B6903F005
:103C40004003402BB5D1002318461037BD4680BD38
:103C500080B586B000AF78607B68002B01D101236E
:103C60006CE27B681B6803F00103002B00F0878087
:103C7000924B5B6803F00C03042B0CD08F4B5B68FA
:103C800003F00C03082B12D18C4B5B6803F48033D8
:103C9000B3F5803F0BD1894B1B6803F40033002B35
:103CA0006CD07B685B68002B68D1012346E27B689F
:103CB0005B68B3F5803F06D1804B1B687F4A43F4B5
:103CC000803313602EE07B685B68002B0CD17B4B4C
:103CD0001B687A4A23F480331360784B1B68774A59
:103CE00023F4802313601DE07B685B68B3F5A02F8D
:103CF0000CD1724B1B68714A43F4802313606F4BE5
:103D00001B686E4A43F4803313600BE06B4B1B68F7
:103D10006A4A23F480331360684B1B68674A23F4B4
:103D2000802313607B685B68002B13D0FDF7A6FA35
:103D3000386108E0FDF7A2FA02463B69D31A642B0A
:103D400001D90323FAE15D4B1B6803F40033002B18
:103D5000F0D014E0FDF792FA386108E0FDF78EFA32
:103D600002463B69D31A642B01D90323E6E1534B86
:103D70001B6803F40033002BF0D100E000BF7B6828
:103D80001B6803F00203002B63D04C4B5B6803F00D
:103D90000C03002B0BD0494B5B6803F00C03082B82
:103DA0001CD1464B5B6803F48033002B16D1434B88
:103DB0001B6803F00203002B05D07B681B69012BF5
:103DC00001D00123BAE13D4B1B6823F0F8027B6868
:103DD0005B69DB00394913430B603AE07B681B6980
:103DE000002B20D0364B01221A60FDF747FA3861CC
:103DF00008E0FDF743FA02463B69D31A022B01D9CA
:103E000003239BE12D4B1B6803F00203002BF0D032
:103E10002A4B1B6823F0F8027B685B69DB002749AB
:103E200013430B6015E0264B00221A60FDF726FABB
:103E3000386108E0FDF722FA02463B69D31A022BEB
:103E400001D903237AE11D4B1B6803F00203002B09
:103E5000F0D17B681B6803F00803002B3AD07B6825
:103E60009B69002B19D0174B01221A60FDF706FA47
:103E7000386108E0FDF702FA02463B69D31A022BCB
:103E800001D903235AE10D4B5B6A03F00203002BB7
:103E9000F0D0012000F00AFB1CE00A4B00221A605F
:103EA000FDF7ECF938610FE0FDF7E8F902463B69F0
:103EB000D31A022B08D9032340E100BF00100240AF
:103EC00000004242800442429E4B5B6A03F00203C0
:103ED000002BE9D17B681B6803F00403002B00F082
:103EE000A6800023FB75974BDB6903F08053002B02
:103EF0000DD1944BDB69934A43F08053D361914BCE
:103F0000DB6903F08053BB60BB680123FB758E4BFC
:103F10001B6803F48073002B18D18B4B1B688A4AF3
:103F200043F480731360FDF7A9F9386108E0FDF7E9
:103F3000A5F902463B69D31A642B01D90323FDE09E
:103F4000814B1B6803F48073002BF0D07B68DB6827
:103F5000012B06D17B4B1B6A7A4A43F001031362A3
:103F60002DE07B68DB68002B0CD1764B1B6A754A11
:103F700023F001031362734B1B6A724A23F004039C
:103F800013621CE07B68DB68052B0CD16D4B1B6A50
:103F90006C4A43F0040313626A4B1B6A694A43F09C
:103FA000010313620BE0674B1B6A664A23F00103AF
:103FB0001362644B1B6A634A23F0040313627B6839
:103FC000DB68002B15D0FDF759F938610AE0FDF7E1
:103FD00055F902463B69D31A41F28832934201D91E
:103FE0000323ABE0574B1B6A03F00203002BEED018
:103FF00014E0FDF743F938610AE0FDF73FF90246A6
:104000003B69D31A41F28832934201D9032395E0E8
:104010004C4B1B6A03F00203002BEED1FB7D012BFE
:1040200005D1484BDB69474A23F08053D3617B6855
:10403000DB69002B00F08180424B5B6803F00C03CE
:10404000082B61D07B68DB69022B46D13F4B0022F5
:104050001A60FDF713F9386108E0FDF70FF9024621
:104060003B69D31A022B01D9032367E0354B1B6848
:1040700003F00073002BF0D17B681B6AB3F5803F1F
:1040800008D1304B5B6823F400327B689B682D4974
:1040900013434B602B4B5B6823F474127B68196AE3
:1040A0007B685B6A0B43274913434B60274B012214
:1040B0001A60FDF7E3F8386108E0FDF7DFF8024623
:1040C0003B69D31A022B01D9032337E01D4B1B6830
:1040D00003F00073002BF0D02FE01C4B00221A607D
:1040E000FDF7CCF8386108E0FDF7C8F802463B69F7
:1040F000D31A022B01D9032320E0124B1B6803F0D3
:104100000073002BF0D118E07B68DB69012B01D133
:10411000012313E00B4B5B68FB60FB6803F4803208
:104120007B681B6A9A4206D1FB6803F470127B68B5
:104130005B6A9A4201D0012300E000231846183739
:10414000BD4680BD00100240007000406000424249
:1041500080B584B000AF786039607B68002B01D1F6
:104160000123D0E06A4B1B6803F007033A689A42C8
:1041700010D9674B1B6823F0070265493B6813435E
:104180000B60634B1B6803F007033A689A4201D047
:104190000123B8E07B681B6803F00203002B20D0EA
:1041A0007B681B6803F00403002B05D0594B5B6848
:1041B000584A43F4E06353607B681B6803F00803CC
:1041C000002B05D0534B5B68524A43F46053536055
:1041D000504B5B6823F0F0027B689B684D491343AA
:1041E0004B607B681B6803F00103002B40D07B68A9
:1041F0005B68012B07D1474B1B6803F40033002B8E
:1042000015D101237FE07B685B68022B07D1414B0E
:104210001B6803F00073002B09D1012373E03D4BB1
:104220001B6803F00203002B01D101236BE0394B23
:104230005B6823F003027B685B68364913434B607D
:10424000FDF71CF8F8600AE0FDF718F80246FB6875
:10425000D31A41F28832934201D9032353E02D4B04
:104260005B6803F00C027B685B689B009A42EBD1B1
:10427000274B1B6803F007033A689A4210D2244B7D
:104280001B6823F0070222493B6813430B60204B55
:104290001B6803F007033A689A4201D0012332E019
:1042A0007B681B6803F00403002B08D0194B5B6884
:1042B00023F4E0627B68DB68164913434B607B683C
:1042C0001B6803F00803002B09D0124B5B6823F432
:1042D00060527B681B69DB000E4913434B6000F0A2
:1042E00021F801460B4B5B681B0903F00F030A4AD8
:1042F000D35C21FA03F3094A1360094B1B68184683
:10430000FCF7B6FE002318461037BD4680BD00BF3F
:1043100000200240001002406461000800000020FC
:104320000400002090B48AB000AF2A4B3C1D0FCB94
:1043300084E80F00284B1B883B800023FB6100238F
:10434000BB6100237B6200237B6100233B62234B24
:104350005B68FB61FB6903F00C03042B02D0082BA4
:1043600003D02DE01E4B3B622DE0FB699B0C03F05C
:104370000F0307F12802134413F8243C7B61FB6907
:1043800003F48033002B13D0144B5B685B0C03F0F9
:10439000010307F12802134413F8283CBB617B6931
:1043A0000F4A02FB03F2BB69B2FBF3F37B6204E04A
:1043B0007B690C4A02FB03F37B627B6A3B6202E08F
:1043C000074B3B6200BF3B6A18462837BD4690BC8E
:1043D000704700BF486100085861000800100240A3
:1043E00000127A0000093D0080B400AF024B1B6848
:1043F0001846BD4680BC70470000002080B500AF65
:10440000FFF7F2FF0146054B5B681B0A03F0070349
:10441000034AD35C21FA03F3184680BD0010024022
:104420007461000880B500AFFFF7DEFF0146054B61
:104430005B68DB0A03F00703034AD35C21FA03F34A
:10444000184680BD001002407461000880B483B03B
:1044500000AF786039607B680F221A60114B5B688F
:1044600003F003027B685A600E4B5B6803F0F002B6
:104470007B689A600B4B5B6803F4E0627B68DA60F0
:10448000084B5B68DB0803F4E0627B681A61064B4B
:104490001B6803F007023B681A6000BF0C37BD467B
:1044A00080BC7047001002400020024080B485B0FC
:1044B00000AF78600A4B1B680A4AA2FB03235B0A21
:1044C0007A6802FB03F3FB6000BFFB685A1EFA60C8
:1044D000002BF9D100BF1437BD4680BC704700BF28
:1044E00000000020D34D621080B586B000AF786028
:1044F00000233B610023FB607B681B6803F0010322
:10450000002B7DD00023FB754F4BDB6903F08053FC
:10451000002B0DD14C4BDB694B4A43F08053D361E8
:10452000494BDB6903F08053BB60BB680123FB751B
:10453000464B1B6803F48073002B18D1434B1B6858
:10454000424A43F480731360FCF798FE386108E038
:10455000FCF794FE02463B69D31A642B01D903236E
:104560006DE03A4B1B6803F48073002BF0D0364BA0
:104570001B6A03F44073FB60FB68002B2ED07B6842
:104580005B6803F44073FA689A4227D02E4B1B6A8B
:1045900023F44073FB602E4B01221A602C4B002247
:1045A0001A60294AFB681362FB6803F00103002BC1
:1045B00014D0FCF763FE38610AE0FCF75FFE0246A8
:1045C0003B69D31A41F28832934201D9032336E082
:1045D0001D4B1B6A03F00203002BEED01A4B1B6A23
:1045E00023F440727B685B68174913430B62FB7DC1
:1045F000012B05D1144BDB69134A23F08053D3619F
:104600007B681B6803F00203002B08D00E4B5B682D
:1046100023F440427B689B680B4913434B607B68E3
:104620001B6803F01003002B08D0074B5B6823F4D2
:1046300080027B68DB68044913434B600023184603
:104640001837BD4680BD00BF00100240007000401A
:104650004004424280B582B000AF78607B68002B96
:1046600001D101231DE07B6893F83D30DBB2002BC4
:1046700006D17B68002283F83C20786800F015F8AA
:104680007B68022283F83D207B681A687B680433CC
:104690001946104600F062F97B68012283F83D203C
:1046A000002318460837BD4680BD80B483B000AFF4
:1046B000786000BF0C37BD4680BC704780B485B0C1
:1046C00000AF78607B681B68DA687B681B6842F023
:1046D0000102DA607B681B689B6803F00703FB60DC
:1046E000FB68062B07D07B681B681A687B681B6811
:1046F00042F001021A60002318461437BD4680BC00
:10470000704780B582B000AF78607B681B681B691A
:1047100003F00203022B22D17B681B68DB6803F0E5
:104720000203022B1BD17B681B686FF002021A6127
:104730007B6801221A777B681B689B6903F003037F
:10474000002B03D0786800F0EDF805E0786800F001
:10475000E0F8786800F0EFF87B6800221A777B6851
:104760001B681B6903F00403042B22D17B681B68C0
:10477000DB6803F00403042B1BD17B681B686FF01C
:1047800004021A617B6802221A777B681B689B69A6
:1047900003F44073002B03D0786800F0C3F805E001
:1047A000786800F0B6F8786800F0C5F87B680022F9
:1047B0001A777B681B681B6903F00803082B22D15A
:1047C0007B681B68DB6803F00803082B1BD17B6840
:1047D0001B686FF008021A617B6804221A777B68F5
:1047E0001B68DB6903F00303002B03D0786800F03B
:1047F00099F805E0786800F08CF8786800F09BF88C
:104800007B6800221A777B681B681B6903F0100322
:10481000102B22D17B681B68DB6803F01003102B80
:104820001BD17B681B686FF010021A617B6808223D
:104830001A777B681B68DB6903F44073002B03D095
:10484000786800F06FF805E0786800F062F8786842
:1048500000F071F87B6800221A777B681B681B697F
:1048600003F00103012B0ED17B681B68DB6803F0AA
:104870000103012B07D17B681B686FF001021A61ED
:104880007868FCF765FA7B681B681B6903F0800396
:10489000802B0ED17B681B68DB6803F08003802BC4
:1048A00007D17B681B686FF080021A61786800F09E
:1048B000C0F87B681B681B6903F04003402B0ED1D6
:1048C0007B681B68DB6803F04003402B07D17B68E3
:1048D0001B686FF040021A61786800F035F87B6859
:1048E0001B681B6903F02003202B0ED17B681B681B
:1048F000DB6803F02003202B07D17B681B686FF077
:1049000020021A61786800F08BF800BF0837BD46B6
:1049100080BD80B483B000AF786000BF0C37BD4667
:1049200080BC704780B483B000AF786000BF0C37A4
:10493000BD4680BC704780B483B000AF786000BFD4
:104940000C37BD4680BC704780B483B000AF786040
:1049500000BF0C37BD4680BC7047000080B485B0F6
:1049600000AF786039607B681B68FB607B68294A10
:1049700093420BD07B68B3F1804F07D07B68264A07
:10498000934203D07B68254A934208D1FB6823F009
:104990007003FB603B685B68FA681343FB607B68ED
:1049A0001C4A93420BD07B68B3F1804F07D07B68E1
:1049B000194A934203D07B68184A934208D1FB6896
:1049C00023F44073FB603B68DB68FA681343FB60C9
:1049D000FB6823F080023B685B691343FB607B68E4
:1049E000FA681A603B689A687B68DA623B681A6802
:1049F0007B689A627B68074A934203D13B681A69D5
:104A00007B681A637B6801225A6100BF1437BD4678
:104A100080BC7047002C01400004004000080040AA
:104A200080B483B000AF786000BF0C37BD4680BC57
:104A3000704780B483B000AF786000BF0C37BD46CC
:104A400080BC7047002103E00B4B5B58435004319E
:104A50000A480B4B42189A42F6D30A4A02E0002356
:104A600042F8043B084B9A42F9D3FCF7ABFB01F048
:104A700015FBFBF78FFC70478461000800000020E5
:104A80001000002010000020601D0020FEE780B410
:104A900083B000AF78607B6803F108027B685A60DE
:104AA0007B684FF0FF329A607B6803F108027B68F5
:104AB000DA607B6803F108027B681A617B68002278
:104AC0001A6000BF0C37BD4680BC704780B483B00D
:104AD00000AF78607B6800221A6100BF0C37BD46CA
:104AE00080BC704780B485B000AF786039607B6867
:104AF0005B68FB603B68FA685A60FB689A683B68D1
:104B00009A60FB689B683A685A60FB683A689A60EA
:104B10003B687A681A617B681B685A1C7B681A605C
:104B200000BF1437BD4680BC704780B485B000AF6D
:104B3000786039603B681B68BB60BB68B3F1FF3FBE
:104B400003D17B681B69FB600CE07B680833FB606A
:104B500002E0FB685B68FB60FB685B681B68BA6827
:104B60009A42F6D2FB685A683B685A603B685B68B9
:104B70003A689A603B68FA689A60FB683A685A60DB
:104B80003B687A681A617B681B685A1C7B681A60EC
:104B900000BF1437BD4680BC704780B485B000AFFD
:104BA00078607B681B69FB607B685B687A689268E9
:104BB0009A607B689B687A6852685A60FB685B6899
:104BC0007A689A4203D17B689A68FB685A607B686E
:104BD00000221A61FB681B685A1EFB681A60FB689A
:104BE0001B6818461437BD4680BC704780B58EB030
:104BF00004AFF860B9607A603B607B6B002B09D131
:104C00004FF0500383F31188BFF36F8FBFF34F8FC3
:104C10003B62FEE7BB6B002B09D14FF0500383F3DF
:104C20001188BFF36F8FBFF34F8FFB61FEE75423F3
:104C30003B613B69542B09D04FF0500383F311883B
:104C4000BFF36F8FBFF34F8FBB61FEE7BB6B002BD2
:104C50001ED07B6B002B1BD0BB6B7B627B6A7A6B9D
:104C60001A637B6A022283F85120002303937B6A34
:104C7000029307F1140301933B6B00933B687A683E
:104C8000B968F86800F050F8786A00F0CBF801E0F5
:104C900000237B617B6918462837BD4680BD80B5FF
:104CA0008CB004AFF860B9603B601346FB80FB88B2
:104CB0009B00184601F01EF878617B69002B0ED02E
:104CC000542001F017F8F861FB69002B03D0FB6951
:104CD0007A691A6305E0786901F0CEF801E00023F3
:104CE000FB61FB69002B17D0FB69002283F8512080
:104CF000FA8800230393FB690293FB6A0193BB6A62
:104D000000933B68B968F86800F00EF8F86900F0A5
:104D100089F80123BB6102E04FF0FF33BB61BB693F
:104D200018462037BD4680BD80B588B000AFF8601A
:104D3000B9607A603B603B6B1A6B7B6803F1804320
:104D4000013B9B001344BB61BB6923F00703BB61BC
:104D5000BB6903F00703002B09D04FF0500383F326
:104D60001188BFF36F8FBFF34F8F7B61FEE7002386
:104D7000FB6112E0BA68FB69134419783A6BFB696E
:104D8000134434330A461A70BA68FB6913441B781B
:104D9000002B06D0FB690133FB61FB690F2BE9D9BE
:104DA00000E000BF3B6B002283F84320BB6A062B68
:104DB00001D90623BB623B6BBA6ADA623B6BBA6A03
:104DC0005A643B6B00229A643B6B04331846FFF72E
:104DD0007DFE3B6B18331846FFF778FE3B6B3A6B52
:104DE0001A61BB6AC3F107023B6B9A613B6B3A6B7A
:104DF0005A623B6B0022DA643B6B002283F850203E
:104E00003A68F968B86900F095FD02463B6B1A6094
:104E1000FB6A002B02D0FB6A3A6B1A6000BF203796
:104E2000BD4680BD80B582B000AF786000F06CFEFA
:104E30002A4B1B680133294A1360294B1B68002B3E
:104E400009D1274A7B681360244B1B68012B10D1C2
:104E500000F04CFC0DE0234B1B68002B09D1204BCC
:104E60001B68DA6A7B68DB6A9A4202D81C4A7B6854
:104E700013601D4B1B6801331B4A13607B68DB6AA0
:104E800001229A40194B1B681343184A13607B6830
:104E9000DA6A13469B0013449B00154A1A447B6848
:104EA000043319461046FFF71DFE00F05BFE0D4B64
:104EB0001B68002B0ED00A4B1B68DA6A7B68DB6A22
:104EC0009A4207D20B4B4FF080521A60BFF34F8FBC
:104ED000BFF36F8F00BF0837BD4680BD9803002029
:104EE00098020020A4030020B4030020A0030020A7
:104EF0009C02002004ED00E080B58AB000AF78602D
:104F0000396000237B627B68002B09D14FF050038E
:104F100083F31188BFF36F8FBFF34F8F7B61FEE781
:104F20003B68002B09D14FF0500383F31188BFF386
:104F30006F8FBFF34F8F3B61FEE7294B1B68002B40
:104F400009D04FF0500383F31188BFF36F8FBFF385
:104F50004F8FFB60FEE700F0E3F9224B1B683B62DA
:104F60007B681B683A681344FB617B681B683A6A7C
:104F70009A420BD27B681B68FA699A4211D2FA698D
:104F80003B6A9A420DD901237B620AE07B681B6869
:104F9000FA699A4203D3FA693B6A9A4201D901231A
:104FA0007B627B68FA691A607B6A002B06D0FA691B
:104FB0003B6AD31A0021184600F056FC00F0BEF9F7
:104FC000B861BB69002B07D1074B4FF080521A60C4
:104FD000BFF34F8FBFF36F8F00BF2837BD4680BD33
:104FE000C00300209C03002004ED00E080B584B0E5
:104FF00000AF786000F088FD7B68002B02D13C4B4D
:105000001B6800E07B68FB60FB6804331846FFF711
:10501000C4FD0346002B15D1FB68DA6A35491346F7
:105020009B0013449B000B441B68002B0AD1FB68B8
:10503000DB6A012202FA03F3DA432F4B1B681340A9
:105040002D4A1360FB689B6A002B04D0FB68183361
:105050001846FFF7A2FDFB68043319462748FFF7FF
:1050600041FDFB6893F85030DBB2012B03D1FB68A4
:10507000002283F8502000F075FD214B1B68002BA7
:1050800005D000F041FD00F0CBFB00F06BFD184BAC
:105090001B68FA689A4226D1194B1B68002B16D060
:1050A000184B1B68002B09D04FF0500383F3118875
:1050B000BFF36F8FBFF34F8FBB60FEE7124B4FF014
:1050C00080521A60BFF34F8FBFF36F8F0BE00B4B13
:1050D0001A680E4B1B689A4203D1054B00221A60D6
:1050E00001E000F091FA00BF1037BD4680BD00BF5F
:1050F000980200209C020020A003002084030020CE
:10510000A4030020C003002004ED00E09803002069
:1051100080B487B000AF786000237B617B683B611F
:105120007B68002B09D14FF0500383F31188BFF344
:105130006F8FBFF34F8FFB60FEE73B695B690F4AE0
:10514000934201D1012300E00023002B0FD03B69E3
:105150009B6A0B4A93420AD03B699B6A002B01D1A0
:10516000012300E00023002B01D001237B617B6938
:1051700018461C37BD4680BC704700BF8403002022
:105180005803002080B58AB000AF786000237B62AE
:105190007B683B627B68002B09D14FF0500383F39F
:1051A0001188BFF36F8FBFF34F8FBB61FEE700F035
:1051B00065FDEFF311824FF0500383F31188BFF3C5
:1051C0006F8FBFF34F8F7A613B617B69FB61386AF8
:1051D000FFF79EFF0346002B2FD01D4B1B68002BB3
:1051E00025D13B6ADA6A1B4B1B68DB6A9A4201D302
:1051F00001237B623B6A04331846FFF7CEFC3B6A0F
:10520000DB6A01229A40144B1B681343124A136055
:105210003B6ADA6A13469B0013449B000F4A1A4408
:105220003B6A043319461046FFF75CFC05E03B6A15
:10523000183319460A48FFF755FCFB69FB60FB6809
:1052400083F311887B6A18462837BD4680BD00BFAE
:10525000C003002098020020A00300209C02002030
:105260005803002080B58AB004AF0023BB60002340
:105270007B603A46391D07F108031846FBF772F8C0
:1052800039687B68BA680292019300230093002377
:105290000A461D491D48FFF7A9FC02461C4B1A602F
:1052A0001B4B1B68002B02D001237B6101E0002314
:1052B0007B617B69012B15D14FF0500383F311887B
:1052C000BFF36F8FBFF34F8F3B61124B4FF0FF3235
:1052D0001A60114B01221A60104B00221A6000F074
:1052E000A3FB0DE07B69B3F1FF3F09D14FF0500301
:1052F00083F31188BFF36F8FBFF34F8FFB60FEE71F
:1053000000BF1837BD4680BD5C610008BD5600086F
:10531000BC030020B8030020A40300209C0300204D
:1053200080B400AF044B1B680133034A136000BF15
:10533000BD4680BC704700BFC003002080B584B06C
:1053400000AF0023FB600023BB60414B1B68002BB8
:1053500009D14FF0500383F31188BFF36F8FBFF370
:105360004F8F3B60FEE700F0CFFB394B1B68013BE2
:10537000374A1360364B1B68002B61D1354B1B68D5
:10538000002B5DD02EE0344BDB68DB68FB60FB68F4
:1053900018331846FFF701FCFB6804331846FFF783
:1053A000FCFBFB68DB6A01229A402C4B1B68134311
:1053B0002A4A1360FB68DA6A13469B0013449B0079
:1053C000274A1A44FB68043319461046FFF78AFB44
:1053D000FB68DA6A234B1B68DB6A9A4202D3224BD2
:1053E00001221A601C4B1B68002BCCD1FB68002BE0
:1053F00001D000F015FA1D4B1B687B607B68002B09
:1054000010D000F045F80346002B02D0164B0122C5
:105410001A607B68013B7B607B68002BF1D1134BEA
:1054200000221A60104B1B68002B09D00123BB60BF
:105430000F4B4FF080521A60BFF34F8FBFF36F8F47
:1054400000F090FBBB6818461037BD4680BD00BF1A
:10545000C00300209803002058030020A003002070
:105460009C02002098020020AC030020A80300202A
:1054700004ED00E080B483B000AF044B1B687B6098
:105480007B6818460C37BD4680BC70479C030020E3
:1054900080B586B000AF00237B61504B1B68002BAA
:1054A00040F08C804E4B1B6801333B614C4A3B699A
:1054B00013603B69002B1FD14A4B1B681B68002BF4
:1054C00009D04FF0500383F31188BFF36F8FBFF300
:1054D0004F8F3B60FEE7434B1B68FB60424B1B68F2
:1054E000404A1360404AFB681360404B1B6801331D
:1054F0003E4A136000F094F93D4B1B683A699A42AA
:105500004DD3384B1B681B68002B01D1012300E0F1
:105510000023002B04D0364B4FF0FF321A603EE0E0
:10552000304B1B68DB68DB68BB60BB685B687B601B
:105530003A697B689A4203D22D4A7B6813602EE059
:10554000BB6804331846FFF728FBBB689B6A002B37
:1055500004D0BB6818331846FFF71FFBBB68DB6A33
:1055600001229A40234B1B681343224A1360BB68F5
:10557000DA6A13469B0013449B001F4A1A44BB6817
:10558000043319461046FFF7ADFABB68DA6A1B4BC5
:105590001B68DB6A9A42B4D301237B61B1E7174BE6
:1055A0001B68DA6A144913469B0013449B000B44A2
:1055B0001B68012B07D901237B6104E0104B1B689A
:1055C00001330F4A13600F4B1B68002B01D00123DE
:1055D0007B617B6918461837BD4680BDC00300203B
:1055E0009C0300205003002054030020B00300203F
:1055F000B8030020A00300209C0200209802002095
:10560000A8030020AC03002080B487B000AF264B75
:105610001B68002B03D0254B01221A603EE0234B70
:1056200000221A60224B1B68FB60FB68B3FA83F30D
:10563000FB72FB7AC3F11F037B611E497A69134633
:105640009B0013449B000B441B68002B09D14FF0B7
:10565000500383F31188BFF36F8FBFF34F8F7B60CD
:10566000FEE77A6913469B0013449B00114A1344DA
:105670003B613B695B685A683B695A603B695A68A1
:105680003B6908339A4204D13B695B685A683B69BD
:105690005A603B695B68DB68074A136000BF1C37D0
:1056A000BD4680BC704700BFC0030020AC03002093
:1056B000A00300209C0200209802002080B582B048
:1056C00000AF786000F052F8064B1B68012BF9D947
:1056D000054B4FF080521A60BFF34F8FBFF36F8FAF
:1056E000F0E700BF9C02002004ED00E080B582B02E
:1056F00000AF00237B600CE07A6813469B001344E4
:105700009B00124A13441846FFF7C1F97B68013326
:105710007B607B68062BEFD90D48FFF7B8F90D4881
:10572000FFF7B5F90C48FFF7B2F90C48FFF7AFF9EE
:105730000B48FFF7ACF90B4B054A1A600A4B054AB8
:105740001A6000BF0837BD4680BD00BF9C02002024
:10575000280300203C030020580300206C03002095
:1057600084030020500300205403002080B582B041
:1057700000AF19E000F0C8F90F4BDB68DB687B6015
:105780007B6804331846FFF708FA0C4B1B68013B93
:105790000A4A13600A4B1B68013B094A136000F078
:1057A000E1F9786800F00EF8054B1B68002BE1D199
:1057B00000BF0837BD4680BD6C0300209803002061
:1057C0008003002080B584B000AF78607B6893F8D8
:1057D0005130002B08D17B681B6B184600F04CFB46
:1057E000786800F049FB17E07B6893F85130012B93
:1057F00003D1786800F040FB0EE07B6893F85130ED
:10580000022B09D04FF0500383F31188BFF36F8F41
:10581000BFF34F8FFB60FEE700BF1037BD4680BD72
:1058200080B483B000AF0E4B1B681B68002B01D106
:10583000012300E00023002B04D00A4B4FF0FF327D
:105840001A6008E0064B1B68DB68DB687B607B68DE
:105850005B68044A136000BF0C37BD4680BC7047CC
:1058600050030020B803002080B584B000AF7860FA
:105870003960294B1B68FB60284B1B6804331846B2
:10588000FFF78BF90346002B0BD1244B1B68DB6A17
:10589000012202FA03F3DA43214B1B681340204A2A
:1058A00013607B68B3F1FF3F0AD13B68002B07D040
:1058B0001A4B1B68043319461A48FFF713F926E000
:1058C000FA687B681344BB60144B1B68BA685A6063
:1058D000BA68FB689A4209D2134B1A680F4B1B68CF
:1058E000043319461046FFF720F910E00F4B1A68F1
:1058F0000A4B1B68043319461046FFF716F90C4B88
:105900001B68BA689A4202D2094ABB68136000BF9A
:105910001037BD4680BD00BF9C03002098020020C8
:10592000A003002084030020540300205003002023
:10593000B803002080B485B000AFF860B9607A6029
:10594000FB68043BFB60FB684FF080721A60FB68E9
:10595000043BFB60BB6823F00102FB681A60FB6834
:10596000043BFB60084AFB681A60FB68143BFB6061
:105970007A68FB681A60FB68203BFB60FB6818468E
:105980001437BD4680BC70478D59000880B485B07F
:1059900000AF00237B60104B1B68B3F1FF3F09D0C1
:1059A0004FF0500383F31188BFF36F8FBFF34F8F16
:1059B000FB60FEE74FF0500383F31188BFF36F8F56
:1059C000BFF34F8FBB6000BF7B68002BFCD000BFD4
:1059D0001437BD4680BC70470C000020000000005A
:1059E000074B19680868B0E8F00F80F30988BFF327
:1059F0006F8F4FF0000080F311884EF00D0E70474E
:105A00009802002000BF00BF06480068006880F3CD
:105A1000088862B661B6BFF34F8FBFF36F8F00DFA8
:105A200000BF00BF08ED00E080B584B000AF314B8F
:105A3000FB60FB681B78DBB27B60FB68FF221A709F
:105A4000FB681B78DBB2FB70FB78DBB203F0500322
:105A5000DAB2294B1A70294B07221A6009E0274B4A
:105A60001B68013B254A1360FB78DBB25B00DBB2AD
:105A7000FB70FB78DBB203F08003802BEFD01F4B71
:105A80001B68C3F10703042B09D04FF0500383F3C5
:105A90001188BFF36F8FBFF34F8FBB60FEE7174BCB
:105AA0001B681B02154A1360144B1B6803F4E06368
:105AB000124A13607B68DAB2FB681A70104B1B68DD
:105AC0000F4A43F4700313600D4B1B680C4A43F0FC
:105AD0007043136000F0B0F80A4B00221A60FFF721
