:020000040800F2
:1000000000500020C9540008F91F0008052000080E
:100010000B20000811200008172000080000000035
:1000200000000000000000000000000091660008D1
:100030001D2000080000000011690008596900082F
:1000400011550008115500081155000811550008F8
:1000500011550008115500081155000811550008E8
:1000600011550008115500081155000829200008F5
:1000700011550008115500081155000811550008C8
:100080001155000811550008115500083D200008C1
:10009000512000086520000879200008115500084B
:1000A000115500088D200008115500081155000851
:1000B0001155000811550008115500081155000888
:1000C0001155000811550008115500081155000878
:1000D0001155000811550008115500081155000868
:1000E00011550008115500081155000800000000C6
:1000F0000000000000000000000000000000000000
:0C01000000000000000000005FF808F1A3
:1001100010B5054C237833B9044B13B10448AFF341
:1001200000800123237010BD10000020000000009B
:100130003484000808B5034B1BB103490348AFF3EF
:10014000008008BD00000000140000203484000876
:10015000F0B400EB4003DFF8800000EBC30000F1D7
:1001600018063069F768756887422ED3B368DC1BC0
:10017000631E934212D37D19D01900BF11F8013BC1
:1001800005F8013B013A05D011F8013B05F8013BA8
:10019000013AF3D1F0600120F0BC7047C0189042E2
:1001A00017D37819121B11F8013B00F8013B013CF1
:1001B000F9D1141C05D011F8013B05F8013B013AB7
:1001C000F9D1F4600120F0BC7047C01B01389042A7
:1001D000D1D20020F0BC70470823002081F00041FC
:1001E00002E000BF83F0004330B54FEA41044FEA1C
:1001F000430594EA050F08BF90EA020F1FBF54EAB7
:10020000000C55EA020C7FEA645C7FEA655C00F052
:10021000E2804FEA5454D4EB5555B8BF6D420CDD23
:100220002C4480EA020281EA030382EA000083EAA6
:10023000010180EA020281EA0303362D88BF30BD46
:1002400011F0004F4FEA01314FF4801C4CEA11319C
:1002500002D0404261EB410113F0004F4FEA0333FB
:100260004CEA133302D0524263EB430394EA050F86
:1002700000F0A780A4F10104D5F1200E0DDB02FAF5
:100280000EFC22FA05F2801841F1000103FA0EF289
:10029000801843FA05F359410EE0A5F120050EF14F
:1002A000200E012A03FA0EFC28BF4CF0020C43FA80
:1002B00005F3C01851EBE37101F0004507D54FF08D
:1002C000000EDCF1000C7EEB00006EEB0101B1F5DD
:1002D000801F1BD3B1F5001F0CD349085FEA300023
:1002E0004FEA3C0C04F101044FEA445212F5800F2E
:1002F00080F09A80BCF1004F08BF5FEA500C50F1CB
:10030000000041EB045141EA050130BD5FEA4C0CAD
:10031000404141EB010111F4801FA4F10104E9D136
:1003200091F0000F04BF01460020B1FA81F308BF2D
:100330002033A3F10B03B3F120020CDA0C3208DDF9
:1003400002F1140CC2F10C0201FA0CF021FA02F1D4
:100350000CE002F11402D8BFC2F1200C01FA02F144
:1003600020FA0CFCDCBF41EA0C019040E41AA2BF69
:1003700001EB0451294330BD6FEA04041F3C1CDA31
:100380000C340EDC04F11404C4F1200220FA04F051
:1003900001FA02F340EA030021FA04F345EA0301FB
:1003A00030BDC4F10C04C4F1200220FA02F001FABD
:1003B00004F340EA0300294630BD21FA04F029463F
:1003C00030BD94F0000F83F4801306BF81F48011D8
:1003D0000134013D4EE77FEA645C18BF7FEA655C4B
:1003E00029D094EA050F08BF90EA020F05D054EA1D
:1003F000000C04BF1946104630BD91EA030F1EBF22
:100400000021002030BD5FEA545C05D14000494125
:1004100028BF41F0004130BD14F580043CBF01F518
:10042000801130BD01F0004545F0FE4141F47001FE
:100430004FF0000030BD7FEA645C1ABF19461046D9
:100440007FEA655C1CBF0B46024650EA013406BFDA
:1004500052EA033591EA030F41F4002130BD00BF99
:1004600090F0000F04BF0021704730B54FF4806456
:1004700004F132044FF000054FF0000150E700BFD7
:1004800090F0000F04BF0021704730B54FF4806436
:1004900004F1320410F0004548BF40424FF0000123
:1004A0003EE700BF42004FEAE2014FEA31014FEA66
:1004B00002701FBF12F07F4393F07F4F81F06051B5
:1004C000704732F07F4208BF704793F07F4F04BF00
:1004D00041F40021704730B54FF4607401F00045DD
:1004E00021F000411CE700BF50EA010208BF70473D
:1004F00030B54FF000050AE050EA010208BF70472E
:1005000030B511F0004502D5404261EB41014FF496
:10051000806404F132045FEA915C3FF4D8AE4FF09E
:1005200003025FEADC0C18BF03325FEADC0C18BF81
:10053000033202EBDC02C2F1200300FA03FC20FAD2
:1005400002F001FA03FE40EA0E0021FA02F114441F
:10055000BDE600BF70B54FF0FF0C4CF4E06C1CEA38
:1005600011541DBF1CEA135594EA0C0F95EA0C0FA9
:1005700000F0DEF82C4481EA030621EA4C5123EA1C
:100580004C5350EA013518BF52EA033541F480114B
:1005900043F4801338D0A0FB02CE4FF00005E1FBFE
:1005A00002E506F00042E0FB03E54FF00006E1FB48
:1005B00003569CF0000F18BF4EF0010EA4F1FF048B
:1005C000B6F5007F64F5407404D25FEA4E0E6D41CB
:1005D00046EB060642EAC62141EA55514FEAC520DC
:1005E00040EA5E504FEACE2EB4F1FD0C88BFBCF558
:1005F000E06F1ED8BEF1004F08BF5FEA500E50F109
:10060000000041EB045170BD06F0004646EA0101CE
:1006100040EA020081EA0301B4EB5C04C2BFD4EB00
:100620000C0541EA045170BD41F480114FF0000EF9
:10063000013C00F3AB8014F1360FDEBF002001F067
:10064000004170BDC4F10004203C35DA0C341BDCE1
:1006500004F11404C4F1200500FA05F320FA04F0B3
:1006600001FA05F240EA020001F0004221F00041E7
:1006700010EBD37021FA04F642EB06015EEA430E5A
:1006800008BF20EAD37070BDC4F10C04C4F120058A
:1006900000FA04F320FA05F001FA04F240EA02003D
:1006A00001F0004110EBD37041F100015EEA430E0E
:1006B00008BF20EAD37070BDC4F1200500FA05F22E
:1006C0004EEA020E20FA04F301FA05F243EA0203AD
:1006D00021FA04F001F0004121FA04F220EA0200BC
:1006E00000EBD3705EEA430E08BF20EAD37070BD02
:1006F00094F0000F0FD101F00046400041EB0101E2
:1007000011F4801F08BF013CF7D041EA060195F0C3
:10071000000F18BF704703F00046520043EB03037D
:1007200013F4801F08BF013DF7D043EA060370476A
:1007300094EA0C0F0CEA135518BF95EA0C0F0CD075
:1007400050EA410618BF52EA4306D1D181EA0301BB
:1007500001F000414FF0000070BD50EA410606BFB5
:100760001046194652EA430619D094EA0C0F02D1FA
:1007700050EA013613D195EA0C0F05D152EA03363F
:100780001CBF104619460AD181EA030101F000415D
:1007900041F0FE4141F470014FF0000070BD41F0A6
:1007A000FE4141F4780170BD70B54FF0FF0C4CF480
:1007B000E06C1CEA11541DBF1CEA135594EA0C0F9F
:1007C00095EA0C0F00F0A7F8A4EB050481EA030EEC
:1007D00052EA03354FEA013100F088804FEA0333D3
:1007E0004FF0805545EA131343EA12634FEA0222A1
:1007F00045EA111545EA10654FEA00260EF0004162
:100800009D4208BF964244F1FD0404F5407402D2B3
:100810005B084FEA3202B61A65EB03055B084FEA44
:1008200032024FF480104FF4002CB6EB020E75EB41
:10083000030E22BFB61A754640EA0C005B084FEA69
:100840003202B6EB020E75EB030E22BFB61A7546E6
:1008500040EA5C005B084FEA3202B6EB020E75EB31
:10086000030E22BFB61A754640EA9C005B084FEAA9
:100870003202B6EB020E75EB030E22BFB61A7546B6
:1008800040EADC0055EA060E18D04FEA051545EAA5
:1008900016754FEA06164FEAC30343EA52734FEA4E
:1008A000C2025FEA1C1CC0D111F4801F0BD141EAC7
:1008B00000014FF000004FF0004CB6E711F4801F2C
:1008C00004BF01430020B4F1FD0C88BFBCF5E06F0C
:1008D0003FF6AFAEB5EB030C04BFB6EB020C5FEA1C
:1008E000500C50F1000041EB045170BD0EF0004E71
:1008F0004EEA113114EB5C04C2BFD4EB0C0541EAA3
:10090000045170BD41F480114FF0000E013C90E69F
:1009100045EA060E8DE60CEA135594EA0C0F08BF63
:1009200095EA0C0F3FF43BAF94EA0C0F0AD150EA62
:1009300001347FF434AF95EA0C0F7FF425AF1046F5
:1009400019462CE795EA0C0F06D152EA03353FF41D
:10095000FDAE1046194622E750EA410618BF52EA9A
:1009600043067FF4C5AE50EA41047FF40DAF52EA6E
:1009700043057FF4EBAE12E74FEA4102B2F1E043E8
:1009800024BFB3F5001CDCF1FE5C0DD901F0004C76
:100990004FEAC0024CEA5070B2F1004F40EB8300C6
:1009A00008BF20F00100704711F0804F21D113F1F2
:1009B0003872BCBF01F00040704741F480114FEA2B
:1009C0005252C2F11802C2F1200C10FA0CF320FAB4
:1009D00002F018BF40F001004FEAC1234FEAD323D1
:1009E00003FA0CFC40EA0C0023FA02F34FEA43033B
:1009F000CCE77FEA625307D150EA01331EBF4FF0C4
:100A0000FE4040F44000704701F0004040F0FE40DE
:100A100040F40000704700BF80F0004002E000BFDB
:100A200081F0004142001FBF5FEA410392EA030FD9
:100A30007FEA226C7FEA236C6AD04FEA1262D2EB23
:100A40001363C1BFD218414048404140B8BF5B4228
:100A5000192B88BF704710F0004F40F4000020F0C1
:100A60007F4018BF404211F0004F41F4000121F0D7
:100A70007F4118BF494292EA030F3FD0A2F1010221
:100A800041FA03FC10EB0C00C3F1200301FA03F15F
:100A900000F0004302D5494260EB4000B0F5000F82
:100AA00013D3B0F1807F06D340084FEA310102F141
:100AB0000102FE2A51D2B1F1004F40EBC25008BFF3
:100AC00020F0010040EA03007047490040EB0000BD
:100AD00010F4000FA2F10102EDD1B0FA80FCACF1EC
:100AE000080CB2EB0C0200FA0CF0AABF00EBC250EB
:100AF00052421843BCBFD0401843704792F0000FD9
:100B000081F4000106BF80F400000132013BB5E72B
:100B10004FEA41037FEA226C18BF7FEA236C21D0A1
:100B200092EA030F04D092F0000F08BF0846704706
:100B300090EA010F1CBF0020704712F07F4F04D1D4
:100B4000400028BF40F00040704712F100723CBFE7
:100B500000F50000704700F0004343F0FE4040F411
:100B6000000070477FEA226216BF08467FEA2363CF
:100B70000146420206BF5FEA412390EA010F40F4BA
:100B8000800070474FF0000304E000BF10F0004306
:100B900048BF40425FEA000C08BF704743F09643ED
:100BA00001464FF000001CE050EA010208BF704708
:100BB0004FF000030AE000BF50EA010208BF70478F
:100BC00011F0004302D5404261EB41015FEA010CA4
:100BD00002BF84460146002043F0B64308BFA3F19C
:100BE0008053A3F50003BCFA8CF2083AA3EBC2537E
:100BF00010DB01FA02FC634400FA02FCC2F120029D
:100C0000BCF1004F20FA02F243EB020008BF20F0D3
:100C10000100704702F1200201FA02FCC2F1200239
:100C200050EA4C0021FA02F243EB020008BF20EA2E
:100C3000DC7070474FF0FF0C1CEAD0521EBF1CEA5C
:100C4000D15392EA0C0F93EA0C0F6FD01A4480EA4A
:100C5000010C400218BF5FEA41211ED04FF0006333
:100C600043EA501043EA5111A0FB01310CF000405F
:100C7000B1F5000F3EBF490041EAD3715B0040EA85
:100C8000010062F17F02FD2A1DD8B3F1004F40EB55
:100C9000C25008BF20F00100704790F0000F0CF028
:100CA000004C08BF49024CEA502040EA51207F3AEC
:100CB000C2BFD2F1FF0340EAC250704740F40000C7
:100CC0004FF00003013A5DDC12F1190FDCBF00F0B8
:100CD00000407047C2F10002410021FA02F1C2F166
:100CE000200200FA02FC5FEA310040F1000053EA02
:100CF0004C0308BF20EADC70704792F0000F00F050
:100D0000004C02BF400010F4000F013AF9D040EA55
:100D10000C0093F0000F01F0004C02BF490011F4E9
:100D2000000F013BF9D041EA0C018FE70CEAD153E7
:100D300092EA0C0F18BF93EA0C0F0AD030F0004C67
:100D400018BF31F0004CD8D180EA010000F000401B
:100D5000704790F0000F17BF90F0004F084691F0D9
:100D6000000F91F0004F14D092EA0C0F01D1420213
:100D70000FD193EA0C0F03D14B0218BF084608D1DC
:100D800080EA010000F0004040F0FE4040F4000026
:100D9000704740F0FE4040F4400070474FF0FF0CB9
:100DA0001CEAD0521EBF1CEAD15392EA0C0F93EA00
:100DB0000C0F69D0A2EB030280EA010C49024FEA52
:100DC000402037D04FF0805343EA111143EA10130B
:100DD0000CF000408B4238BF5B0042F17D024FF4C3
:100DE000000C8B4224BF5B1A40EA0C00B3EB510F9E
:100DF00024BFA3EB510340EA5C00B3EB910F24BF87
:100E0000A3EB910340EA9C00B3EBD10F24BFA3EB0B
:100E1000D10340EADC001B0118BF5FEA1C1CE0D1D3
:100E2000FD2A3FF650AF8B4240EBC25008BF20F086
:100E3000010070470CF0004C4CEA50207F32C2BFDA
:100E4000D2F1FF0340EAC250704740F400004FF077
:100E50000003013A37E792F0000F00F0004C02BFA8
:100E6000400010F4000F013AF9D040EA0C0093F072
:100E7000000F01F0004C02BF490011F4000F013BCC
:100E8000F9D041EA0C0195E70CEAD15392EA0C0F34
:100E900008D142027FF47DAF93EA0C0F7FF470AF6C
:100EA000084676E793EA0C0F04D14B023FF44CAFAF
:100EB00008466EE730F0004C18BF31F0004CCAD144
:100EC00030F000427FF45CAF31F000437FF43CAF80
:100ED0005FE700BF42000ED2B2F1FE4F0BD34FF0DE
:100EE0009E03B3EB126209D44FEA002343F00043A0
:100EF00023FA02F070474FF00000704712F1610FC3
:100F000001D1420202D14FF0FF3070474FF0000094
:100F1000704700BF80B485B000AFF860B9607A60F8
:100F2000FB68064A1A60BB68054A1A607B68802223
:100F30001A6000BF1437BD4680BC70472C000020EB
:100F40008000002080B582B002AF62B601F0DCF80C
:100F50004FF4FA6001F00AF900F048F800F08EF959
:100F600000F06EF900F09EF800F006F900F03AF992
:100F7000174B1B68164A43F00103136000F062FA36
:100F800040F20141134801F0B1FF0346002B01D0AC
:100F900000F05CFE0F4801F08BFE0346002B01D0F1
:100FA00000F054FE04220C490C4801F0D9F90C4B16
:100FB000019307230093002380220A490A4804F082
:100FC0007AFC04F015FF012001F0D0F8FBE700BF28
:100FD000001000E010220020A42100204022002068
:100FE000C02200204C8400089114000880B594B001
:100FF00000AF07F1280328220021184607F012FA53
:1010000007F1140300221A605A609A60DA601A61CC
:101010003B1D00221A605A609A60DA600123BB62AD
:101020004FF48033FB6200233B630123BB63022345
:101030007B644FF48033BB644FF4E013FB6407F12F
:101040002803184603F046FB0346002B01D000F0AE
:10105000FDFD0F237B610223BB610023FB614FF485
:1010600080633B6200237B6207F114030221184670
:1010700003F0B0FD0346002B01D000F0E7FD022392
:101080007B604FF40043FB603B1D184603F06EFF8E
:101090000346002B01D000F0D9FD00BF5037BD46FC
:1010A00080BD000080B584B000AF3B1D00221A60F7
:1010B0005A609A602E4B2F4A1A602D4B4FF4807263
:1010C0009A602B4B01221A73294B00221A75284B68
:1010D0004FF46022DA61264B00225A60244B04222E
:1010E0001A61234801F064F80346002B01D000F098
:1010F000ADFD00237B600123BB600623FB603B1D2D
:1011000019461B4801F026FA0346002B01D000F0D7
:101110009DFD01237B600223BB603B1D19461448E3
:1011200001F018FA0346002B01D000F08FFD0823D0
:101130007B600323BB603B1D19460D4801F00AFA92
:101140000346002B01D000F081FD09237B600423BE
:10115000BB603B1D1946064801F0FCF90346002B15
:1011600001D000F073FD00BF1037BD4680BD00BF49
:10117000402200200024014080B500AF174B184AE0
:101180001A60164B09225A60144B00229A60134BC6
:101190000022DA60114B4FF430221A610F4B4FF4EA
:1011A00000125A610D4B00221A760C4B01225A761E
:1011B0000A4B00229A76094B0122DA76074B00226D
:1011C0001A77064B00225A77044801F0ADFB03461C
:1011D000002B01D000F03AFD00BF80BD102200209E
:1011E0000064004080B500AF124B134A1A60114BE7
:1011F000124A5A600F4B00229A600E4B0022DA60AE
:101200000C4B4FF480421A610A4B00225A61094B81
:1012100000229A61074B0022DA61064B80221A6293
:10122000044802F01FFD0346002B01D000F00EFD24
:1012300000BF80BDB021002000580040A086010002
:1012400080B582B000AF0C4B5B690B4A43F00103E1
:101250005361094B5B6903F001037B607B680022EB
:1012600005210B2002F043F90B2002F05CF900BFCE
:101270000837BD4680BD00BF0010024080B588B071
:1012800000AF07F1100300221A605A609A60DA601A
:10129000674B9B69664A43F010039361644B9B69FB
:1012A00003F01003FB60FB68614B9B69604A43F0ED
:1012B000200393615E4B9B6903F02003BB60BB6816
:1012C0005B4B9B695A4A43F004039361584B9B69FB
:1012D00003F004037B607B68554B9B69544A43F0E1
:1012E00008039361524B9B6903F008033B603B6822
:1012F00000224FF400514F4802F083FC00224FF4CB
:1013000080414C4802F07DFC00224FF400414A48E5
:1013100002F077FC00220821484802F072FC00220B
:101320004021464802F06DFC4FF400533B6101231D
:101330007B610023BB610223FB6107F110031946A7
:101340003C4802F0EDFA4FF480433B6101237B619E
:101350000023BB610223FB6107F1100319463548E6
:1013600002F0DEFA4FF400433B6101237B6100236E
:10137000BB610223FB6107F1100319462E4802F0FE
:10138000CFFA4FF480533B612D4B7B610123BB614E
:1013900007F110031946284802F0C2FA00220F2173
:1013A000282002F0A4F8282002F0BDF84FF4807342
:1013B0003B61234B7B610123BB6107F1100319469D
:1013C0001D4802F0ADFA00220F21172002F08FF81D
:1013D000172002F0A8F808233B6101237B6100235A
:1013E000BB610223FB6107F110031946134802F0A9
:1013F00097FA40233B6101237B610023BB610223F9
:10140000FB6107F1100319460C4802F089FA10231A
:101410003B6100237B610023BB6107F11003194688
:10142000064802F07DFA00BF2037BD4680BD00BFF0
:10143000001002400010014000080140000C014073
:101440000000211080B58AB000AF01233B62002369
:101450007B6100233B6100233B6000237B60002312
:10146000BB600023FB600023BB610123FB613B46A3
:101470001946064801F053FB0346002B01D000F04B
:10148000E5FB00BF2837BD4680BD00BF102200200D
:1014900080B584B002AF786003220021012004F0FF
:1014A0004FF902462E4B1A60012004F069FC2D4BC7
:1014B000019304230093002380222B492B4804F03E
:1014C000FAF9012004F05CFC294B019304230093FA
:1014D000002380222749284804F0EDF9012004F078
:1014E0004FFC264B019304230093002380222449C0
:1014F000244804F0E0F9012004F042FC224B01935F
:1015000005230093002380222049214804F0D3F9C9
:10151000012004F035FC1F4B0193042300930023AA
:1015200080221D491D4804F0C6F9012004F028FC62
:101530001B4B0193022300930023802219491A4870
:1015400004F0B9F9194B1B68002B04D0174B1B682A
:10155000184604F0FBFA00BF0837BD4680BD00BF47
:101560000C2200203822002058840008B115000801
:101570000822002060840008811600083C22002018
:101580006C840008F5180008BC220020788400084C
:10159000611A00080422002084840008B51900089C
:1015A000AC2100208C840008C51B0008C02200204C
:1015B00080B592B000AF78604FF47A737B6404F02A
:1015C00023FD0346FB62284B1B88A7F84230274BBC
:1015D000FB63274BBB63B7F842301846FFF7D2FADC
:1015E0000346F96B1846FFF725FB0346B96B18460F
:1015F000FFF718FA03461F491846FFF71BFB03467F
:101600007B63786BFFF766FC03467B867B8E1B0A49
:101610009BB2DBB287F828307B8EDBB287F82930AB
:101620000223FB614FF4CA63FB6000237B6100234C
:10163000BB6107F1240307F1280207F10C010E48F2
:1016400001F07AFB0346002B01D000F0FFFA4FF4C3
:1016500000510A4802F0EDFA07F12C03796C1846A4
:1016600004F010FBAFE700BFA42100203911EC39D2
:101670000DAC1F400000F04110220020001001407E
:10168000B0B59EB000AF786014237B6704F0BCFC5B
:101690000346BB66924B5B88A7F87230914B1B6880
:1016A0001846FEF7FFFE82A3D3E90023FEF752FFA0
:1016B00003460C4625461C46B7F872301846FFF71D
:1016C00061FA03461846FEF7EDFE7BA3D3E900233B
:1016D000FEF740FF02460B4620462946FEF784FDF2
:1016E00003460C4618462146FFF746F902467D4B55
:1016F0001A607D4B1B681846FEF7D4FE70A3D3E931
:101700000023FEF727FF03460C4625461C46B7F884
:1017100072301846FFF736FA03461846FEF7C2FE47
:1017200069A3D3E90023FEF715FF02460B462046C6
:101730002946FEF759FD03460C4618462146FFF799
:101740001BF90246684B1A60684B1B681846FEF787
:10175000A9FE5FA3D3E90023FEF7FCFE03460C4677
:1017600025461C46B7F872301846FFF70BFA0346B9
:101770001846FEF797FE58A3D3E90023FEF7EAFECA
:1017800002460B4620462946FEF72EFD03460C4630
:1017900018462146FFF7F0F80246544B1A60514BA9
:1017A0001B681846FFF796FB0346A7F870304E4BB0
:1017B0001B681846FFF78EFB0346A7F86E304B4BAD
:1017C0001B681846FFF786FB0346A7F86C30B7F88E
:1017D00070301B0A9BB2DBB287F86430B7F8703008
:1017E000DBB287F86530B7F86E301B0A9BB2DBB20C
:1017F00087F86030B7F86E30DBB287F86130B7F841
:101800006C301B0A9BB2DBB287F85C30B7F86C30E7
:10181000DBB287F85D3002233B6540F252633B64E4
:101820000023BB640023FB6407F1580307F1640243
:1018300007F140012E4801F07FFA0346002B01D04A
:1018400000F004FA02233B654FF4CD633B640023B0
:10185000BB640023FB6407F13C0307F1600207F15E
:101860002401234801F068FA0346002B01D000F060
:10187000EDF902233B6540F269633B640023BB64DE
:101880000023FB6407F1200307F15C0207F1080164
:10189000174801F051FA0346002B01D000F0D6F9A9
:1018A00007F16803796F184604F0ECF9F2E600BF1F
:1018B0007F63D54BB6F5EF3F000239556893543F2F
:1018C00001DE0C7BF8FEEF3F00F01F324F78203F27
:1018D000870686A5E5FFEF3F000079F9795AEA3ED1
:1018E000A421002080020020840200208802002021
:1018F0001022002080B590B002AF7860C8237B63CF
:1019000004F082FB03463B6307F128026423009343
:1019100001230821244802F0CDFA97F82830AA2B99
:1019200008D007F1240264230093012308211E48F4
:1019300002F0C0FA07F12C0264230093012308216E
:10194000194802F0B7FA07F12C035A1C64230093DC
:1019500001230821144802F0ADFA64230093012307
:10196000124A0821104802F0A5FA0223BB6140F296
:101970005363BB6000233B6100237B6107F12003BD
:1019800007F12C0207F10801094801F0D5F90346D7
:10199000002B01D000F05AF907F13003796B18469B
:1019A00004F070F9B0E700BFB0210020B822002099
:1019B0001022002080B590B002AF7860C8237B630E
:1019C00004F022FB03463B6307F12C020A23009339
:1019D00001230A211E4802F06DFA97F82C30552B8E
:1019E00008D007F128020A23009301230A2118488E
:1019F00002F060FA0A2300930123164A0A211448D0
:101A000002F058FA0A2300930123134A0A211048CE
:101A100002F050FA0223FB6140F25463FB600023A2
:101A20007B610023BB6107F1240307F10C01094A24
:101A30000A4801F081F90346002B01D000F006F9B5
:101A400007F13003796B184604F01CF9BCE700BFBE
:101A5000B0210020A0210020A12100201022002080
:101A600080B592B000AF7860C8233B6404F0CCFA34
:101A70000346FB6300224FF400414E4802F0C1F8D8
:101A800000237B6418E0002208214B4802F0B9F8DB
:101A90001021494802F09EF80346194607F12C022E
:101AA0007B6C13440A461A7001220821424802F056
:101AB000A8F87B6C01337B647B6C0F2BE3DD012288
:101AC0004FF400413B4802F09CF897F83930002B66
:101AD00046D197F82D305B0097F82E2013445B0019
:101AE00097F82F2013445B0097F8302013445B00D5
:101AF00097F8312013445B0097F8322013449BB2CF
:101B00009B019AB22D4B1A8097F833309BB25B0041
:101B10009AB297F834309BB213449BB25B009AB2EE
:101B200097F835309BB213449BB25B009AB297F89A
:101B300036309BB213449BB25B009AB297F83730B1
:101B40009BB213449BB25B009AB21C4B1B8813449C
:101B50009AB297F838309BB213449AB2174B1A8056
:101B6000164B1B881B0A9BB2DBB287F82830134B3D
:101B70001B88DBB287F829300223FB6140F25163F6
:101B8000FB6000237B610023BB6107F1240307F1A5
:101B9000280207F10C010A4801F0CEF80346002B99
:101BA00001D000F053F807F13C03396C184604F0FB
:101BB00069F85FE700080140000C01407022002036
:101BC0001022002080B58CB000AF78606423FB62E7
:101BD00004F01AFA0346BB620123FB6140F266631C
:101BE000FB6000237B610023BB6107F1240307F145
:101BF0000C010A4A0A4801F09FF80346002B01D065
:101C000000F024F84021074802F013F807F12803F8
:101C1000F96A184604F036F8DEE700BFB822002063
:101C200010220020000C014080B582B000AF786027
:101C30007B681B68044A934201D100F07BFA00BF25
:101C40000837BD4680BD00BF002C014080B400AF06
:101C500000BFBD4680BC704780B584B000AF194B53
:101C60009B69184A43F001039361164B9B6903F08B
:101C70000103BB60BB68134BDB69124A43F080531E
:101C8000D361104BDB6903F080537B607B680022DB
:101C90000F216FF0010001F02AFC0B4B5B68FB6029
:101CA000FB6823F0E063FB60FB6843F00073FB60BC
:101CB000054AFB68536004F07FFD00BF1037BD4646
:101CC00080BD00BF001002400000014080B588B018
:101CD00000AF786007F1100300221A605A609A6022
:101CE000DA607B681B68164A934224D1154BDB6986
:101CF000144A43F48003D361124BDB6903F480037D
:101D0000FB60FB680F4B9B690E4A43F0080393612D
:101D10000C4B9B6903F00803BB60BB684FF4406346
:101D20003B6112237B610323FB6107F1100319461A
:101D3000054801F0F5FD00BF2037BD4680BD00BF5E
:101D40000058004000100240000C014080B58AB0ED
:101D500000AF786007F1180300221A605A609A6099
:101D6000DA607B681B68334A93425FD1324B9B69D0
:101D7000314A43F4007393612F4B9B6903F4007362
:101D80007B617B692C4B9B692B4A43F00403936175
:101D9000294B9B6903F004033B613B69264B9B691C
:101DA000254A43F008039361234B9B6903F0080322
:101DB000FB60FB680323BB610323FB6107F118038E
:101DC00019461E4801F0ACFD0323BB610323FB61F0
:101DD00007F1180319461A4801F0A2FD194B1A4AD7
:101DE0001A60184B00225A60164B00229A60154B5D
:101DF0008022DA60134B4FF480721A61114B4FF45A
:101E000080625A610F4B20229A610E4B0022DA61E8
:101E10000C4801F097FB0346002B01D0FFF716FF9B
:101E20007B68084A1A62074A7B68536200BF2837FA
:101E3000BD4680BD00240140001002400008014062
:101E4000000C0140742200200800024080B58AB0D6
:101E500000AF786007F1140300221A605A609A609C
:101E6000DA607B681B68354A934263D1344BDB6987
:101E7000334A43F00073D361314BDB6903F00073E5
:101E80003B613B692E4B9B692D4A43F008039361EC
:101E90002B4B9B6903F00803FB60FB684FF48073D6
:101EA0007B610023BB610023FB6107F1140319462A
:101EB000244801F035FD4FF400737B610223BB61C0
:101EC00003233B6207F1140319461E4801F028FD65
:101ED0001D4B5B687B627B6A23F4C0437B627B6A39
:101EE00043F0E0637B627B6A43F480437B62164A83
:101EF0007B6A536000220521132001F0F8FA1320B9
:101F000001F011FB00220521142001F0F0FA142049
:101F100001F009FB00220521152001F0E8FA152047
:101F200001F001FB00220521162001F0E0FA162045
:101F300001F0F9FA00BF2837BD4680BD00640040BB
:101F400000100240000C01400000014080B58CB040
:101F500000AF78600023FB620023BB620022796837
:101F6000192001F0C4FA192001F0DDFA1E4B9B691B
:101F70001D4A43F4006393611B4B9B6903F40063A8
:101F8000FB60FB6807F1100207F1140311461846C5
:101F900002F09EFF02F088FFF862FB6A134AA2FB80
:101FA00003239B0C013BBB62114B124A1A60104B7E
:101FB00040F2E732DA600E4ABB6A53600C4B0022F3
:101FC0001A610B4B00229A60094803F085F803461A
:101FD000002B04D1064803F0B3F8034600E00123C8
:101FE00018463037BD4680BD0010024083DE1B43DB
:101FF000C4220020002C014080B400AF00BFBD46C9
:1020000080BC704780B400AFFEE780B400AFFEE74D
:1020100080B400AFFEE780B400AFFEE780B400AF4D
:1020200000BFBD4680BC704780B500AF024801F0DC
:1020300043FB00BF80BD00BF7422002080B500AF0D
:10204000024800F078FF00BF80BD00BF10220020D2
:1020500080B500AF024800F06EFF00BF80BD00BF3A
:102060001022002080B500AF024800F064FF00BFDE
:1020700080BD00BF1022002080B500AF024800F0F4
:102080005AFF00BF80BD00BF1022002080B500AF06
:10209000024803F078F800BF80BD00BFC4220020D2
:1020A00080B400AF154B1B68144A43F00103136062
:1020B000124B5A681149124B13404B600F4B1B686F
:1020C0000E4A23F0847323F4803313600B4B1B6898
:1020D0000A4A23F480231360084B5B68074A23F401
:1020E000FE035360054B4FF41F029A60054B4FF0FF
:1020F00000629A6000BFBD4680BC7047001002407D
:102100000000FFF800ED00E080B500AF084B1B6851
:10211000074A43F010031360032001F0DDF90020AB
:10212000FFF714FFFFF798FD0023184680BD00BF9E
:102130000020024080B400AF054B1B781A46054BC7
:102140001B681344034A136000BFBD4680BC704740
:10215000080000200423002080B400AF024B1B685D
:102160001846BD4680BC70470423002080B584B06B
:1021700000AF7860FFF7F0FFB8607B68FB60FB683A
:10218000B3F1FF3F05D0094B1B781A46FB68134497
:10219000FB6000BFFFF7E0FF0246BB68D31AFA6896
:1021A0009A42F7D800BF1037BD4680BD0800002016
:1021B00080B586B000AF78600023FB7500233B61DB
:1021C0000023BB600023FB607B68002B01D101234F
:1021D000BEE07B689B68002B7B689B6A002B09D163
:1021E0007B680022DA627B68002283F8242078680A
:1021F000FFF7ACFD786800F0F7FA0346FB757B68E3
:102200009B6A03F01003002B40F09980FB7D002BAC
:1022100040F095807B689B6A23F4885323F0020387
:1022200043F002027B689A627B685A687B68DB69CC
:102230001A437B681B7B5B001343BA681343BB6084
:102240007B689B68B3F5807F03D07B689B68012B1C
:1022500002D14FF4807300E000233A6913433B61DD
:102260007B681B7D012B19D17B681B7B002B09D15F
:102270007B689B69013B5A033B69134343F400634A
:102280003B610BE07B689B6A43F020027B689A62AB
:102290007B68DB6A43F001027B68DA627B681B685B
:1022A0005B6823F469417B681B683A690A435A609A
:1022B0007B681B689A68284B13407A681268B96873
:1022C0000B4393607B689B68B3F5807F03D07B688A
:1022D0009B68012B04D17B681B69013B1B05FB60DC
:1022E0007B681B68DB6A23F470017B681B68FA68F3
:1022F0000A43DA627B681B689A68184B1340BA6815
:102300009A420BD17B680022DA627B689B6A23F0D9
:10231000030343F001027B689A6218E07B689B6AC2
:1023200023F0120343F010027B689A627B68DB6A39
:1023300043F001027B68DA620123FB7507E07B68EA
:102340009B6A43F010027B689A620123FB75FB7D58
:1023500018461837BD4680BDFDF7E1FFFE0E1FFF92
:1023600080B586B000AFF860B9607A600023FB7575
:10237000FB681B68644A934204D0FB681B68634A8D
:10238000934206D1604B5B6803F47023002B40F04E
:10239000B380FB6893F82430012B01D10223AEE017
:1023A000FB68012283F82420F86800F0CBF903468B
:1023B000FB75FB7D002B40F09A80FB689B6A23F441
:1023C000706323F0010343F48072FB689A62FB6838
:1023D0001B684E4A934205D14B4B5B6803F4702354
:1023E000002B15D1FB689B6A23F48012FB689A626C
:1023F000FB681B685B6803F48063002B26D0FB68D6
:102400009B6A23F4405343F48052FB689A621DE0B8
:10241000FB689B6A43F48012FB689A62FB681B6846
:10242000394A934204D0FB681B68384A93420DD165
:10243000354B5B6803F48063002B07D0FB689B6A15
:1024400023F4405343F48052FB689A62FB689B6A12
:1024500003F48053002B06D0FB68DB6A23F00602EE
:10246000FB68DA6202E0FB680022DA62FB680022A5
:1024700083F82420FB681B6A254A9A62FB681B6A62
:10248000244ADA62FB681B6A234A1A63FB681B68EA
:102490006FF002021A60FB681B689A68FB681B6891
:1024A00042F480729A60FB68186AFB681B684C33C0
:1024B0001946BA687B6801F09FF8FB681B689B6847
:1024C00003F46023B3F5602F08D1FB681B689A689A
:1024D000FB681B6842F4A0029A600FE0FB681B686F
:1024E0009A68FB681B6842F480129A6006E0FB68F9
:1024F000002283F8242001E00123FB75FB7D1846B0
:102500001837BD4680BD00BF0024014000280140AF
:102510005D280008D9280008F528000880B483B099
:1025200000AF786000BF0C37BD4680BC704780B4F8
:1025300083B000AF786000BF0C37BD4680BC7047E9
:1025400080B483B000AF786000BF0C37BD4680BC5C
:102550007047000080B485B000AF78603960002318
:10256000FB730023BB607B6893F82430012B01D1FF
:102570000223DCE07B68012283F824203B685B684F
:10258000062B1CD87B681B68596B3B685A6813463E
:102590009B001344053B1F2202FA03F3DB4319405F
:1025A0003B6818683B685A6813469B001344053B18
:1025B00000FA03F27B681B680A435A633CE03B68FD
:1025C0005B680C2B1CD87B681B68196B3B685A68CE
:1025D00013469B001344233B1F2202FA03F3DB4301
:1025E00019403B6818683B685A6813469B001344BF
:1025F000233B00FA03F27B681B680A431A631BE063
:102600007B681B68D96A3B685A6813469B00134471
:10261000413B1F2202FA03F3DB4319403B68186871
:102620003B685A6813469B001344413B00FA03F28F
:102630007B681B680A43DA623B681B68092B1CD95C
:102640007B681B68D9683B681A6813465B001344B3
:102650001E3B072202FA03F3DB4319403B689868EC
:102660003B681A6813465B0013441E3B00FA03F2F2
:102670007B681B680A43DA6019E07B681B6819698C
:102680003B681A6813465B001344072202FA03F3FF
:10269000DB4319403B6898683B681A6813465B0047
:1026A000134400FA03F27B681B680A431A613B6813
:1026B0001B68102B03D03B681B68112B32D17B6841
:1026C0001B681D4A934225D17B681B689B6803F4F5
:1026D0000003002B26D17B681B689A687B681B6807
:1026E00042F400029A603B681B68102B1AD1134B0E
:1026F0001B68134AA2FB03239A0C13469B00134446
:102700005B00BB6002E0BB68013BBB60BB68002BA9
:10271000F9D107E07B689B6A43F020027B689A62EC
:102720000123FB737B68002283F82420FB7B18467F
:102730001437BD4680BC70470024014000000020D3
:1027400083DE1B4380B584B000AF78600023FB605C
:102750000023BB607B681B689B6803F00103012BAF
:1027600039D07B681B689A687B681B6842F001025D
:102770009A601B4B1B681B4AA2FB03239B0CBB608C
:1027800002E0BB68013BBB60BB68002BF9D1FFF7DF
:10279000E3FCF86018E0FFF7DFFC0246FB68D31AA1
:1027A000022B11D97B689B6A43F010027B689A6206
:1027B0007B68DB6A43F001027B68DA627B68002297
:1027C00083F82420012307E07B681B689B6803F0E3
:1027D0000103012BDFD1002318461037BD4680BD11
:1027E0000000002083DE1B4380B584B000AF78601A
:1027F0000023FB607B681B689B6803F00103012BCF
:1028000027D17B681B689A687B681B6822F00102ED
:102810009A60FFF7A1FCF86014E0FFF79DFC024608
:10282000FB68D31A022B0DD97B689B6A43F0100218
:102830007B689A627B68DB6A43F001027B68DA623C
:10284000012307E07B681B689B6803F00103012BF1
:10285000E3D0002318461037BD4680BD80B584B054
:1028600000AF78607B685B6AFB60FB689B6A03F083
:102870005003002B27D1FB689B6A43F40072FB686E
:102880009A62FB681B689B6803F46023B3F5602FB2
:1028900015D1FB681B7B002B11D1FB689B6A23F4CD
:1028A0008072FB689A62FB689B6A03F48053002B7A
:1028B00005D1FB689B6A43F00102FB689A62F868E5
:1028C000FFF72CFE04E0FB681B6A1B6B78689847D7
:1028D00000BF1037BD4680BD80B584B000AF7860C2
:1028E0007B685B6AFB60F868FFF721FE00BF10376A
:1028F000BD4680BD80B584B000AF78607B685B6A00
:10290000FB60FB689B6A43F04002FB689A62FB68CD
:10291000DB6A43F00402FB68DA62F868FFF710FE36
:1029200000BF1037BD4680BD80B584B000AF786071
:102930007B68002B01D10123EDE07B6893F8203008
:10294000DBB2002B02D17868FFF780FA7B681B6846
:102950001A687B681B6822F002021A60FFF7FCFB12
:10296000F86012E0FFF7F8FB0246FB68D31A0A2B67
:102970000BD97B685B6A43F400327B685A627B68E0
:10298000052283F820200123C5E07B681B685B6873
:1029900003F00203002BE5D17B681B681A687B6893
:1029A0001B6842F001021A60FFF7D6FBF86012E0E4
:1029B000FFF7D2FB0246FB68D31A0A2B0BD97B68C0
:1029C0005B6A43F400327B685A627B68052283F8B5
:1029D000202001239FE07B681B685B6803F00103F4
:1029E000002BE5D07B681B7E012B08D17B681B6820
:1029F0001A687B681B6842F080021A6007E07B68F7
:102A00001B681A687B681B6822F080021A607B686A
:102A10005B7E012B08D17B681B681A687B681B688A
:102A200042F040021A6007E07B681B681A687B6806
:102A30001B6822F040021A607B689B7E012B08D144
:102A40007B681B681A687B681B6842F020021A606A
:102A500007E07B681B681A687B681B6822F020020D
:102A60001A607B68DB7E012B08D17B681B681A68C3
:102A70007B681B6822F010021A6007E07B681B6805
:102A80001A687B681B6842F010021A607B681B7F23
:102A9000012B08D17B681B681A687B681B6842F0B1
:102AA00008021A6007E07B681B681A687B681B686D
:102AB00022F008021A607B685B7F012B08D17B68DB
:102AC0001B681A687B681B6842F004021A6007E002
:102AD0007B681B681A687B681B6822F004021A6016
:102AE0007B689A687B68DB681A437B681B691A43BA
:102AF0007B685B6942EA03017B685B685A1E7B68FE
:102B00001B680A43DA617B6800225A627B680122F3
:102B100083F82020002318461037BD4680BD80B4BE
:102B200087B000AF786039607B681B687B617B6829
:102B300093F82030FB74FB7C012B03D0FB7C022B31
:102B400040F0AA807B69D3F8003243F001027B6930
:102B5000C3F800223B685B6903F01F03012202FAFD
:102B600003F3FB607B69D3F81C22FB68DB431A404C
:102B70007B69C3F81C223B68DB69002B23D17B698E
:102B8000D3F80C22FB68DB431A407B69C3F80C22A4
:102B90003B68DB6819043B685B689BB23A68526922
:102BA00019437B69483243F832103B689B6819042B
:102BB0003B681B689AB23B685B690A437969483392
:102BC000DB000B445A603B68DB69012B22D17B6937
:102BD000D3F80C22FB681A437B69C3F80C223B68CC
:102BE0001B6819043B685B689BB23A6852691943D9
:102BF0007B69483243F832103B689B6819043B6894
:102C0000DB689AB23B685B690A4379694833DB0049
:102C10000B445A603B689B69002B09D17B69D3F850
:102C20000422FB68DB431A407B69C3F8042207E0F7
:102C30007B69D3F80422FB681A437B69C3F804223A
:102C40003B681B69002B09D17B69D3F81422FB6810
:102C5000DB431A407B69C3F8142207E07B69D3F891
:102C60001422FB681A437B69C3F814223B681B6A71
:102C7000012B07D17B69D3F81C22FB681A437B69BF
:102C8000C3F81C227B69D3F8003223F001027B6970
:102C9000C3F80022002306E07B685B6A43F48022CD
:102CA0007B685A62012318461C37BD4680BC7047BA
:102CB00080B584B000AF78607B6893F82030DBB2D9
:102CC000012B2ED17B68022283F820207B681B68B1
:102CD0001A687B681B6822F001021A60FFF73CFA51
:102CE000F86012E0FFF738FA0246FB68D31A0A2BA5
:102CF0000BD97B685B6A43F400327B685A627B685D
:102D0000052283F82020012312E07B681B685B68A2
:102D100003F00103002BE5D17B6800225A620023F7
:102D200006E07B685B6A43F400227B685A620123F9
:102D300018461037BD4680BD80B489B000AFF8603A
:102D4000B9607A603B60FB6893F82030FB77FB68E2
:102D50001B689B68BB61FB7F012B03D0FB7F022BB1
:102D600040F0B880BB6903F08063002B0AD1BB69D7
:102D700003F00063002B05D1BB6903F08053002BE7
:102D800000F0A080BB691B0E03F003037B617B692D
:102D9000022B07D9FB685B6A43F40002FB685A62A6
:102DA00001239EE001227B699A403B681A60BB6860
:102DB0009B68002B0DD1BB681B685A05BB68DB689C
:102DC000F96809681A437B6918331B010B441A60C0
:102DD0000FE0BB685B68DA00BB689B681A43BB689E
:102DE000DB68F96809681A437B6918331B010B44D7
:102DF0001A60FB681968BB681A697B6918331B0184
:102E00000B4404331A60BB681B7D012B11D1FB6896
:102E10001A687B6918331B01134404331B68FA6872
:102E2000116843F480727B6918331B010B4404332F
:102E30001A607B6807331B781A067B6806331B7899
:102E40001B041A437B6805331B781B0213437A6803
:102E5000043212781046FA68116843EA00027B696E
:102E60001B010B4403F5C6731A607B6803331B78A0
:102E70001A067B6802331B781B041A437B680133F4
:102E80001B781B0213437A6812781046FA6811689F
:102E900043EA00027B691B010B4403F5C4731A600B
:102EA000FB681A687B6918331B0113441B68FA68B6
:102EB000116843F001027B6918331B010B441A604F
:102EC00000230EE0FB685B6A43F40012FB685A6261
:102ED000012306E0FB685B6A43F48022FB685A62C8
:102EE000012318462437BD4680BC704780B485B0A6
:102EF00000AF786039607B6893F82030FB73FB7B10
:102F0000012B02D0FB7B022B09D17B681B6859691E
:102F10007B681B683A680A435A61002306E07B68B5
:102F20005B6A43F480227B685A6201231846143797
:102F3000BD4680BC704780B58AB000AF7860002382
:102F40007B627B681B685B693B627B681B685B68B4
:102F5000FB617B681B689B68BB617B681B68DB68E7
:102F60007B617B681B681B693B617B681B689B6995
:102F7000FB603B6A03F00103002B7CD0BB6903F0CC
:102F80000103002B23D07B681B6801229A60BB6978
:102F900003F00203002B03D0786800F07DF916E0FF
:102FA000BB6903F00403002B04D07B6A43F4006385
:102FB0007B620CE0BB6903F00803002B04D07B6A42
:102FC00043F480537B6202E0786800F080F9BB69CB
:102FD00003F48073002B24D07B681B684FF480724D
:102FE0009A60BB6903F40073002B03D0786800F08B
:102FF0005CF916E0BB6903F48063002B04D07B6AA4
:1030000043F400537B620CE0BB6903F40063002BC4
:1030100004D07B6A43F480437B6202E0786800F06E
:103020005FF9BB6903F48033002B24D07B681B68F5
:103030004FF480329A60BB6903F40033002B03D055
:10304000786800F03BF916E0BB6903F48023002B9D
:1030500004D07B6A43F400437B620CE0BB6903F459
:103060000023002B04D07B6A43F480337B6202E0B0
:10307000786800F03EF93B6A03F00803002B0CD09F
:103080007B6903F01003002B07D07B6A43F40073C5
:103090007B627B681B681022DA603B6A03F00403E2
:1030A000002B0BD07B6903F00803002B06D07B6854
:1030B0001B680822DA60786800F02DF93B6A03F09B
:1030C0000203002B09D07B681B68DB6803F0030355
:1030D000002B02D0786800F015F93B6A03F040033A
:1030E000002B0CD03B6903F01003002B07D07B6A48
:1030F00043F480637B627B681B6810221A613B6A21
:1031000003F02003002B0BD03B6903F00803002BD6
:1031100006D07B681B6808221A61786800F00DF9F8
:103120003B6A03F01003002B09D07B681B681B6906
:1031300003F00303002B02D0786800F0F5F83B6A37
:1031400003F40033002B0BD0FB6903F01003002BBA
:1031500006D07B681B6810225A60786800F0F6F889
:103160003B6A03F48033002B0BD0FB6903F00803A8
:10317000002B06D07B681B6808225A60786800F034
:10318000EEF83B6A03F40043002B75D0FB6903F0B3
:103190000403002B6CD03B6A03F48073002B08D02F
:1031A000FB6803F00103002B03D07B6A43F00103AB
:1031B0007B623B6A03F40073002B08D0FB6803F0CA
:1031C0000203002B03D07B6A43F002037B623B6A5D
:1031D00003F48063002B08D0FB6803F00403002B8A
:1031E00003D07B6A43F004037B623B6A03F4006311
:1031F000002B3DD0FB6803F07003002B38D0FB6838
:1032000003F07003302B17D0302B04D8102B09D0CB
:10321000202B0CD024E0502B18D0602B1BD0402B3F
:103220000FD01DE07B6A43F008037B6218E07B6AE5
:1032300043F010037B6213E07B6A43F020037B6260
:103240000EE07B6A43F040037B6209E07B6A43F057
:1032500080037B6204E07B6A43F480737B6200BF7F
:103260007B681B689A697B681B6822F070029A6110
:103270007B681B6804225A607B6A002B08D07B683D
:103280005A6A7B6A1A437B685A62786800F070F861
:1032900000BF2837BD4680BD80B483B000AF7860E2
:1032A00000BF0C37BD4680BC704780B483B000AF10
:1032B000786000BF0C37BD4680BC704780B483B0D7
:1032C00000AF786000BF0C37BD4680BC704780B44B
:1032D00083B000AF786000BF0C37BD4680BC70473C
:1032E00080B483B000AF786000BF0C37BD4680BCAF
:1032F000704780B483B000AF786000BF0C37BD4624
:1033000080BC704780B483B000AF786000BF0C37DA
:10331000BD4680BC704780B483B000AF786000BF0A
:103320000C37BD4680BC704780B483B000AF786076
:1033300000BF0C37BD4680BC704780B483B000AF7F
:10334000786000BF0C37BD4680BC704780B483B046
:1033500000AF786000BF0C37BD4680BC704780B4BA
:1033600083B000AF786000BF0C37BD4680BC7047AB
:1033700080B483B000AF786000BF0C37BD4680BC1E
:103380007047000080B485B000AF78607B6803F0C0
:103390000703FB600C4BDB68BB60BA684FF6FF03AA
:1033A0001340BB60FB681A02BB68134343F0BF6362
:1033B00043F40033BB60044ABB68D36000BF1437DA
:1033C000BD4680BC704700BF00ED00E080B400AF98
:1033D000044BDB681B0A03F007031846BD4680BC9C
:1033E000704700BF00ED00E080B483B000AF03463B
:1033F000FB7197F90730002B0BDBFB7903F01F0201
:10340000064997F907305B09012000FA02F241F8FA
:10341000232000BF0C37BD4680BC704700E100E0B0
:1034200080B483B000AF03463960FB7197F9073071
:10343000002B0ADB3B68DAB20C4997F9073012011E
:10344000D2B20B4483F800230AE03B68DAB20849A1
:10345000FB7903F00F03043B1201D2B20B441A763E
:1034600000BF0C37BD4680BC704700BF00E100E0E4
:1034700000ED00E080B489B000AFF860B9607A6018
:10348000FB6803F00703FB61FB69C3F10703042B2F
:1034900028BF0423BB61FB690433062B02D9FB69F7
:1034A000033B00E000237B614FF0FF32BB6902FA6F
:1034B00003F3DA43BB681A407B699A404FF0FF314F
:1034C0007B6901FA03F3D9437B680B401343184629
:1034D0002437BD4680BC704780B582B000AF7860AD
:1034E0007868FFF74FFF00BF0837BD4680BD80B545
:1034F00086B000AF0346B9607A60FB7300237B613E
:10350000FFF764FF78617A68B9687869FFF7B2FFFE
:10351000024697F90F3011461846FFF781FF00BFAA
:103520001837BD4680BD80B582B000AF0346FB7141
:1035300097F907301846FFF757FF00BF0837BD4619
:1035400080BD000080B485B000AF78600023FB60D0
:103550007B68002B01D1012343E07B681B681A467E
:10356000224B1344224AA2FB03231B099A007B68C7
:103570001A647B681F4ADA637B68022283F8212081
:103580007B681B681B68FB60FB6823F47F5323F098
:103590003003FB607B685A687B689B681A437B68D2
:1035A000DB681A437B681B691A437B685B691A43B3
:1035B0007B689B691A437B68DB691343FA68134392
:1035C000FB607B681B68FA681A607B6800229A635C
:1035D0007B68012283F821207B68002283F8202069
:1035E000002318461437BD4680BC7047F8FFFDBF66
:1035F000CDCCCCCC0000024080B586B000AFF860E6
:10360000B9607A603B600023FB75FB6893F820305B
:10361000012B01D102234AE0FB68012283F820201C
:10362000FB6893F82130012B3AD1FB68022283F822
:103630002120FB6800229A63FB681B681A68FB68FC
:103640001B6822F001021A603B687A68B968F86862
:1036500000F038F9FB68DB6A002B08D0FB681B68B8
:103660001A68FB681B6842F00E021A600FE0FB68E4
:103670001B681A68FB681B6822F004021A60FB686A
:103680001B681A68FB681B6842F00A021A60FB6834
:103690001B681A68FB681B6842F001021A6005E0AB
:1036A000FB68002283F820200223FB75FB7D18466F
:1036B0001837BD4680BD000080B584B000AF78608B
:1036C0007B68DB6B1B68FB607B681B681B68BB60EF
:1036D0007B681B6C04229A40FB681340002B4FD080
:1036E000BB6803F00403002B4AD07B681B681B688F
:1036F00003F02003002B07D17B681B681A687B68E6
:103700001B6822F004021A607B681B68664A9342B9
:1037100029D07B681B68654A934222D07B681B686E
:10372000634A93421AD07B681B68624A934212D064
:103730007B681B68604A93420AD07B681B685F4ABB
:10374000934202D14FF480030EE04FF080630BE010
:103750004FF4802308E04FF4804305E04FF480638A
:1037600002E0402300E00423554A53607B68DB6A93
:10377000002B00F094807B68DB6A786898478EE0C5
:103780007B681B6C02229A40FB681340002B56D0CA
:10379000BB6803F00203002B51D07B681B681B68D9
:1037A00003F02003002B0BD17B681B681A687B6831
:1037B0001B6822F00A021A607B68012283F821202C
:1037C0007B681B68384A934229D07B681B68374A5C
:1037D000934222D07B681B68354A93421AD07B689B
:1037E0001B68344A934212D07B681B68324A93426A
:1037F0000AD07B681B68314A934202D14FF4001310
:103800000EE04FF000730BE04FF4003308E04FF48C
:10381000005305E04FF4007302E0202300E0022390
:10382000274A53607B68002283F820207B689B6ACC
:10383000002B34D07B689B6A786898472FE07B68C0
:103840001B6C08229A40FB681340002B28D0BB68F1
:1038500003F00803002B23D07B681B681A687B6881
:103860001B6822F00E021A607B681A6C7B68DB6BA7
:10387000012101FA02F25A607B6801229A637B6897
:10388000012283F821207B68002283F820207B68B6
:103890001B6B002B04D07B681B6B7868984700BFBC
:1038A00000BF1037BD4680BD080002401C0002402A
:1038B0003000024044000240580002406C000240C8
:1038C0000000024080B485B000AFF860B9607A6053
:1038D0003B60FB681A6CFB68DB6B012101FA02F2AA
:1038E0005A60FB681B683A685A60FB685B68102B7B
:1038F00008D1FB681B687A689A60FB681B68BA6825
:10390000DA6007E0FB681B68BA689A60FB681B68AE
:103910007A68DA6000BF1437BD4680BC704700008B
:1039200080B48BB000AF7860396000237B620023E5
:103930003B6227E101227B6A02FA03F3FB613B68E9
:103940001B68FA691340BB61BA69FB699A4240F08F
:1039500016813B685B68122B34D0122B0DD8022BDA
:103960002BD0022B04D8002B31D0012B1CD048E0E7
:10397000032B43D0112B1BD043E0894A934226D01E
:10398000874A934206D8874A934220D0864A934278
:103990001DD036E0854A934219D0854A934216D00D
:1039A000844A934213D02CE03B68DB683B6228E0FA
:1039B0003B68DB6804333B6223E03B68DB68083329
:1039C0003B621EE03B68DB680C333B6219E03B68FE
:1039D0009B68002B02D104233B6212E03B689B688A
:1039E000012B05D108233B627B68FA691A6108E064
:1039F00008233B627B68FA695A6102E000233B625C
:103A000000BFBB69FF2B01D87B6801E07B680433F2
:103A10007B61BB69FF2B02D87B6A9B0002E07B6A5B
:103A2000083B9B003B617B691A680F213B6901FAE7
:103A300003F3DB431A40396A3B6901FA03F31A4383
:103A40007B691A603B685B6803F08053002B00F0D1
:103A50009680594B9B69584A43F001039361564B3A
:103A60009B6903F00103BB60BB68544A7B6A9B08F7
:103A7000023352F82330FB607B6A03F003039B00A0
:103A80000F2202FA03F3DB43FA681340FB607B6802
:103A90004B4A934213D07B684A4A93420DD07B68CD
:103AA000494A934207D07B68484A934201D1032395
:103AB00006E0042304E0022302E0012300E00023E7
:103AC0007A6A02F0030292009340FA681343FB60A3
:103AD0003A497B6A9B080233FA6841F823203B6825
:103AE0005B6803F48033002B06D0394B1A683849E1
:103AF000BB6913430B6006E0354B1A68BB69DB43B7
:103B0000334913400B603B685B6803F40033002BC0
:103B100006D02F4B5A682E49BB6913434B6006E011
:103B20002B4B5A68BB69DB43294913404B603B6808
:103B30005B6803F48013002B06D0254B9A68244958
:103B4000BB6913438B6006E0214B9A68BB69DB437A
:103B50001F4913408B603B685B6803F40013002B24
:103B600006D01B4BDA681A49BB691343CB6006E0E9
:103B7000174BDA68BB69DB4315491340CB607B6A9E
:103B800001337B623B681A687B6A22FA03F3002BDD
:103B90007FF4D0AE00BF2C37BD4680BC704700BF5D
:103BA0000000211000001110000012100000311060
:103BB00000003210000022100010024000000140FE
:103BC00000080140000C01400010014000140140B9
:103BD0000004014080B485B000AF78600B467B8064
:103BE0007B689A687B881340002B02D00123FB730B
:103BF00001E00023FB73FB7B18461437BD4680BCF5
:103C0000704780B483B000AF78600B467B8013466A
:103C10007B707B78002B03D07A887B681A6103E085
:103C20007B881A047B681A6100BF0C37BD4680BCD4
:103C3000704780B483B000AF78600B467B807B68B0
:103C4000DA687B881340002B03D07A887B685A613E
:103C500002E07A887B681A6100BF0C37BD4680BCE1
:103C60007047000080B584B000AF78607B68002B9F
:103C700001D101230FE17B6893F83D30DBB2002BCB
:103C800006D17B68002283F83C207868FEF71EF896
:103C90007B68242283F83D207B681B681A687B6858
:103CA0001B6822F001021A6001F0EAF8F8607B68F4
:103CB0005B687B4A934207D8FB687A4A934294BF79
:103CC00001230023DBB206E0FB68774A934294BFEE
:103CD00001230023DBB2002B01D00123DBE0FB68D2
:103CE000724AA2FB03239B0CBB607B681B685B686A
:103CF00023F03F017B681B68BA680A435A607B68FF
:103D00001B681B6A23F03F017B685B68644A93422F
:103D100002D8BB68013309E0BB684FF4967202FB1E
:103D200003F3634AA2FB03239B0901337A681268F9
:103D30000B4313627B681B68DB6923F44F4222F05C
:103D4000FF027B685B6856498B420DD8FB68591EA1
:103D50007B685B685B00B1FBF3F30133C3F30B03D8
:103D6000042B38BF04234FE07B689B68002B11D1E4
:103D7000FB68581E7B6859680B465B000B44B0FB20
:103D8000F3F30133C3F30B03002B0CBF0123002318
:103D9000DBB212E0FB68581E7B6859680B469B003B
:103DA0000B4499000B44B0FBF3F30133C3F30B0353
:103DB000002B0CBF01230023DBB2002B01D0012319
:103DC00022E07B689B68002B0ED1FB68581E7B6845
:103DD00059680B465B000B44B0FBF3F30133C3F3AC
:103DE0000B0343F400430FE0FB68581E7B685968DF
:103DF0000B469B000B4499000B44B0FBF3F30133DB
:103E0000C3F30B0343F44043796809681343CB6160
:103E10007B681B681B6823F0C0017B68DA697B68DC
:103E20001B6A1A437B681B680A431A607B681B681D
:103E30009B6823F4034323F0FF037A6811697A68CF
:103E4000D26811437A6812680B4393607B681B68E1
:103E5000DB6823F0FF017B685A697B689B691A4322
:103E60007B681B680A43DA607B681B681A687B689A
:103E70001B6842F001021A607B6800221A647B68AA
:103E8000202283F83D207B6800221A637B68002291
:103E900083F83E20002318461037BD4680BD00BF82
:103EA000A08601007F841E00FF083D0083DE1B43C7
:103EB000D34D621080B58CB002AFF8607A601A46BC
:103EC0000B467B8113463B81FEF746F97862FB681F
:103ED00093F83D30DBB2202B40F013827B6A0093D5
:103EE000192301227E49F86800F0C8FA0346002B26
:103EF00001D0022306E2FB6893F83C30012B01D18C
:103F00000223FFE1FB68012283F83C20FB681B6869
:103F10001B6803F00103012B07D0FB681B681A68BC
:103F2000FB681B6842F001021A60FB681B681A6894
:103F3000FB681B6822F400621A60FB68222283F887
:103F40003D20FB68102283F83E20FB6800221A64A3
:103F5000FB687A685A62FB683A895A85FB685B8D10
:103F60009AB2FB681A85FB685E4ADA6279897B6AD5
:103F70003A6BF86800F0CCF90346002B01D001231E
:103F8000C0E1FB681B8D002B13D100233B62FB6853
:103F90001B685B693B62FB681B689B693B623B6A11
:103FA000FB681B681A68FB681B6842F400721A60A1
:103FB00094E1FB681B8D012B1DD1FB681B681A68FF
:103FC000FB681B6822F480621A6072B60023FB61F2
:103FD000FB681B685B69FB61FB681B689B69FB6195
:103FE000FB69FB681B681A68FB681B6842F4007277
:103FF0001A6062B672E1FB681B8D022B1DD1FB6853
:104000001B681A68FB681B6842F400621A6072B68B
:104010000023BB61FB681B685B69BB61FB681B68B5
:104020009B69BB61BB69FB681B681A68FB681B68FE
:1040300022F480621A6062B650E1FB681B681A685D
:10404000FB681B6842F480621A6000237B61FB6896
:104050001B685B697B61FB681B689B697B617B6993
:104060003CE1FB681B8D032B00F2F580FB681B8D88
:10407000012B23D17A6A396BF86800F0D5FA034630
:10408000002B01D001233DE1FB681B681A69FB6826
:104090005B6AD2B21A70FB685B6A5A1CFB685A6290
:1040A000FB681B8D013B9AB2FB681A85FB685B8D30
:1040B0009BB2013B9AB2FB685A850FE1FB681B8DEE
:1040C000022B50D17B6A00933B6B00220649F868B3
:1040D00000F0D4F90346002B08D0012312E100BF01
:1040E000020010000000FFFF0400010072B6FB6830
:1040F0001B681A68FB681B6842F400721A60FB6850
:104100001B681A69FB685B6AD2B21A70FB685B6A4B
:104110005A1CFB685A62FB681B8D013B9AB2FB6814
:104120001A85FB685B8D9BB2013B9AB2FB685A858E
:1041300062B6FB681B681A69FB685B6AD2B21A70C8
:10414000FB685B6A5A1CFB685A62FB681B8D013B6B
:104150009AB2FB681A85FB685B8D9BB2013B9AB2F1
:10416000FB685A85BAE07B6A00933B6B0022674983
:10417000F86800F083F90346002B01D00123C1E069
:10418000FB681B681A68FB681B6822F480621A606F
:1041900072B6FB681B681A69FB685B6AD2B21A7058
:1041A000FB685B6A5A1CFB685A62FB681B8D013B0B
:1041B0009AB2FB681A85FB685B8D9BB2013B9AB291
:1041C000FB685A857B6A00933B6B00224F49F86875
:1041D00000F054F90346002B01D0012392E0FB6864
:1041E0001B681A68FB681B6842F400721A60FB685F
:1041F0001B681A69FB685B6AD2B21A70FB685B6A5B
:104200005A1CFB685A62FB681B8D013B9AB2FB6823
:104210001A85FB685B8D9BB2013B9AB2FB685A859D
:1042200062B6FB681B681A69FB685B6AD2B21A70D7
:10423000FB685B6A5A1CFB685A62FB681B8D013B7A
:104240009AB2FB681A85FB685B8D9BB2013B9AB200
:10425000FB685A8542E07A6A396BF86800F0E4F945
:104260000346002B01D001234CE0FB681B681A6950
:10427000FB685B6AD2B21A70FB685B6A5A1CFB6807
:104280005A62FB681B8D013B9AB2FB681A85FB687A
:104290005B8D9BB2013B9AB2FB685A85FB681B6839
:1042A0005B6903F00403042B18D1FB681B681A69CF
:1042B000FB685B6AD2B21A70FB685B6A5A1CFB68C7
:1042C0005A62FB681B8D013B9AB2FB681A85FB683A
:1042D0005B8D9BB2013B9AB2FB685A85FB681B8DD4
:1042E000002B7FF4BEAEFB68202283F83D20FB68E4
:1042F000002283F83E20FB68002283F83C20002344
:1043000000E0022318462837BD4680BD04000100A6
:1043100080B588B002AFF8607A603B600B467B8165
:10432000FB68DB6A7B61FB681B681A68FB681B68BB
:1043300042F480621A607B69082B06D07B69012BEE
:1043400003D07B6913F5803F08D1FB681B681A68AE
:10435000FB681B6842F480721A600BE0FB681B6B01
:10436000112B07D1FB681B681A68FB681B6842F4B5
:1043700080721A603B6800937B6800224FF0011145
:10438000F86800F07BF80346002B01D001236DE0B4
:10439000FB681B69B3F5804F08D17B89DBB243F022
:1043A0000103DAB2FB681B681A6153E07B89DB11F9
:1043B000DBB203F00603DBB263F00F03DAB2FB6893
:1043C0001B681A613B687A682A49F86800F0ADF802
:1043D0000346002B01D0012348E07B89DAB2FB6859
:1043E0001B681A613B687A682349F86800F09DF8F9
:1043F0000346002B01D0012338E000233B61FB681A
:104400001B685B693B61FB681B689B693B613B699F
:10441000FB681B681A68FB681B6842F480721A60AC
:104420003B6800937B6800224FF00111F86800F0B0
:1044300025F80346002B01D0012317E07B89DB110F
:10444000DBB203F00603DBB263F00E03DAB2FB6803
:104450001B681A613B687A680749F86800F065F8DC
:104460000346002B01D0012300E000231846183733
:10447000BD4680BD080001000200010080B584B087
:1044800000AFF860B9603B601346FB7125E03B6804
:10449000B3F1FF3F21D0FDF75FFE0246BB69D31A9F
:1044A0003A689A4202D33B68002B16D1FB6800227F
:1044B0001A63FB68202283F83D20FB68002283F802
:1044C0003E20FB681B6C43F02002FB681A64FB680B
:1044D000002283F83C20012323E0BB681B0CDBB2E5
:1044E000012B0DD1FB681B685B69DA43BB68134085
:1044F0009BB2002B0CBF01230023DBB21A460CE059
:10450000FB681B689B69DA43BB6813409BB2002BB6
:104510000CBF01230023DBB21A46FB799A42B6D0C6
:10452000002318461037BD4680BD80B584B000AF6B
:10453000F860B9607A603B6051E0FB681B685B69BA
:1045400003F48063B3F5806F23D1FB681B681A689E
:10455000FB681B6842F400721A60FB681B686FF40A
:1045600080625A61FB6800221A63FB68202283F88C
:104570003D20FB68002283F83E20FB681B6C43F063
:104580000402FB681A64FB68002283F83C200123C4
:1045900046E07B68B3F1FF3F21D0FDF7DDFD024629
:1045A0003B68D31A7A689A4202D37B68002B16D1F3
:1045B000FB6800221A63FB68202283F83D20FB6819
:1045C000002283F83E20FB681B6C43F02002FB684E
:1045D0001A64FB68002283F83C20012320E0BB68BA
:1045E0001B0CDBB2012B0CD1FB681B685B69DA4347
:1045F000BB6813409BB2002B14BF01230023DBB226
:104600000BE0FB681B689B69DA43BB6813409BB2F5
:10461000002B14BF01230023DBB2002B8DD100231C
:1046200018461037BD4680BD80B584B000AFF86035
:10463000B9607A6042E0FB681B685B6903F01003B5
:10464000102B19D1FB681B686FF010025A61FB68D0
:1046500000221A63FB68202283F83D20FB680022B9
:1046600083F83E20FB681A6CFB681A64FB68002222
:1046700083F83C20012329E0FDF76EFD02467B68AC
:10468000D31ABA689A4202D3BB68002B16D1FB68D2
:1046900000221A63FB68202283F83D20FB68002279
:1046A00083F83E20FB681B6C43F02002FB681A6411
:1046B000FB68002283F83C20012307E0FB681B68AD
:1046C0005B6903F04003402BB5D100231846103737
:1046D000BD4680BD80B586B000AF78607B68002B9A
:1046E00001D101236CE27B681B6803F00103002BFE
:1046F00000F08780924B5B6803F00C03042B0CD016
:104700008F4B5B6803F00C03082B12D18C4B5B685A
:1047100003F48033B3F5803F0BD1894B1B6803F45E
:104720000033002B6CD07B685B68002B68D10123C1
:1047300046E27B685B68B3F5803F06D1804B1B681F
:104740007F4A43F4803313602EE07B685B68002B64
:104750000CD17B4B1B687A4A23F480331360784B6F
:104760001B68774A23F4802313601DE07B685B6835
:10477000B3F5A02F0CD1724B1B68714A43F4802310
:1047800013606F4B1B686E4A43F4803313600BE079
:104790006B4B1B686A4A23F480331360684B1B68B9
:1047A000674A23F4802313607B685B68002B13D077
:1047B000FDF7D2FC386108E0FDF7CEFC02463B690C
:1047C000D31A642B01D90323FAE15D4B1B6803F470
:1047D0000033002BF0D014E0FDF7BEFC386108E098
:1047E000FDF7BAFC02463B69D31A642B01D90323B7
:1047F000E6E1534B1B6803F40033002BF0D100E0DB
:1048000000BF7B681B6803F00203002B63D04C4B96
:104810005B6803F00C03002B0BD0494B5B6803F083
:104820000C03082B1CD1464B5B6803F48033002B30
:1048300016D1434B1B6803F00203002B05D07B68A5
:104840001B69012B01D00123BAE13D4B1B6823F00A
:10485000F8027B685B69DB00394913430B603AE07F
:104860007B681B69002B20D0364B01221A60FDF7B4
:1048700073FC386108E0FDF76FFC02463B69D31A10
:10488000022B01D903239BE12D4B1B6803F002038C
:10489000002BF0D02A4B1B6823F0F8027B685B6981
:1048A000DB00274913430B6015E0264B00221A60FA
:1048B000FDF752FC386108E0FDF74EFC02463B690B
:1048C000D31A022B01D903237AE11D4B1B6803F095
:1048D0000203002BF0D17B681B6803F00803002B58
:1048E0003AD07B689B69002B19D0174B01221A60C4
:1048F000FDF732FC386108E0FDF72EFC02463B690B
:10490000D31A022B01D903235AE10D4B5B6A03F042
:104910000203002BF0D0012000F00AFB1CE00A4B40
:1049200000221A60FDF718FC38610FE0FDF714FC57
:1049300002463B69D31A022B08D9032340E100BF8A
:104940000010024000004242800442429E4B5B6ADB
:1049500003F00203002BE9D17B681B6803F004031A
:10496000002B00F0A6800023FB75974BDB6903F05A
:104970008053002B0DD1944BDB69934A43F0805355
:10498000D361914BDB6903F08053BB60BB680123AB
:10499000FB758E4B1B6803F48073002B18D18B4B77
:1049A0001B688A4A43F480731360FDF7D5FB3861B6
:1049B00008E0FDF7D1FB02463B69D31A642B01D90D
:1049C0000323FDE0814B1B6803F48073002BF0D0C0
:1049D0007B68DB68012B06D17B4B1B6A7A4A43F06C
:1049E000010313622DE07B68DB68002B0CD1764B52
:1049F0001B6A754A23F001031362734B1B6A724AE8
:104A000023F0040313621CE07B68DB68052B0CD1E8
:104A10006D4B1B6A6C4A43F0040313626A4B1B6ABA
:104A2000694A43F0010313620BE0674B1B6A664A55
:104A300023F001031362644B1B6A634A23F00403EF
:104A400013627B68DB68002B15D0FDF785FB3861AE
:104A50000AE0FDF781FB02463B69D31A41F2883236
:104A6000934201D90323ABE0574B1B6A03F00203C7
:104A7000002BEED014E0FDF76FFB38610AE0FDF784
:104A80006BFB02463B69D31A41F28832934201D94B
:104A9000032395E04C4B1B6A03F00203002BEED17D
:104AA000FB7D012B05D1484BDB69474A23F080533E
:104AB000D3617B68DB69002B00F08180424B5B682F
:104AC00003F00C03082B61D07B68DB69022B46D115
:104AD0003F4B00221A60FDF73FFB386108E0FDF70D
:104AE0003BFB02463B69D31A022B01D9032367E043
:104AF000354B1B6803F00073002BF0D17B681B6AF9
:104B0000B3F5803F08D1304B5B6823F400327B68FB
:104B10009B682D4913434B602B4B5B6823F4741245
:104B20007B68196A7B685B6A0B43274913434B60B8
:104B3000274B01221A60FDF70FFB386108E0FDF7F3
:104B40000BFB02463B69D31A022B01D9032337E042
:104B50001D4B1B6803F00073002BF0D02FE01C4BA3
:104B600000221A60FDF7F8FA386108E0FDF7F4FA60
:104B700002463B69D31A022B01D9032320E0124BD2
:104B80001B6803F00073002BF0D118E07B68DB6931
:104B9000012B01D1012313E00B4B5B68FB60FB6829
:104BA00003F480327B681B6A9A4206D1FB6803F4E7
:104BB00070127B685B6A9A4201D0012300E00023F7
:104BC00018461837BD4680BD0010024000700040F6
:104BD0006000424280B584B000AF786039607B6885
:104BE000002B01D10123D0E06A4B1B6803F00703BF
:104BF0003A689A4210D9674B1B6823F0070265494F
:104C00003B6813430B60634B1B6803F007033A6870
:104C10009A4201D00123B8E07B681B6803F00203CD
:104C2000002B20D07B681B6803F00403002B05D009
:104C3000594B5B68584A43F4E06353607B681B68D8
:104C400003F00803002B05D0534B5B68524A43F432
:104C500060535360504B5B6823F0F0027B689B68A5
:104C60004D4913434B607B681B6803F00103002B25
:104C700040D07B685B68012B07D1474B1B6803F46E
:104C80000033002B15D101237FE07B685B68022B8A
:104C900007D1414B1B6803F00073002B09D101239E
:104CA00073E03D4B1B6803F00203002B01D101238D
:104CB0006BE0394B5B6823F003027B685B68364925
:104CC00013434B60FDF748FAF8600AE0FDF744FA39
:104CD0000246FB68D31A41F28832934201D903237A
:104CE00053E02D4B5B6803F00C027B685B689B0014
:104CF0009A42EBD1274B1B6803F007033A689A42AC
:104D000010D2244B1B6823F0070222493B6813434F
:104D10000B60204B1B6803F007033A689A4201D0EE
:104D2000012332E07B681B6803F00403002B08D0EA
:104D3000194B5B6823F4E0627B68DB681649134318
:104D40004B607B681B6803F00803002B09D0124BF3
:104D50005B6823F460527B681B69DB000E491343D8
:104D60004B6000F021F801460B4B5B681B0903F018
:104D70000F030A4AD35C21FA03F3094A1360094B73
:104D80001B681846FDF7E2F8002318461037BD46A9
:104D900080BD00BF002002400010024020850008B6
:104DA000000000200400002090B48AB000AF2A4B1D
:104DB0003C1D0FCB84E80F00284B1B883B80002351
:104DC000FB610023BB6100237B6200237B61002326
:104DD0003B62234B5B68FB61FB6903F00C03042B14
:104DE00002D0082B03D02DE01E4B3B622DE0FB6967
:104DF0009B0C03F00F0307F12802134413F8243C23
:104E00007B61FB6903F48033002B13D0144B5B6888
:104E10005B0C03F0010307F12802134413F8283C4C
:104E2000BB617B690F4A02FB03F2BB69B2FBF3F380
:104E30007B6204E07B690C4A02FB03F37B627B6AC2
:104E40003B6202E0074B3B6200BF3B6A18462837D3
:104E5000BD4690BC704700BF94840008A48400083D
:104E60000010024000127A0000093D0080B400AF3B
:104E7000024B1B681846BD4680BC704700000020EE
:104E800080B500AFFFF7F2FF0146054B5B681B0AD8
:104E900003F00703034AD35C21FA03F3184680BDED
:104EA000001002403085000880B500AFFFF7DEFF3C
:104EB0000146054B5B68DB0A03F00703034AD35C3A
:104EC00021FA03F3184680BD001002403085000827
:104ED00080B483B000AF786039607B680F221A60BD
:104EE000114B5B6803F003027B685A600E4B5B68F2
:104EF00003F0F0027B689A600B4B5B6803F4E0629E
:104F00007B68DA60084B5B68DB0803F4E0627B686F
:104F10001A61064B1B6803F007023B681A6000BF6A
:104F20000C37BD4680BC7047001002400020024094
:104F300080B485B000AF78600A4B1B680A4AA2FBB8
:104F400003235B0A7A6802FB03F3FB6000BFFB6884
:104F50005A1EFA60002BF9D100BF1437BD4680BC41
:104F6000704700BF00000020D34D621080B586B0AE
:104F700000AF786000233B610023FB607B681B6807
:104F800003F00103002B7DD00023FB754F4BDB6941
:104F900003F08053002B0DD14C4BDB694B4A43F09F
:104FA0008053D361494BDB6903F08053BB60BB681E
:104FB0000123FB75464B1B6803F48073002B18D14B
:104FC000434B1B68424A43F480731360FDF7C4F8F7
:104FD000386108E0FDF7C0F802463B69D31A642B3C
:104FE00001D903236DE03A4B1B6803F48073002B57
:104FF000F0D0364B1B6A03F44073FB60FB68002B58
:105000002ED07B685B6803F44073FA689A4227D01D
:105010002E4B1B6A23F44073FB602E4B01221A6057
:105020002C4B00221A60294AFB681362FB6803F0CC
:105030000103002B14D0FDF78FF838610AE0FDF76B
:105040008BF802463B69D31A41F28832934201D968
:10505000032336E01D4B1B6A03F00203002BEED046
:105060001A4B1B6A23F440727B685B681749134331
:105070000B62FB7D012B05D1144BDB69134A23F036
:105080008053D3617B681B6803F00203002B08D0B8
:105090000E4B5B6823F440427B689B680B491343CB
:1050A0004B607B681B6803F01003002B08D0074B94
:1050B0005B6823F480027B68DB68044913434B6020
:1050C000002318461837BD4680BD00BF00100240BF
:1050D000007000404004424280B582B000AF78606A
:1050E0007B68002B01D101231DE07B6893F83D30E4
:1050F000DBB2002B06D17B68002283F83C20786865
:1051000000F015F87B68022283F83D207B681A685E
:105110007B6804331946104600F062F97B6801226F
:1051200083F83D20002318460837BD4680BD80B473
:1051300083B000AF786000BF0C37BD4680BC7047BD
:1051400080B485B000AF78607B681B68DA687B68E4
:105150001B6842F00102DA607B681B689B6803F001
:105160000703FB60FB68062B07D07B681B681A6887
:105170007B681B6842F001021A600023184614374E
:10518000BD4680BC704780B582B000AF78607B6858
:105190001B681B6903F00203022B22D17B681B688A
:1051A000DB6803F00203022B1BD17B681B686FF0E6
:1051B00002021A617B6801221A777B681B689B696F
:1051C00003F00303002B03D0786800F0EDF805E04E
:1051D000786800F0E0F8786800F0EFF87B6800226B
:1051E0001A777B681B681B6903F00403042B22D128
:1051F0007B681B68DB6803F00403042B1BD17B680E
:105200001B686FF004021A617B6802221A777B68C0
:105210001B689B6903F44073002B03D0786800F08F
:10522000C3F805E0786800F0B6F8786800F0C5F8D3
:105230007B6800221A777B681B681B6903F00803F0
:10524000082B22D17B681B68DB6803F00803082B5E
:105250001BD17B681B686FF008021A617B6804220F
:105260001A777B681B68DB6903F00303002B03D00C
:10527000786800F099F805E0786800F08CF87868B4
:1052800000F09BF87B6800221A777B681B681B691B
:1052900003F01003102B22D17B681B68DB6803F03E
:1052A0001003102B1BD17B681B686FF010021A6172
:1052B0007B6808221A777B681B68DB6903F44073FC
:1052C000002B03D0786800F06FF805E0786800F0F4
:1052D00062F8786800F071F87B6800221A777B68C2
:1052E0001B681B6903F00103012B0ED17B681B684F
:1052F000DB6803F00103012B07D17B681B686FF0AB
:1053000001021A617868FCF78FFC7B681B681B69D7
:1053100003F08003802B0ED17B681B68DB6803F0F1
:105320008003802B07D17B681B686FF080021A61B5
:10533000786800F0C0F87B681B681B6903F04003C5
:10534000402B0ED17B681B68DB6803F04003402BC9
:1053500007D17B681B686FF040021A61786800F023
:1053600035F87B681B681B6903F02003202B0ED1E6
:105370007B681B68DB6803F02003202B07D17B6868
:105380001B686FF020021A61786800F08BF800BF8C
:105390000837BD4680BD80B483B000AF786000BFE1
:1053A0000C37BD4680BC704780B483B000AF7860D6
:1053B00000BF0C37BD4680BC704780B483B000AFDF
:1053C000786000BF0C37BD4680BC704780B483B0A6
:1053D00000AF786000BF0C37BD4680BC704700004E
:1053E00080B485B000AF786039607B681B68FB6073
:1053F0007B68294A93420BD07B68B3F1804F07D07A
:105400007B68264A934203D07B68254A934208D1A1
:10541000FB6823F07003FB603B685B68FA6813432A
:10542000FB607B681C4A93420BD07B68B3F1804FD2
:1054300007D07B68194A934203D07B68184A93428D
:1054400008D1FB6823F44073FB603B68DB68FA68B3
:105450001343FB60FB6823F080023B685B691343E6
:10546000FB607B68FA681A603B689A687B68DA625E
:105470003B681A687B689A627B68074A934203D14B
:105480003B681A697B681A637B6801225A6100BF16
:105490001437BD4680BC7047002C0140000400401A
:1054A0000008004080B483B000AF786000BF0C37C4
:1054B000BD4680BC704780B483B000AF786000BF49
:1054C0000C37BD4680BC7047002103E00B4B5B5896
:1054D000435004310A480B4B42189A42F6D30A4A09
:1054E00002E0002342F8043B084B9A42F9D3FCF750
:1054F000D7FD02F059FFFBF725FD70474C850008EA
:10550000000000201000002010000020B023002028
:10551000FEE780B483B000AF78607B6803F10802D7
:105520007B685A607B684FF0FF329A607B6803F1BA
:1055300008027B68DA607B6803F108027B681A6105
:105540007B6800221A6000BF0C37BD4680BC7047E4
:1055500080B483B000AF78607B6800221A6100BF1E
:105560000C37BD4680BC704780B485B000AF786012
:1055700039607B685B68FB603B68FA685A60FB686F
:105580009A683B689A60FB689B683A685A60FB6857
:105590003A689A603B687A681A617B681B685A1C93
:1055A0007B681A6000BF1437BD4680BC704780B46A
:1055B00085B000AF786039603B681B68BB60BB6832
:1055C000B3F1FF3F03D17B681B69FB600CE07B6894
:1055D0000833FB6002E0FB685B68FB60FB685B68AC
:1055E0001B68BA689A42F6D2FB685A683B685A60F0
:1055F0003B685B683A689A603B68FA689A60FB6847
:105600003A685A603B687A681A617B681B685A1C62
:105610007B681A6000BF1437BD4680BC704780B4F9
:1056200085B000AF78607B681B69FB607B685B6856
:105630007A6892689A607B689B687A6852685A6058
:10564000FB685B687A689A4203D17B689A68FB685A
:105650005A607B6800221A61FB681B685A1EFB684F
:105660001A60FB681B6818461437BD4680BC70473B
:1056700080B584B000AF786039607B68FB60FB6800
:10568000002B09D14FF0500383F31188BFF36F8FC4
:10569000BFF34F8FBB60FEE701F0E4F8FB681A68C8
:1056A000FB68DB6BF968096C01FB03F31A44FB68C8
:1056B0005A60FB6800229A63FB681A68FB689A606C
:1056C000FB681A68FB68DB6B013BF968096C01FB3E
:1056D00003F31A44FB68DA60FB68FF2283F8442076
:1056E000FB68FF2283F845203B68002B14D1FB6840
:1056F0001B69002B1AD0FB681033184600F0BAFD66
:105700000346002B12D00D4B4FF080521A60BFF3AE
:105710004F8FBFF36F8F09E0FB6810331846FFF718
:10572000F8FEFB6824331846FFF7F3FE01F0C8F8D3
:10573000012318461037BD4680BD00BF04ED00E0D0
:1057400080B58AB002AFF860B9601346FB71FB68A0
:10575000002B09D14FF0500383F31188BFF36F8FF3
:10576000BFF34F8F3B61FEE7BB68002B02D10023E4
:10577000FB6104E0FB68BA6802FB03F3FB61FB69B1
:105780004833184601F032F9B861BB69002B0FD0DD
:10579000BB6948337B61BB69002283F84620FA79F4
:1057A000BB69009313467A69B968F86800F005F898
:1057B000BB6918462037BD4680BD80B584B000AFB8
:1057C000F860B9607A60FB70BB68002B03D1BB69DD
:1057D000BA691A6002E0BB697A681A60BB69FA6844
:1057E000DA63BB69BA681A640121B869FFF740FF40
:1057F000FB78BA68F968732001F0BAFF00BF103770
:10580000BD4680BD80B58EB004AFF860B9607A60E7
:105810003B607B6B002B09D14FF0500383F3118861
:10582000BFF36F8FBFF34F8F3B62FEE7BB6B002B65
:1058300009D14FF0500383F31188BFF36F8FBFF38B
:105840004F8FFB61FEE754233B613B69542B09D02A
:105850004FF0500383F31188BFF36F8FBFF34F8F67
:10586000BB61FEE7BB6B002B1ED07B6B002B1BD0FC
:10587000BB6B7B627B6A7A6B1A637B6A022283F85A
:105880005120002303937B6A029307F114030193D1
:105890003B6B00933B687A68B968F86800F050F891
:1058A000786A00F0CBF801E000237B617B69184641
:1058B0002837BD4680BD80B58CB004AFF860B960B4
:1058C0003B601346FB80FB889B00184601F08EF876
:1058D00078617B69002B0ED0542001F087F8F861C5
:1058E000FB69002B03D0FB697A691A6305E07869CC
:1058F00001F03EF901E00023FB61FB69002B17D0AA
:10590000FB69002283F85120FA8800230393FB6986
:105910000293FB6A0193BB6A00933B68B968F8681D
:1059200000F00EF8F86900F089F80123BB6102E08D
:105930004FF0FF33BB61BB6918462037BD4680BDC1
:1059400080B588B000AFF860B9607A603B603B6BAF
:105950001A6B7B6803F18043013B9B001344BB61DE
:10596000BB6923F00703BB61BB6903F00703002B8E
:1059700009D04FF0500383F31188BFF36F8FBFF34B
:105980004F8F7B61FEE70023FB6112E0BA68FB6981
:10599000134419783A6BFB69134434330A461A707E
:1059A000BA68FB6913441B78002B06D0FB690133EE
:1059B000FB61FB690F2BE9D900E000BF3B6B0022C4
:1059C00083F84320BB6A062B01D90623BB623B6BDD
:1059D000BA6ADA623B6BBA6A5A643B6B00229A6419
:1059E0003B6B04331846FFF7B3FD3B6B1833184687
:1059F000FFF7AEFD3B6B3A6B1A61BB6AC3F107025E
:105A00003B6B9A613B6B3A6B5A623B6B0022DA64E8
:105A10003B6B002283F850203A68F968B86900F0BF
:105A2000DDFD02463B6B1A60FB6A002B02D0FB6A6D
:105A30003A6B1A6000BF2037BD4680BDB0B584B058
:105A400002AF786000F00EFF394B1B680133384A13
:105A50001360384B1B68002B09D1364A7B681360F2
:105A6000334B1B68012B10D100F082FC0DE0324B50
:105A70001B68002B09D12F4B1B68DA6A7B68DB6A35
:105A80009A4202D82B4A7B6813602C4B1B68013367
:105A90002A4A13607B68002B16D07B68184602F0F8
:105AA00015FA78687B6803F134017B68DA6A7B68F1
:105AB0001B6B1D467B681B681C467B681B6BE31ACF
:105AC00000932B4601F066F97B68184602F082FAD3
:105AD0007B68DB6A01229A40194B1B681343184A02
